{
	"contracts/2_0_TicTacToe.sol": {
		"TicTacToe": {
			"abi": [
				{
					"inputs": [
						{
							"internalType": "address",
							"name": "pJugador1",
							"type": "address"
						},
						{
							"internalType": "address",
							"name": "pJugador2",
							"type": "address"
						}
					],
					"name": "crearPartida",
					"outputs": [
						{
							"internalType": "uint256",
							"name": "",
							"type": "uint256"
						}
					],
					"stateMutability": "nonpayable",
					"type": "function"
				},
				{
					"inputs": [
						{
							"internalType": "uint256",
							"name": "idPartida",
							"type": "uint256"
						},
						{
							"internalType": "uint256",
							"name": "horizontal",
							"type": "uint256"
						},
						{
							"internalType": "uint256",
							"name": "vertical",
							"type": "uint256"
						}
					],
					"name": "jugar",
					"outputs": [],
					"stateMutability": "nonpayable",
					"type": "function"
				}
			],
			"devdoc": {
				"kind": "dev",
				"methods": {},
				"version": 1
			},
			"evm": {
				"assembly": "    /* \"contracts/2_0_TicTacToe.sol\":114:1881  contract TicTacToe{... */\n  mstore(0x40, 0x80)\n  callvalue\n  dup1\n  iszero\n  tag_1\n  jumpi\n  0x00\n  dup1\n  revert\ntag_1:\n  pop\n  dataSize(sub_0)\n  dup1\n  dataOffset(sub_0)\n  0x00\n  codecopy\n  0x00\n  return\nstop\n\nsub_0: assembly {\n        /* \"contracts/2_0_TicTacToe.sol\":114:1881  contract TicTacToe{... */\n      mstore(0x40, 0x80)\n      callvalue\n      dup1\n      iszero\n      tag_1\n      jumpi\n      0x00\n      dup1\n      revert\n    tag_1:\n      pop\n      jumpi(tag_2, lt(calldatasize, 0x04))\n      shr(0xe0, calldataload(0x00))\n      dup1\n      0x1c5aef60\n      eq\n      tag_3\n      jumpi\n      dup1\n      0x4a5802da\n      eq\n      tag_4\n      jumpi\n    tag_2:\n      0x00\n      dup1\n      revert\n        /* \"contracts/2_0_TicTacToe.sol\":390:783  function crearPartida(address pJugador1, address pJugador2) public returns(uint){... */\n    tag_3:\n      tag_5\n      0x04\n      dup1\n      calldatasize\n      sub\n      dup2\n      add\n      swap1\n      tag_6\n      swap2\n      swap1\n      tag_7\n      jump\t// in\n    tag_6:\n      tag_8\n      jump\t// in\n    tag_5:\n      mload(0x40)\n      tag_9\n      swap2\n      swap1\n      tag_10\n      jump\t// in\n    tag_9:\n      mload(0x40)\n      dup1\n      swap2\n      sub\n      swap1\n      return\n        /* \"contracts/2_0_TicTacToe.sol\":791:1391  function jugar(uint idPartida, uint horizontal, uint vertical) public {... */\n    tag_4:\n      tag_11\n      0x04\n      dup1\n      calldatasize\n      sub\n      dup2\n      add\n      swap1\n      tag_12\n      swap2\n      swap1\n      tag_13\n      jump\t// in\n    tag_12:\n      tag_14\n      jump\t// in\n    tag_11:\n      stop\n        /* \"contracts/2_0_TicTacToe.sol\":390:783  function crearPartida(address pJugador1, address pJugador2) public returns(uint){... */\n    tag_8:\n        /* \"contracts/2_0_TicTacToe.sol\":465:469  uint */\n      0x00\n        /* \"contracts/2_0_TicTacToe.sol\":526:535  pJugador2 */\n      dup2\n        /* \"contracts/2_0_TicTacToe.sol\":513:535  pJugador1 != pJugador2 */\n      0xffffffffffffffffffffffffffffffffffffffff\n      and\n        /* \"contracts/2_0_TicTacToe.sol\":513:522  pJugador1 */\n      dup4\n        /* \"contracts/2_0_TicTacToe.sol\":513:535  pJugador1 != pJugador2 */\n      0xffffffffffffffffffffffffffffffffffffffff\n      and\n      sub\n        /* \"contracts/2_0_TicTacToe.sol\":505:536  require(pJugador1 != pJugador2) */\n      tag_16\n      jumpi\n      0x00\n      dup1\n      revert\n    tag_16:\n        /* \"contracts/2_0_TicTacToe.sol\":572:586  uint idPartida */\n      0x00\n        /* \"contracts/2_0_TicTacToe.sol\":589:597  partidas */\n      dup1\n        /* \"contracts/2_0_TicTacToe.sol\":589:604  partidas.length */\n      dup1\n      sload\n      swap1\n      pop\n        /* \"contracts/2_0_TicTacToe.sol\":572:604  uint idPartida = partidas.length */\n      swap1\n      pop\n        /* \"contracts/2_0_TicTacToe.sol\":615:637  Partida memory partida */\n      tag_17\n      tag_18\n      jump\t// in\n    tag_17:\n        /* \"contracts/2_0_TicTacToe.sol\":667:676  pJugador1 */\n      dup5\n        /* \"contracts/2_0_TicTacToe.sol\":648:655  partida */\n      dup2\n        /* \"contracts/2_0_TicTacToe.sol\":648:664  partida.jugador1 */\n      0x00\n      add\n        /* \"contracts/2_0_TicTacToe.sol\":648:676  partida.jugador1 = pJugador1 */\n      swap1\n      0xffffffffffffffffffffffffffffffffffffffff\n      and\n      swap1\n      dup2\n      0xffffffffffffffffffffffffffffffffffffffff\n      and\n      dup2\n      mstore\n      pop\n      pop\n        /* \"contracts/2_0_TicTacToe.sol\":706:715  pJugador2 */\n      dup4\n        /* \"contracts/2_0_TicTacToe.sol\":687:694  partida */\n      dup2\n        /* \"contracts/2_0_TicTacToe.sol\":687:703  partida.jugador2 */\n      0x20\n      add\n        /* \"contracts/2_0_TicTacToe.sol\":687:715  partida.jugador2 = pJugador2 */\n      swap1\n      0xffffffffffffffffffffffffffffffffffffffff\n      and\n      swap1\n      dup2\n      0xffffffffffffffffffffffffffffffffffffffff\n      and\n      dup2\n      mstore\n      pop\n      pop\n        /* \"contracts/2_0_TicTacToe.sol\":726:734  partidas */\n      0x00\n        /* \"contracts/2_0_TicTacToe.sol\":740:747  partida */\n      dup2\n        /* \"contracts/2_0_TicTacToe.sol\":726:748  partidas.push(partida) */\n      swap1\n      dup1\n      0x01\n      dup2\n      sload\n      add\n      dup1\n      dup3\n      sstore\n      dup1\n      swap2\n      pop\n      pop\n      0x01\n      swap1\n      sub\n      swap1\n      0x00\n      mstore\n      keccak256(0x00, 0x20)\n      swap1\n      0x14\n      mul\n      add\n      0x00\n      swap1\n      swap2\n      swap1\n      swap2\n      swap1\n      swap2\n      pop\n      0x00\n      dup3\n      add\n      mload\n      dup2\n      0x00\n      add\n      exp(0x0100, 0x00)\n      dup2\n      sload\n      dup2\n      0xffffffffffffffffffffffffffffffffffffffff\n      mul\n      not\n      and\n      swap1\n      dup4\n      0xffffffffffffffffffffffffffffffffffffffff\n      and\n      mul\n      or\n      swap1\n      sstore\n      pop\n      0x20\n      dup3\n      add\n      mload\n      dup2\n      0x01\n      add\n      exp(0x0100, 0x00)\n      dup2\n      sload\n      dup2\n      0xffffffffffffffffffffffffffffffffffffffff\n      mul\n      not\n      and\n      swap1\n      dup4\n      0xffffffffffffffffffffffffffffffffffffffff\n      and\n      mul\n      or\n      swap1\n      sstore\n      pop\n      0x40\n      dup3\n      add\n      mload\n      dup2\n      0x02\n      add\n      exp(0x0100, 0x00)\n      dup2\n      sload\n      dup2\n      0xffffffffffffffffffffffffffffffffffffffff\n      mul\n      not\n      and\n      swap1\n      dup4\n      0xffffffffffffffffffffffffffffffffffffffff\n      and\n      mul\n      or\n      swap1\n      sstore\n      pop\n      0x60\n      dup3\n      add\n      mload\n      dup2\n      0x03\n      add\n      swap1\n      0x04\n      tag_20\n      swap3\n      swap2\n      swap1\n      tag_21\n      jump\t// in\n    tag_20:\n      pop\n      0x80\n      dup3\n      add\n      mload\n      dup2\n      0x13\n      add\n      exp(0x0100, 0x00)\n      dup2\n      sload\n      dup2\n      0xffffffffffffffffffffffffffffffffffffffff\n      mul\n      not\n      and\n      swap1\n      dup4\n      0xffffffffffffffffffffffffffffffffffffffff\n      and\n      mul\n      or\n      swap1\n      sstore\n      pop\n      pop\n      pop\n        /* \"contracts/2_0_TicTacToe.sol\":766:775  idPartida */\n      dup2\n        /* \"contracts/2_0_TicTacToe.sol\":759:775  return idPartida */\n      swap3\n      pop\n      pop\n      pop\n        /* \"contracts/2_0_TicTacToe.sol\":390:783  function crearPartida(address pJugador1, address pJugador2) public returns(uint){... */\n      swap3\n      swap2\n      pop\n      pop\n      jump\t// out\n        /* \"contracts/2_0_TicTacToe.sol\":791:1391  function jugar(uint idPartida, uint horizontal, uint vertical) public {... */\n    tag_14:\n        /* \"contracts/2_0_TicTacToe.sol\":896:918  Partida memory partida */\n      0x00\n        /* \"contracts/2_0_TicTacToe.sol\":921:929  partidas */\n      dup1\n        /* \"contracts/2_0_TicTacToe.sol\":930:939  idPartida */\n      dup5\n        /* \"contracts/2_0_TicTacToe.sol\":921:940  partidas[idPartida] */\n      dup2\n      sload\n      dup2\n      lt\n      tag_23\n      jumpi\n      tag_24\n      tag_25\n      jump\t// in\n    tag_24:\n    tag_23:\n      swap1\n      0x00\n      mstore\n      keccak256(0x00, 0x20)\n      swap1\n      0x14\n      mul\n      add\n        /* \"contracts/2_0_TicTacToe.sol\":896:940  Partida memory partida = partidas[idPartida] */\n      mload(0x40)\n      dup1\n      0xa0\n      add\n      0x40\n      mstore\n      swap1\n      dup2\n      0x00\n      dup3\n      add\n      0x00\n      swap1\n      sload\n      swap1\n      0x0100\n      exp\n      swap1\n      div\n      0xffffffffffffffffffffffffffffffffffffffff\n      and\n      0xffffffffffffffffffffffffffffffffffffffff\n      and\n      0xffffffffffffffffffffffffffffffffffffffff\n      and\n      dup2\n      mstore\n      0x20\n      add\n      0x01\n      dup3\n      add\n      0x00\n      swap1\n      sload\n      swap1\n      0x0100\n      exp\n      swap1\n      div\n      0xffffffffffffffffffffffffffffffffffffffff\n      and\n      0xffffffffffffffffffffffffffffffffffffffff\n      and\n      0xffffffffffffffffffffffffffffffffffffffff\n      and\n      dup2\n      mstore\n      0x20\n      add\n      0x02\n      dup3\n      add\n      0x00\n      swap1\n      sload\n      swap1\n      0x0100\n      exp\n      swap1\n      div\n      0xffffffffffffffffffffffffffffffffffffffff\n      and\n      0xffffffffffffffffffffffffffffffffffffffff\n      and\n      0xffffffffffffffffffffffffffffffffffffffff\n      and\n      dup2\n      mstore\n      0x20\n      add\n      0x03\n      dup3\n      add\n      0x04\n      dup1\n      0x20\n      mul\n      mload(0x40)\n      swap1\n      dup2\n      add\n      0x40\n      mstore\n      dup1\n      swap3\n      swap2\n      swap1\n      0x00\n      swap1\n    tag_27:\n      dup3\n      dup3\n      lt\n      iszero\n      tag_28\n      jumpi\n      dup4\n      dup3\n      0x04\n      mul\n      add\n      0x04\n      dup1\n      0x20\n      mul\n      mload(0x40)\n      swap1\n      dup2\n      add\n      0x40\n      mstore\n      dup1\n      swap3\n      swap2\n      swap1\n      dup3\n      0x04\n      dup1\n      iszero\n      tag_30\n      jumpi\n      0x20\n      mul\n      dup3\n      add\n      swap2\n    tag_31:\n      dup2\n      sload\n      dup2\n      mstore\n      0x20\n      add\n      swap1\n      0x01\n      add\n      swap1\n      dup1\n      dup4\n      gt\n      tag_31\n      jumpi\n    tag_30:\n      pop\n      pop\n      pop\n      pop\n      pop\n      dup2\n      mstore\n      0x20\n      add\n      swap1\n      0x01\n      add\n      swap1\n      jump(tag_27)\n    tag_28:\n      pop\n      pop\n      pop\n      pop\n      dup2\n      mstore\n      0x20\n      add\n      0x13\n      dup3\n      add\n      0x00\n      swap1\n      sload\n      swap1\n      0x0100\n      exp\n      swap1\n      div\n      0xffffffffffffffffffffffffffffffffffffffff\n      and\n      0xffffffffffffffffffffffffffffffffffffffff\n      and\n      0xffffffffffffffffffffffffffffffffffffffff\n      and\n      dup2\n      mstore\n      pop\n      pop\n      swap1\n      pop\n        /* \"contracts/2_0_TicTacToe.sol\":973:980  partida */\n      dup1\n        /* \"contracts/2_0_TicTacToe.sol\":973:989  partida.jugador1 */\n      0x00\n      add\n      mload\n        /* \"contracts/2_0_TicTacToe.sol\":959:989  msg.sender == partida.jugador1 */\n      0xffffffffffffffffffffffffffffffffffffffff\n      and\n        /* \"contracts/2_0_TicTacToe.sol\":959:969  msg.sender */\n      caller\n        /* \"contracts/2_0_TicTacToe.sol\":959:989  msg.sender == partida.jugador1 */\n      0xffffffffffffffffffffffffffffffffffffffff\n      and\n      eq\n        /* \"contracts/2_0_TicTacToe.sol\":959:1023  msg.sender == partida.jugador1 || msg.sender == partida.jugador2 */\n      dup1\n      tag_32\n      jumpi\n      pop\n        /* \"contracts/2_0_TicTacToe.sol\":1007:1014  partida */\n      dup1\n        /* \"contracts/2_0_TicTacToe.sol\":1007:1023  partida.jugador2 */\n      0x20\n      add\n      mload\n        /* \"contracts/2_0_TicTacToe.sol\":993:1023  msg.sender == partida.jugador2 */\n      0xffffffffffffffffffffffffffffffffffffffff\n      and\n        /* \"contracts/2_0_TicTacToe.sol\":993:1003  msg.sender */\n      caller\n        /* \"contracts/2_0_TicTacToe.sol\":993:1023  msg.sender == partida.jugador2 */\n      0xffffffffffffffffffffffffffffffffffffffff\n      and\n      eq\n        /* \"contracts/2_0_TicTacToe.sol\":959:1023  msg.sender == partida.jugador1 || msg.sender == partida.jugador2 */\n    tag_32:\n        /* \"contracts/2_0_TicTacToe.sol\":951:1024  require(msg.sender == partida.jugador1 || msg.sender == partida.jugador2) */\n      tag_33\n      jumpi\n      0x00\n      dup1\n      revert\n    tag_33:\n        /* \"contracts/2_0_TicTacToe.sol\":1056:1057  0 */\n      0x00\n        /* \"contracts/2_0_TicTacToe.sol\":1043:1053  horizontal */\n      dup4\n        /* \"contracts/2_0_TicTacToe.sol\":1043:1057  horizontal > 0 */\n      gt\n        /* \"contracts/2_0_TicTacToe.sol\":1043:1075  horizontal > 0 && horizontal < 4 */\n      dup1\n      iszero\n      tag_34\n      jumpi\n      pop\n        /* \"contracts/2_0_TicTacToe.sol\":1074:1075  4 */\n      0x04\n        /* \"contracts/2_0_TicTacToe.sol\":1061:1071  horizontal */\n      dup4\n        /* \"contracts/2_0_TicTacToe.sol\":1061:1075  horizontal < 4 */\n      lt\n        /* \"contracts/2_0_TicTacToe.sol\":1043:1075  horizontal > 0 && horizontal < 4 */\n    tag_34:\n        /* \"contracts/2_0_TicTacToe.sol\":1035:1076  require(horizontal > 0 && horizontal < 4) */\n      tag_35\n      jumpi\n      0x00\n      dup1\n      revert\n    tag_35:\n        /* \"contracts/2_0_TicTacToe.sol\":1106:1107  0 */\n      0x00\n        /* \"contracts/2_0_TicTacToe.sol\":1095:1103  vertical */\n      dup3\n        /* \"contracts/2_0_TicTacToe.sol\":1095:1107  vertical > 0 */\n      gt\n        /* \"contracts/2_0_TicTacToe.sol\":1095:1123  vertical > 0 && vertical < 4 */\n      dup1\n      iszero\n      tag_36\n      jumpi\n      pop\n        /* \"contracts/2_0_TicTacToe.sol\":1122:1123  4 */\n      0x04\n        /* \"contracts/2_0_TicTacToe.sol\":1111:1119  vertical */\n      dup3\n        /* \"contracts/2_0_TicTacToe.sol\":1111:1123  vertical < 4 */\n      lt\n        /* \"contracts/2_0_TicTacToe.sol\":1095:1123  vertical > 0 && vertical < 4 */\n    tag_36:\n        /* \"contracts/2_0_TicTacToe.sol\":1087:1124  require(vertical > 0 && vertical < 4) */\n      tag_37\n      jumpi\n      0x00\n      dup1\n      revert\n    tag_37:\n        /* \"contracts/2_0_TicTacToe.sol\":1157:1164  partida */\n      dup1\n        /* \"contracts/2_0_TicTacToe.sol\":1157:1176  partida.ultimoTurno */\n      0x80\n      add\n      mload\n        /* \"contracts/2_0_TicTacToe.sol\":1143:1176  msg.sender != partida.ultimoTurno */\n      0xffffffffffffffffffffffffffffffffffffffff\n      and\n        /* \"contracts/2_0_TicTacToe.sol\":1143:1153  msg.sender */\n      caller\n        /* \"contracts/2_0_TicTacToe.sol\":1143:1176  msg.sender != partida.ultimoTurno */\n      0xffffffffffffffffffffffffffffffffffffffff\n      and\n      sub\n        /* \"contracts/2_0_TicTacToe.sol\":1135:1177  require(msg.sender != partida.ultimoTurno) */\n      tag_38\n      jumpi\n      0x00\n      dup1\n      revert\n    tag_38:\n        /* \"contracts/2_0_TicTacToe.sol\":1197:1222  partidaTerminada(partida) */\n      tag_39\n        /* \"contracts/2_0_TicTacToe.sol\":1214:1221  partida */\n      dup2\n        /* \"contracts/2_0_TicTacToe.sol\":1197:1213  partidaTerminada */\n      tag_40\n        /* \"contracts/2_0_TicTacToe.sol\":1197:1222  partidaTerminada(partida) */\n      jump\t// in\n    tag_39:\n        /* \"contracts/2_0_TicTacToe.sol\":1196:1222  !partidaTerminada(partida) */\n      iszero\n        /* \"contracts/2_0_TicTacToe.sol\":1188:1223  require(!partidaTerminada(partida)) */\n      tag_41\n      jumpi\n      0x00\n      dup1\n      revert\n    tag_41:\n        /* \"contracts/2_0_TicTacToe.sol\":1373:1383  msg.sender */\n      caller\n        /* \"contracts/2_0_TicTacToe.sol\":1339:1347  partidas */\n      0x00\n        /* \"contracts/2_0_TicTacToe.sol\":1348:1357  idPartida */\n      dup6\n        /* \"contracts/2_0_TicTacToe.sol\":1339:1358  partidas[idPartida] */\n      dup2\n      sload\n      dup2\n      lt\n      tag_42\n      jumpi\n      tag_43\n      tag_25\n      jump\t// in\n    tag_43:\n    tag_42:\n      swap1\n      0x00\n      mstore\n      keccak256(0x00, 0x20)\n      swap1\n      0x14\n      mul\n      add\n        /* \"contracts/2_0_TicTacToe.sol\":1339:1370  partidas[idPartida].ultimoTurno */\n      0x13\n      add\n      0x00\n        /* \"contracts/2_0_TicTacToe.sol\":1339:1383  partidas[idPartida].ultimoTurno = msg.sender */\n      0x0100\n      exp\n      dup2\n      sload\n      dup2\n      0xffffffffffffffffffffffffffffffffffffffff\n      mul\n      not\n      and\n      swap1\n      dup4\n      0xffffffffffffffffffffffffffffffffffffffff\n      and\n      mul\n      or\n      swap1\n      sstore\n      pop\n        /* \"contracts/2_0_TicTacToe.sol\":861:1391  {... */\n      pop\n        /* \"contracts/2_0_TicTacToe.sol\":791:1391  function jugar(uint idPartida, uint horizontal, uint vertical) public {... */\n      pop\n      pop\n      pop\n      jump\t// out\n        /* \"contracts/2_0_TicTacToe.sol\":1530:1855  function partidaTerminada(Partida memory partida) private pure returns(bool) {... */\n    tag_40:\n        /* \"contracts/2_0_TicTacToe.sol\":1601:1605  bool */\n      0x00\n        /* \"contracts/2_0_TicTacToe.sol\":1648:1649  0 */\n      dup1\n        /* \"contracts/2_0_TicTacToe.sol\":1621:1650  partida.ganador != address(0) */\n      0xffffffffffffffffffffffffffffffffffffffff\n      and\n        /* \"contracts/2_0_TicTacToe.sol\":1621:1628  partida */\n      dup3\n        /* \"contracts/2_0_TicTacToe.sol\":1621:1636  partida.ganador */\n      0x40\n      add\n      mload\n        /* \"contracts/2_0_TicTacToe.sol\":1621:1650  partida.ganador != address(0) */\n      0xffffffffffffffffffffffffffffffffffffffff\n      and\n      eq\n        /* \"contracts/2_0_TicTacToe.sol\":1618:1663  if(partida.ganador != address(0)) return true */\n      tag_46\n      jumpi\n        /* \"contracts/2_0_TicTacToe.sol\":1659:1663  true */\n      0x01\n        /* \"contracts/2_0_TicTacToe.sol\":1652:1663  return true */\n      swap1\n      pop\n      jump(tag_45)\n        /* \"contracts/2_0_TicTacToe.sol\":1618:1663  if(partida.ganador != address(0)) return true */\n    tag_46:\n        /* \"contracts/2_0_TicTacToe.sol\":1680:1686  uint x */\n      0x00\n        /* \"contracts/2_0_TicTacToe.sol\":1687:1688  1 */\n      0x01\n        /* \"contracts/2_0_TicTacToe.sol\":1680:1688  uint x=1 */\n      swap1\n      pop\n        /* \"contracts/2_0_TicTacToe.sol\":1676:1826  for(uint x=1; x<4; x++){... */\n    tag_47:\n        /* \"contracts/2_0_TicTacToe.sol\":1692:1693  4 */\n      0x04\n        /* \"contracts/2_0_TicTacToe.sol\":1690:1691  x */\n      dup2\n        /* \"contracts/2_0_TicTacToe.sol\":1690:1693  x<4 */\n      lt\n        /* \"contracts/2_0_TicTacToe.sol\":1676:1826  for(uint x=1; x<4; x++){... */\n      iszero\n      tag_48\n      jumpi\n        /* \"contracts/2_0_TicTacToe.sol\":1718:1724  uint y */\n      0x00\n        /* \"contracts/2_0_TicTacToe.sol\":1725:1726  1 */\n      0x01\n        /* \"contracts/2_0_TicTacToe.sol\":1718:1726  uint y=1 */\n      swap1\n      pop\n        /* \"contracts/2_0_TicTacToe.sol\":1714:1815  for(uint y=1; y<4; y++){... */\n    tag_50:\n        /* \"contracts/2_0_TicTacToe.sol\":1730:1731  4 */\n      0x04\n        /* \"contracts/2_0_TicTacToe.sol\":1728:1729  y */\n      dup2\n        /* \"contracts/2_0_TicTacToe.sol\":1728:1731  y<4 */\n      lt\n        /* \"contracts/2_0_TicTacToe.sol\":1714:1815  for(uint y=1; y<4; y++){... */\n      iszero\n      tag_51\n      jumpi\n        /* \"contracts/2_0_TicTacToe.sol\":1784:1785  0 */\n      0x00\n        /* \"contracts/2_0_TicTacToe.sol\":1759:1766  partida */\n      dup5\n        /* \"contracts/2_0_TicTacToe.sol\":1759:1774  partida.jugadas */\n      0x60\n      add\n      mload\n        /* \"contracts/2_0_TicTacToe.sol\":1775:1776  x */\n      dup4\n        /* \"contracts/2_0_TicTacToe.sol\":1759:1777  partida.jugadas[x] */\n      0x04\n      dup2\n      lt\n      tag_53\n      jumpi\n      tag_54\n      tag_25\n      jump\t// in\n    tag_54:\n    tag_53:\n      0x20\n      mul\n      add\n      mload\n        /* \"contracts/2_0_TicTacToe.sol\":1778:1779  y */\n      dup3\n        /* \"contracts/2_0_TicTacToe.sol\":1759:1780  partida.jugadas[x][y] */\n      0x04\n      dup2\n      lt\n      tag_55\n      jumpi\n      tag_56\n      tag_25\n      jump\t// in\n    tag_56:\n    tag_55:\n      0x20\n      mul\n      add\n      mload\n        /* \"contracts/2_0_TicTacToe.sol\":1759:1785  partida.jugadas[x][y] == 0 */\n      sub\n        /* \"contracts/2_0_TicTacToe.sol\":1756:1799  if(partida.jugadas[x][y] == 0) return false */\n      tag_57\n      jumpi\n        /* \"contracts/2_0_TicTacToe.sol\":1794:1799  false */\n      0x00\n        /* \"contracts/2_0_TicTacToe.sol\":1787:1799  return false */\n      swap3\n      pop\n      pop\n      pop\n      jump(tag_45)\n        /* \"contracts/2_0_TicTacToe.sol\":1756:1799  if(partida.jugadas[x][y] == 0) return false */\n    tag_57:\n        /* \"contracts/2_0_TicTacToe.sol\":1733:1736  y++ */\n      dup1\n      dup1\n      0x01\n      add\n      swap2\n      pop\n      pop\n        /* \"contracts/2_0_TicTacToe.sol\":1714:1815  for(uint y=1; y<4; y++){... */\n      jump(tag_50)\n    tag_51:\n      pop\n        /* \"contracts/2_0_TicTacToe.sol\":1695:1698  x++ */\n      dup1\n      dup1\n      0x01\n      add\n      swap2\n      pop\n      pop\n        /* \"contracts/2_0_TicTacToe.sol\":1676:1826  for(uint x=1; x<4; x++){... */\n      jump(tag_47)\n    tag_48:\n      pop\n        /* \"contracts/2_0_TicTacToe.sol\":1843:1847  true */\n      0x01\n        /* \"contracts/2_0_TicTacToe.sol\":1836:1847  return true */\n      swap1\n      pop\n        /* \"contracts/2_0_TicTacToe.sol\":1530:1855  function partidaTerminada(Partida memory partida) private pure returns(bool) {... */\n    tag_45:\n      swap2\n      swap1\n      pop\n      jump\t// out\n    tag_18:\n      mload(0x40)\n      dup1\n      0xa0\n      add\n      0x40\n      mstore\n      dup1\n      and(0xffffffffffffffffffffffffffffffffffffffff, 0x00)\n      dup2\n      mstore\n      0x20\n      add\n      and(0xffffffffffffffffffffffffffffffffffffffff, 0x00)\n      dup2\n      mstore\n      0x20\n      add\n      and(0xffffffffffffffffffffffffffffffffffffffff, 0x00)\n      dup2\n      mstore\n      0x20\n      add\n      tag_58\n      tag_59\n      jump\t// in\n    tag_58:\n      dup2\n      mstore\n      0x20\n      add\n      and(0xffffffffffffffffffffffffffffffffffffffff, 0x00)\n      dup2\n      mstore\n      pop\n      swap1\n      jump\t// out\n    tag_21:\n      dup3\n      0x04\n      dup1\n      mul\n      dup2\n      add\n      swap3\n      dup3\n      iszero\n      tag_60\n      jumpi\n      swap2\n      0x20\n      mul\n      dup3\n      add\n    tag_61:\n      dup3\n      dup2\n      gt\n      iszero\n      tag_62\n      jumpi\n      dup3\n      mload\n      dup3\n      swap1\n      0x04\n      tag_63\n      swap3\n      swap2\n      swap1\n      tag_64\n      jump\t// in\n    tag_63:\n      pop\n      swap2\n      0x20\n      add\n      swap2\n      swap1\n      0x04\n      add\n      swap1\n      jump(tag_61)\n    tag_62:\n    tag_60:\n      pop\n      swap1\n      pop\n      tag_65\n      swap2\n      swap1\n      tag_66\n      jump\t// in\n    tag_65:\n      pop\n      swap1\n      jump\t// out\n    tag_59:\n      mload(0x40)\n      dup1\n      0x80\n      add\n      0x40\n      mstore\n      dup1\n      0x04\n      swap1\n    tag_67:\n      tag_68\n      tag_69\n      jump\t// in\n    tag_68:\n      dup2\n      mstore\n      0x20\n      add\n      swap1\n      0x01\n      swap1\n      sub\n      swap1\n      dup2\n      tag_67\n      jumpi\n      swap1\n      pop\n      pop\n      swap1\n      jump\t// out\n    tag_64:\n      dup3\n      0x04\n      dup2\n      add\n      swap3\n      dup3\n      iszero\n      tag_70\n      jumpi\n      swap2\n      0x20\n      mul\n      dup3\n      add\n    tag_71:\n      dup3\n      dup2\n      gt\n      iszero\n      tag_72\n      jumpi\n      dup3\n      mload\n      dup3\n      sstore\n      swap2\n      0x20\n      add\n      swap2\n      swap1\n      0x01\n      add\n      swap1\n      jump(tag_71)\n    tag_72:\n    tag_70:\n      pop\n      swap1\n      pop\n      tag_73\n      swap2\n      swap1\n      tag_74\n      jump\t// in\n    tag_73:\n      pop\n      swap1\n      jump\t// out\n    tag_66:\n    tag_75:\n      dup1\n      dup3\n      gt\n      iszero\n      tag_76\n      jumpi\n      0x00\n      dup2\n      dup2\n      tag_77\n      swap2\n      swap1\n      tag_78\n      jump\t// in\n    tag_77:\n      pop\n      0x04\n      add\n      jump(tag_75)\n    tag_76:\n      pop\n      swap1\n      jump\t// out\n    tag_69:\n      mload(0x40)\n      dup1\n      0x80\n      add\n      0x40\n      mstore\n      dup1\n      0x04\n      swap1\n      0x20\n      dup3\n      mul\n      dup1\n      calldatasize\n      dup4\n      calldatacopy\n      dup1\n      dup3\n      add\n      swap2\n      pop\n      pop\n      swap1\n      pop\n      pop\n      swap1\n      jump\t// out\n    tag_74:\n    tag_79:\n      dup1\n      dup3\n      gt\n      iszero\n      tag_80\n      jumpi\n      0x00\n      dup2\n      0x00\n      swap1\n      sstore\n      pop\n      0x01\n      add\n      jump(tag_79)\n    tag_80:\n      pop\n      swap1\n      jump\t// out\n    tag_78:\n      pop\n      0x00\n      dup2\n      sstore\n      0x01\n      add\n      0x00\n      dup2\n      sstore\n      0x01\n      add\n      0x00\n      dup2\n      sstore\n      0x01\n      add\n      0x00\n      swap1\n      sstore\n      jump\t// out\n        /* \"#utility.yul\":88:205   */\n    tag_82:\n        /* \"#utility.yul\":197:198   */\n      0x00\n        /* \"#utility.yul\":194:195   */\n      dup1\n        /* \"#utility.yul\":187:199   */\n      revert\n        /* \"#utility.yul\":334:460   */\n    tag_84:\n        /* \"#utility.yul\":371:378   */\n      0x00\n        /* \"#utility.yul\":411:453   */\n      0xffffffffffffffffffffffffffffffffffffffff\n        /* \"#utility.yul\":404:409   */\n      dup3\n        /* \"#utility.yul\":400:454   */\n      and\n        /* \"#utility.yul\":389:454   */\n      swap1\n      pop\n        /* \"#utility.yul\":334:460   */\n      swap2\n      swap1\n      pop\n      jump\t// out\n        /* \"#utility.yul\":466:562   */\n    tag_85:\n        /* \"#utility.yul\":503:510   */\n      0x00\n        /* \"#utility.yul\":532:556   */\n      tag_98\n        /* \"#utility.yul\":550:555   */\n      dup3\n        /* \"#utility.yul\":532:556   */\n      tag_84\n      jump\t// in\n    tag_98:\n        /* \"#utility.yul\":521:556   */\n      swap1\n      pop\n        /* \"#utility.yul\":466:562   */\n      swap2\n      swap1\n      pop\n      jump\t// out\n        /* \"#utility.yul\":568:690   */\n    tag_86:\n        /* \"#utility.yul\":641:665   */\n      tag_100\n        /* \"#utility.yul\":659:664   */\n      dup2\n        /* \"#utility.yul\":641:665   */\n      tag_85\n      jump\t// in\n    tag_100:\n        /* \"#utility.yul\":634:639   */\n      dup2\n        /* \"#utility.yul\":631:666   */\n      eq\n        /* \"#utility.yul\":621:684   */\n      tag_101\n      jumpi\n        /* \"#utility.yul\":680:681   */\n      0x00\n        /* \"#utility.yul\":677:678   */\n      dup1\n        /* \"#utility.yul\":670:682   */\n      revert\n        /* \"#utility.yul\":621:684   */\n    tag_101:\n        /* \"#utility.yul\":568:690   */\n      pop\n      jump\t// out\n        /* \"#utility.yul\":696:835   */\n    tag_87:\n        /* \"#utility.yul\":742:747   */\n      0x00\n        /* \"#utility.yul\":780:786   */\n      dup2\n        /* \"#utility.yul\":767:787   */\n      calldataload\n        /* \"#utility.yul\":758:787   */\n      swap1\n      pop\n        /* \"#utility.yul\":796:829   */\n      tag_103\n        /* \"#utility.yul\":823:828   */\n      dup2\n        /* \"#utility.yul\":796:829   */\n      tag_86\n      jump\t// in\n    tag_103:\n        /* \"#utility.yul\":696:835   */\n      swap3\n      swap2\n      pop\n      pop\n      jump\t// out\n        /* \"#utility.yul\":841:1315   */\n    tag_7:\n        /* \"#utility.yul\":909:915   */\n      0x00\n        /* \"#utility.yul\":917:923   */\n      dup1\n        /* \"#utility.yul\":966:968   */\n      0x40\n        /* \"#utility.yul\":954:963   */\n      dup4\n        /* \"#utility.yul\":945:952   */\n      dup6\n        /* \"#utility.yul\":941:964   */\n      sub\n        /* \"#utility.yul\":937:969   */\n      slt\n        /* \"#utility.yul\":934:1053   */\n      iszero\n      tag_105\n      jumpi\n        /* \"#utility.yul\":972:1051   */\n      tag_106\n      tag_82\n      jump\t// in\n    tag_106:\n        /* \"#utility.yul\":934:1053   */\n    tag_105:\n        /* \"#utility.yul\":1092:1093   */\n      0x00\n        /* \"#utility.yul\":1117:1170   */\n      tag_107\n        /* \"#utility.yul\":1162:1169   */\n      dup6\n        /* \"#utility.yul\":1153:1159   */\n      dup3\n        /* \"#utility.yul\":1142:1151   */\n      dup7\n        /* \"#utility.yul\":1138:1160   */\n      add\n        /* \"#utility.yul\":1117:1170   */\n      tag_87\n      jump\t// in\n    tag_107:\n        /* \"#utility.yul\":1107:1170   */\n      swap3\n      pop\n        /* \"#utility.yul\":1063:1180   */\n      pop\n        /* \"#utility.yul\":1219:1221   */\n      0x20\n        /* \"#utility.yul\":1245:1298   */\n      tag_108\n        /* \"#utility.yul\":1290:1297   */\n      dup6\n        /* \"#utility.yul\":1281:1287   */\n      dup3\n        /* \"#utility.yul\":1270:1279   */\n      dup7\n        /* \"#utility.yul\":1266:1288   */\n      add\n        /* \"#utility.yul\":1245:1298   */\n      tag_87\n      jump\t// in\n    tag_108:\n        /* \"#utility.yul\":1235:1298   */\n      swap2\n      pop\n        /* \"#utility.yul\":1190:1308   */\n      pop\n        /* \"#utility.yul\":841:1315   */\n      swap3\n      pop\n      swap3\n      swap1\n      pop\n      jump\t// out\n        /* \"#utility.yul\":1321:1398   */\n    tag_88:\n        /* \"#utility.yul\":1358:1365   */\n      0x00\n        /* \"#utility.yul\":1387:1392   */\n      dup2\n        /* \"#utility.yul\":1376:1392   */\n      swap1\n      pop\n        /* \"#utility.yul\":1321:1398   */\n      swap2\n      swap1\n      pop\n      jump\t// out\n        /* \"#utility.yul\":1404:1522   */\n    tag_89:\n        /* \"#utility.yul\":1491:1515   */\n      tag_111\n        /* \"#utility.yul\":1509:1514   */\n      dup2\n        /* \"#utility.yul\":1491:1515   */\n      tag_88\n      jump\t// in\n    tag_111:\n        /* \"#utility.yul\":1486:1489   */\n      dup3\n        /* \"#utility.yul\":1479:1516   */\n      mstore\n        /* \"#utility.yul\":1404:1522   */\n      pop\n      pop\n      jump\t// out\n        /* \"#utility.yul\":1528:1750   */\n    tag_10:\n        /* \"#utility.yul\":1621:1625   */\n      0x00\n        /* \"#utility.yul\":1659:1661   */\n      0x20\n        /* \"#utility.yul\":1648:1657   */\n      dup3\n        /* \"#utility.yul\":1644:1662   */\n      add\n        /* \"#utility.yul\":1636:1662   */\n      swap1\n      pop\n        /* \"#utility.yul\":1672:1743   */\n      tag_113\n        /* \"#utility.yul\":1740:1741   */\n      0x00\n        /* \"#utility.yul\":1729:1738   */\n      dup4\n        /* \"#utility.yul\":1725:1742   */\n      add\n        /* \"#utility.yul\":1716:1722   */\n      dup5\n        /* \"#utility.yul\":1672:1743   */\n      tag_89\n      jump\t// in\n    tag_113:\n        /* \"#utility.yul\":1528:1750   */\n      swap3\n      swap2\n      pop\n      pop\n      jump\t// out\n        /* \"#utility.yul\":1756:1878   */\n    tag_90:\n        /* \"#utility.yul\":1829:1853   */\n      tag_115\n        /* \"#utility.yul\":1847:1852   */\n      dup2\n        /* \"#utility.yul\":1829:1853   */\n      tag_88\n      jump\t// in\n    tag_115:\n        /* \"#utility.yul\":1822:1827   */\n      dup2\n        /* \"#utility.yul\":1819:1854   */\n      eq\n        /* \"#utility.yul\":1809:1872   */\n      tag_116\n      jumpi\n        /* \"#utility.yul\":1868:1869   */\n      0x00\n        /* \"#utility.yul\":1865:1866   */\n      dup1\n        /* \"#utility.yul\":1858:1870   */\n      revert\n        /* \"#utility.yul\":1809:1872   */\n    tag_116:\n        /* \"#utility.yul\":1756:1878   */\n      pop\n      jump\t// out\n        /* \"#utility.yul\":1884:2023   */\n    tag_91:\n        /* \"#utility.yul\":1930:1935   */\n      0x00\n        /* \"#utility.yul\":1968:1974   */\n      dup2\n        /* \"#utility.yul\":1955:1975   */\n      calldataload\n        /* \"#utility.yul\":1946:1975   */\n      swap1\n      pop\n        /* \"#utility.yul\":1984:2017   */\n      tag_118\n        /* \"#utility.yul\":2011:2016   */\n      dup2\n        /* \"#utility.yul\":1984:2017   */\n      tag_90\n      jump\t// in\n    tag_118:\n        /* \"#utility.yul\":1884:2023   */\n      swap3\n      swap2\n      pop\n      pop\n      jump\t// out\n        /* \"#utility.yul\":2029:2648   */\n    tag_13:\n        /* \"#utility.yul\":2106:2112   */\n      0x00\n        /* \"#utility.yul\":2114:2120   */\n      dup1\n        /* \"#utility.yul\":2122:2128   */\n      0x00\n        /* \"#utility.yul\":2171:2173   */\n      0x60\n        /* \"#utility.yul\":2159:2168   */\n      dup5\n        /* \"#utility.yul\":2150:2157   */\n      dup7\n        /* \"#utility.yul\":2146:2169   */\n      sub\n        /* \"#utility.yul\":2142:2174   */\n      slt\n        /* \"#utility.yul\":2139:2258   */\n      iszero\n      tag_120\n      jumpi\n        /* \"#utility.yul\":2177:2256   */\n      tag_121\n      tag_82\n      jump\t// in\n    tag_121:\n        /* \"#utility.yul\":2139:2258   */\n    tag_120:\n        /* \"#utility.yul\":2297:2298   */\n      0x00\n        /* \"#utility.yul\":2322:2375   */\n      tag_122\n        /* \"#utility.yul\":2367:2374   */\n      dup7\n        /* \"#utility.yul\":2358:2364   */\n      dup3\n        /* \"#utility.yul\":2347:2356   */\n      dup8\n        /* \"#utility.yul\":2343:2365   */\n      add\n        /* \"#utility.yul\":2322:2375   */\n      tag_91\n      jump\t// in\n    tag_122:\n        /* \"#utility.yul\":2312:2375   */\n      swap4\n      pop\n        /* \"#utility.yul\":2268:2385   */\n      pop\n        /* \"#utility.yul\":2424:2426   */\n      0x20\n        /* \"#utility.yul\":2450:2503   */\n      tag_123\n        /* \"#utility.yul\":2495:2502   */\n      dup7\n        /* \"#utility.yul\":2486:2492   */\n      dup3\n        /* \"#utility.yul\":2475:2484   */\n      dup8\n        /* \"#utility.yul\":2471:2493   */\n      add\n        /* \"#utility.yul\":2450:2503   */\n      tag_91\n      jump\t// in\n    tag_123:\n        /* \"#utility.yul\":2440:2503   */\n      swap3\n      pop\n        /* \"#utility.yul\":2395:2513   */\n      pop\n        /* \"#utility.yul\":2552:2554   */\n      0x40\n        /* \"#utility.yul\":2578:2631   */\n      tag_124\n        /* \"#utility.yul\":2623:2630   */\n      dup7\n        /* \"#utility.yul\":2614:2620   */\n      dup3\n        /* \"#utility.yul\":2603:2612   */\n      dup8\n        /* \"#utility.yul\":2599:2621   */\n      add\n        /* \"#utility.yul\":2578:2631   */\n      tag_91\n      jump\t// in\n    tag_124:\n        /* \"#utility.yul\":2568:2631   */\n      swap2\n      pop\n        /* \"#utility.yul\":2523:2641   */\n      pop\n        /* \"#utility.yul\":2029:2648   */\n      swap3\n      pop\n      swap3\n      pop\n      swap3\n      jump\t// out\n        /* \"#utility.yul\":2654:2834   */\n    tag_25:\n        /* \"#utility.yul\":2702:2779   */\n      0x4e487b7100000000000000000000000000000000000000000000000000000000\n        /* \"#utility.yul\":2699:2700   */\n      0x00\n        /* \"#utility.yul\":2692:2780   */\n      mstore\n        /* \"#utility.yul\":2799:2803   */\n      0x32\n        /* \"#utility.yul\":2796:2797   */\n      0x04\n        /* \"#utility.yul\":2789:2804   */\n      mstore\n        /* \"#utility.yul\":2823:2827   */\n      0x24\n        /* \"#utility.yul\":2820:2821   */\n      0x00\n        /* \"#utility.yul\":2813:2828   */\n      revert\n\n    auxdata: 0xa2646970667358221220a2eec81fabde86fc51bef733263fa8638d090eaa1de138e2ff10f375a769c9a764736f6c634300081a0033\n}\n",
				"bytecode": {
					"linkReferences": {},
					"object": "6080604052348015600e575f80fd5b50610a1f8061001c5f395ff3fe608060405234801561000f575f80fd5b5060043610610034575f3560e01c80631c5aef60146100385780634a5802da14610068575b5f80fd5b610052600480360381019061004d91906108d3565b610084565b60405161005f9190610929565b60405180910390f35b610082600480360381019061007d919061096c565b61029e565b005b5f8173ffffffffffffffffffffffffffffffffffffffff168373ffffffffffffffffffffffffffffffffffffffff16036100bc575f80fd5b5f808054905090506100cc6106b7565b84815f019073ffffffffffffffffffffffffffffffffffffffff16908173ffffffffffffffffffffffffffffffffffffffff168152505083816020019073ffffffffffffffffffffffffffffffffffffffff16908173ffffffffffffffffffffffffffffffffffffffff16815250505f81908060018154018082558091505060019003905f5260205f2090601402015f909190919091505f820151815f015f6101000a81548173ffffffffffffffffffffffffffffffffffffffff021916908373ffffffffffffffffffffffffffffffffffffffff1602179055506020820151816001015f6101000a81548173ffffffffffffffffffffffffffffffffffffffff021916908373ffffffffffffffffffffffffffffffffffffffff1602179055506040820151816002015f6101000a81548173ffffffffffffffffffffffffffffffffffffffff021916908373ffffffffffffffffffffffffffffffffffffffff16021790555060608201518160030190600461024a929190610740565b506080820151816013015f6101000a81548173ffffffffffffffffffffffffffffffffffffffff021916908373ffffffffffffffffffffffffffffffffffffffff1602179055505050819250505092915050565b5f8084815481106102b2576102b16109bc565b5b905f5260205f2090601402016040518060a00160405290815f82015f9054906101000a900473ffffffffffffffffffffffffffffffffffffffff1673ffffffffffffffffffffffffffffffffffffffff1673ffffffffffffffffffffffffffffffffffffffff168152602001600182015f9054906101000a900473ffffffffffffffffffffffffffffffffffffffff1673ffffffffffffffffffffffffffffffffffffffff1673ffffffffffffffffffffffffffffffffffffffff168152602001600282015f9054906101000a900473ffffffffffffffffffffffffffffffffffffffff1673ffffffffffffffffffffffffffffffffffffffff1673ffffffffffffffffffffffffffffffffffffffff16815260200160038201600480602002604051908101604052809291905f905b8282101561043b57838260040201600480602002604051908101604052809291908260048015610427576020028201915b815481526020019060010190808311610413575b5050505050815260200190600101906103e2565b505050508152602001601382015f9054906101000a900473ffffffffffffffffffffffffffffffffffffffff1673ffffffffffffffffffffffffffffffffffffffff1673ffffffffffffffffffffffffffffffffffffffff16815250509050805f015173ffffffffffffffffffffffffffffffffffffffff163373ffffffffffffffffffffffffffffffffffffffff1614806105065750806020015173ffffffffffffffffffffffffffffffffffffffff163373ffffffffffffffffffffffffffffffffffffffff16145b61050e575f80fd5b5f8311801561051d5750600483105b610525575f80fd5b5f821180156105345750600482105b61053c575f80fd5b806080015173ffffffffffffffffffffffffffffffffffffffff163373ffffffffffffffffffffffffffffffffffffffff1603610577575f80fd5b610580816105ef565b15610589575f80fd5b335f858154811061059d5761059c6109bc565b5b905f5260205f2090601402016013015f6101000a81548173ffffffffffffffffffffffffffffffffffffffff021916908373ffffffffffffffffffffffffffffffffffffffff16021790555050505050565b5f8073ffffffffffffffffffffffffffffffffffffffff16826040015173ffffffffffffffffffffffffffffffffffffffff161461063057600190506106b2565b5f600190505b60048110156106ac575f600190505b600481101561069e575f84606001518360048110610666576106656109bc565b5b6020020151826004811061067d5761067c6109bc565b5b602002015103610691575f925050506106b2565b8080600101915050610645565b508080600101915050610636565b50600190505b919050565b6040518060a001604052805f73ffffffffffffffffffffffffffffffffffffffff1681526020015f73ffffffffffffffffffffffffffffffffffffffff1681526020015f73ffffffffffffffffffffffffffffffffffffffff16815260200161071e610790565b81526020015f73ffffffffffffffffffffffffffffffffffffffff1681525090565b8260048002810192821561077f579160200282015b8281111561077e5782518290600461076e9291906107bd565b5091602001919060040190610755565b5b50905061078c91906107fd565b5090565b60405180608001604052806004905b6107a7610820565b81526020019060019003908161079f5790505090565b82600481019282156107ec579160200282015b828111156107eb5782518255916020019190600101906107d0565b5b5090506107f99190610842565b5090565b5b8082111561081c575f8181610813919061085d565b506004016107fe565b5090565b6040518060800160405280600490602082028036833780820191505090505090565b5b80821115610859575f815f905550600101610843565b5090565b505f81556001015f81556001015f81556001015f9055565b5f80fd5b5f73ffffffffffffffffffffffffffffffffffffffff82169050919050565b5f6108a282610879565b9050919050565b6108b281610898565b81146108bc575f80fd5b50565b5f813590506108cd816108a9565b92915050565b5f80604083850312156108e9576108e8610875565b5b5f6108f6858286016108bf565b9250506020610907858286016108bf565b9150509250929050565b5f819050919050565b61092381610911565b82525050565b5f60208201905061093c5f83018461091a565b92915050565b61094b81610911565b8114610955575f80fd5b50565b5f8135905061096681610942565b92915050565b5f805f6060848603121561098357610982610875565b5b5f61099086828701610958565b93505060206109a186828701610958565b92505060406109b286828701610958565b9150509250925092565b7f4e487b71000000000000000000000000000000000000000000000000000000005f52603260045260245ffdfea2646970667358221220a2eec81fabde86fc51bef733263fa8638d090eaa1de138e2ff10f375a769c9a764736f6c634300081a0033",
					"opcodes": "PUSH1 0x80 PUSH1 0x40 MSTORE CALLVALUE DUP1 ISZERO PUSH1 0xE JUMPI PUSH0 DUP1 REVERT JUMPDEST POP PUSH2 0xA1F DUP1 PUSH2 0x1C PUSH0 CODECOPY PUSH0 RETURN INVALID PUSH1 0x80 PUSH1 0x40 MSTORE CALLVALUE DUP1 ISZERO PUSH2 0xF JUMPI PUSH0 DUP1 REVERT JUMPDEST POP PUSH1 0x4 CALLDATASIZE LT PUSH2 0x34 JUMPI PUSH0 CALLDATALOAD PUSH1 0xE0 SHR DUP1 PUSH4 0x1C5AEF60 EQ PUSH2 0x38 JUMPI DUP1 PUSH4 0x4A5802DA EQ PUSH2 0x68 JUMPI JUMPDEST PUSH0 DUP1 REVERT JUMPDEST PUSH2 0x52 PUSH1 0x4 DUP1 CALLDATASIZE SUB DUP2 ADD SWAP1 PUSH2 0x4D SWAP2 SWAP1 PUSH2 0x8D3 JUMP JUMPDEST PUSH2 0x84 JUMP JUMPDEST PUSH1 0x40 MLOAD PUSH2 0x5F SWAP2 SWAP1 PUSH2 0x929 JUMP JUMPDEST PUSH1 0x40 MLOAD DUP1 SWAP2 SUB SWAP1 RETURN JUMPDEST PUSH2 0x82 PUSH1 0x4 DUP1 CALLDATASIZE SUB DUP2 ADD SWAP1 PUSH2 0x7D SWAP2 SWAP1 PUSH2 0x96C JUMP JUMPDEST PUSH2 0x29E JUMP JUMPDEST STOP JUMPDEST PUSH0 DUP2 PUSH20 0xFFFFFFFFFFFFFFFFFFFFFFFFFFFFFFFFFFFFFFFF AND DUP4 PUSH20 0xFFFFFFFFFFFFFFFFFFFFFFFFFFFFFFFFFFFFFFFF AND SUB PUSH2 0xBC JUMPI PUSH0 DUP1 REVERT JUMPDEST PUSH0 DUP1 DUP1 SLOAD SWAP1 POP SWAP1 POP PUSH2 0xCC PUSH2 0x6B7 JUMP JUMPDEST DUP5 DUP2 PUSH0 ADD SWAP1 PUSH20 0xFFFFFFFFFFFFFFFFFFFFFFFFFFFFFFFFFFFFFFFF AND SWAP1 DUP2 PUSH20 0xFFFFFFFFFFFFFFFFFFFFFFFFFFFFFFFFFFFFFFFF AND DUP2 MSTORE POP POP DUP4 DUP2 PUSH1 0x20 ADD SWAP1 PUSH20 0xFFFFFFFFFFFFFFFFFFFFFFFFFFFFFFFFFFFFFFFF AND SWAP1 DUP2 PUSH20 0xFFFFFFFFFFFFFFFFFFFFFFFFFFFFFFFFFFFFFFFF AND DUP2 MSTORE POP POP PUSH0 DUP2 SWAP1 DUP1 PUSH1 0x1 DUP2 SLOAD ADD DUP1 DUP3 SSTORE DUP1 SWAP2 POP POP PUSH1 0x1 SWAP1 SUB SWAP1 PUSH0 MSTORE PUSH1 0x20 PUSH0 KECCAK256 SWAP1 PUSH1 0x14 MUL ADD PUSH0 SWAP1 SWAP2 SWAP1 SWAP2 SWAP1 SWAP2 POP PUSH0 DUP3 ADD MLOAD DUP2 PUSH0 ADD PUSH0 PUSH2 0x100 EXP DUP2 SLOAD DUP2 PUSH20 0xFFFFFFFFFFFFFFFFFFFFFFFFFFFFFFFFFFFFFFFF MUL NOT AND SWAP1 DUP4 PUSH20 0xFFFFFFFFFFFFFFFFFFFFFFFFFFFFFFFFFFFFFFFF AND MUL OR SWAP1 SSTORE POP PUSH1 0x20 DUP3 ADD MLOAD DUP2 PUSH1 0x1 ADD PUSH0 PUSH2 0x100 EXP DUP2 SLOAD DUP2 PUSH20 0xFFFFFFFFFFFFFFFFFFFFFFFFFFFFFFFFFFFFFFFF MUL NOT AND SWAP1 DUP4 PUSH20 0xFFFFFFFFFFFFFFFFFFFFFFFFFFFFFFFFFFFFFFFF AND MUL OR SWAP1 SSTORE POP PUSH1 0x40 DUP3 ADD MLOAD DUP2 PUSH1 0x2 ADD PUSH0 PUSH2 0x100 EXP DUP2 SLOAD DUP2 PUSH20 0xFFFFFFFFFFFFFFFFFFFFFFFFFFFFFFFFFFFFFFFF MUL NOT AND SWAP1 DUP4 PUSH20 0xFFFFFFFFFFFFFFFFFFFFFFFFFFFFFFFFFFFFFFFF AND MUL OR SWAP1 SSTORE POP PUSH1 0x60 DUP3 ADD MLOAD DUP2 PUSH1 0x3 ADD SWAP1 PUSH1 0x4 PUSH2 0x24A SWAP3 SWAP2 SWAP1 PUSH2 0x740 JUMP JUMPDEST POP PUSH1 0x80 DUP3 ADD MLOAD DUP2 PUSH1 0x13 ADD PUSH0 PUSH2 0x100 EXP DUP2 SLOAD DUP2 PUSH20 0xFFFFFFFFFFFFFFFFFFFFFFFFFFFFFFFFFFFFFFFF MUL NOT AND SWAP1 DUP4 PUSH20 0xFFFFFFFFFFFFFFFFFFFFFFFFFFFFFFFFFFFFFFFF AND MUL OR SWAP1 SSTORE POP POP POP DUP2 SWAP3 POP POP POP SWAP3 SWAP2 POP POP JUMP JUMPDEST PUSH0 DUP1 DUP5 DUP2 SLOAD DUP2 LT PUSH2 0x2B2 JUMPI PUSH2 0x2B1 PUSH2 0x9BC JUMP JUMPDEST JUMPDEST SWAP1 PUSH0 MSTORE PUSH1 0x20 PUSH0 KECCAK256 SWAP1 PUSH1 0x14 MUL ADD PUSH1 0x40 MLOAD DUP1 PUSH1 0xA0 ADD PUSH1 0x40 MSTORE SWAP1 DUP2 PUSH0 DUP3 ADD PUSH0 SWAP1 SLOAD SWAP1 PUSH2 0x100 EXP SWAP1 DIV PUSH20 0xFFFFFFFFFFFFFFFFFFFFFFFFFFFFFFFFFFFFFFFF AND PUSH20 0xFFFFFFFFFFFFFFFFFFFFFFFFFFFFFFFFFFFFFFFF AND PUSH20 0xFFFFFFFFFFFFFFFFFFFFFFFFFFFFFFFFFFFFFFFF AND DUP2 MSTORE PUSH1 0x20 ADD PUSH1 0x1 DUP3 ADD PUSH0 SWAP1 SLOAD SWAP1 PUSH2 0x100 EXP SWAP1 DIV PUSH20 0xFFFFFFFFFFFFFFFFFFFFFFFFFFFFFFFFFFFFFFFF AND PUSH20 0xFFFFFFFFFFFFFFFFFFFFFFFFFFFFFFFFFFFFFFFF AND PUSH20 0xFFFFFFFFFFFFFFFFFFFFFFFFFFFFFFFFFFFFFFFF AND DUP2 MSTORE PUSH1 0x20 ADD PUSH1 0x2 DUP3 ADD PUSH0 SWAP1 SLOAD SWAP1 PUSH2 0x100 EXP SWAP1 DIV PUSH20 0xFFFFFFFFFFFFFFFFFFFFFFFFFFFFFFFFFFFFFFFF AND PUSH20 0xFFFFFFFFFFFFFFFFFFFFFFFFFFFFFFFFFFFFFFFF AND PUSH20 0xFFFFFFFFFFFFFFFFFFFFFFFFFFFFFFFFFFFFFFFF AND DUP2 MSTORE PUSH1 0x20 ADD PUSH1 0x3 DUP3 ADD PUSH1 0x4 DUP1 PUSH1 0x20 MUL PUSH1 0x40 MLOAD SWAP1 DUP2 ADD PUSH1 0x40 MSTORE DUP1 SWAP3 SWAP2 SWAP1 PUSH0 SWAP1 JUMPDEST DUP3 DUP3 LT ISZERO PUSH2 0x43B JUMPI DUP4 DUP3 PUSH1 0x4 MUL ADD PUSH1 0x4 DUP1 PUSH1 0x20 MUL PUSH1 0x40 MLOAD SWAP1 DUP2 ADD PUSH1 0x40 MSTORE DUP1 SWAP3 SWAP2 SWAP1 DUP3 PUSH1 0x4 DUP1 ISZERO PUSH2 0x427 JUMPI PUSH1 0x20 MUL DUP3 ADD SWAP2 JUMPDEST DUP2 SLOAD DUP2 MSTORE PUSH1 0x20 ADD SWAP1 PUSH1 0x1 ADD SWAP1 DUP1 DUP4 GT PUSH2 0x413 JUMPI JUMPDEST POP POP POP POP POP DUP2 MSTORE PUSH1 0x20 ADD SWAP1 PUSH1 0x1 ADD SWAP1 PUSH2 0x3E2 JUMP JUMPDEST POP POP POP POP DUP2 MSTORE PUSH1 0x20 ADD PUSH1 0x13 DUP3 ADD PUSH0 SWAP1 SLOAD SWAP1 PUSH2 0x100 EXP SWAP1 DIV PUSH20 0xFFFFFFFFFFFFFFFFFFFFFFFFFFFFFFFFFFFFFFFF AND PUSH20 0xFFFFFFFFFFFFFFFFFFFFFFFFFFFFFFFFFFFFFFFF AND PUSH20 0xFFFFFFFFFFFFFFFFFFFFFFFFFFFFFFFFFFFFFFFF AND DUP2 MSTORE POP POP SWAP1 POP DUP1 PUSH0 ADD MLOAD PUSH20 0xFFFFFFFFFFFFFFFFFFFFFFFFFFFFFFFFFFFFFFFF AND CALLER PUSH20 0xFFFFFFFFFFFFFFFFFFFFFFFFFFFFFFFFFFFFFFFF AND EQ DUP1 PUSH2 0x506 JUMPI POP DUP1 PUSH1 0x20 ADD MLOAD PUSH20 0xFFFFFFFFFFFFFFFFFFFFFFFFFFFFFFFFFFFFFFFF AND CALLER PUSH20 0xFFFFFFFFFFFFFFFFFFFFFFFFFFFFFFFFFFFFFFFF AND EQ JUMPDEST PUSH2 0x50E JUMPI PUSH0 DUP1 REVERT JUMPDEST PUSH0 DUP4 GT DUP1 ISZERO PUSH2 0x51D JUMPI POP PUSH1 0x4 DUP4 LT JUMPDEST PUSH2 0x525 JUMPI PUSH0 DUP1 REVERT JUMPDEST PUSH0 DUP3 GT DUP1 ISZERO PUSH2 0x534 JUMPI POP PUSH1 0x4 DUP3 LT JUMPDEST PUSH2 0x53C JUMPI PUSH0 DUP1 REVERT JUMPDEST DUP1 PUSH1 0x80 ADD MLOAD PUSH20 0xFFFFFFFFFFFFFFFFFFFFFFFFFFFFFFFFFFFFFFFF AND CALLER PUSH20 0xFFFFFFFFFFFFFFFFFFFFFFFFFFFFFFFFFFFFFFFF AND SUB PUSH2 0x577 JUMPI PUSH0 DUP1 REVERT JUMPDEST PUSH2 0x580 DUP2 PUSH2 0x5EF JUMP JUMPDEST ISZERO PUSH2 0x589 JUMPI PUSH0 DUP1 REVERT JUMPDEST CALLER PUSH0 DUP6 DUP2 SLOAD DUP2 LT PUSH2 0x59D JUMPI PUSH2 0x59C PUSH2 0x9BC JUMP JUMPDEST JUMPDEST SWAP1 PUSH0 MSTORE PUSH1 0x20 PUSH0 KECCAK256 SWAP1 PUSH1 0x14 MUL ADD PUSH1 0x13 ADD PUSH0 PUSH2 0x100 EXP DUP2 SLOAD DUP2 PUSH20 0xFFFFFFFFFFFFFFFFFFFFFFFFFFFFFFFFFFFFFFFF MUL NOT AND SWAP1 DUP4 PUSH20 0xFFFFFFFFFFFFFFFFFFFFFFFFFFFFFFFFFFFFFFFF AND MUL OR SWAP1 SSTORE POP POP POP POP POP JUMP JUMPDEST PUSH0 DUP1 PUSH20 0xFFFFFFFFFFFFFFFFFFFFFFFFFFFFFFFFFFFFFFFF AND DUP3 PUSH1 0x40 ADD MLOAD PUSH20 0xFFFFFFFFFFFFFFFFFFFFFFFFFFFFFFFFFFFFFFFF AND EQ PUSH2 0x630 JUMPI PUSH1 0x1 SWAP1 POP PUSH2 0x6B2 JUMP JUMPDEST PUSH0 PUSH1 0x1 SWAP1 POP JUMPDEST PUSH1 0x4 DUP2 LT ISZERO PUSH2 0x6AC JUMPI PUSH0 PUSH1 0x1 SWAP1 POP JUMPDEST PUSH1 0x4 DUP2 LT ISZERO PUSH2 0x69E JUMPI PUSH0 DUP5 PUSH1 0x60 ADD MLOAD DUP4 PUSH1 0x4 DUP2 LT PUSH2 0x666 JUMPI PUSH2 0x665 PUSH2 0x9BC JUMP JUMPDEST JUMPDEST PUSH1 0x20 MUL ADD MLOAD DUP3 PUSH1 0x4 DUP2 LT PUSH2 0x67D JUMPI PUSH2 0x67C PUSH2 0x9BC JUMP JUMPDEST JUMPDEST PUSH1 0x20 MUL ADD MLOAD SUB PUSH2 0x691 JUMPI PUSH0 SWAP3 POP POP POP PUSH2 0x6B2 JUMP JUMPDEST DUP1 DUP1 PUSH1 0x1 ADD SWAP2 POP POP PUSH2 0x645 JUMP JUMPDEST POP DUP1 DUP1 PUSH1 0x1 ADD SWAP2 POP POP PUSH2 0x636 JUMP JUMPDEST POP PUSH1 0x1 SWAP1 POP JUMPDEST SWAP2 SWAP1 POP JUMP JUMPDEST PUSH1 0x40 MLOAD DUP1 PUSH1 0xA0 ADD PUSH1 0x40 MSTORE DUP1 PUSH0 PUSH20 0xFFFFFFFFFFFFFFFFFFFFFFFFFFFFFFFFFFFFFFFF AND DUP2 MSTORE PUSH1 0x20 ADD PUSH0 PUSH20 0xFFFFFFFFFFFFFFFFFFFFFFFFFFFFFFFFFFFFFFFF AND DUP2 MSTORE PUSH1 0x20 ADD PUSH0 PUSH20 0xFFFFFFFFFFFFFFFFFFFFFFFFFFFFFFFFFFFFFFFF AND DUP2 MSTORE PUSH1 0x20 ADD PUSH2 0x71E PUSH2 0x790 JUMP JUMPDEST DUP2 MSTORE PUSH1 0x20 ADD PUSH0 PUSH20 0xFFFFFFFFFFFFFFFFFFFFFFFFFFFFFFFFFFFFFFFF AND DUP2 MSTORE POP SWAP1 JUMP JUMPDEST DUP3 PUSH1 0x4 DUP1 MUL DUP2 ADD SWAP3 DUP3 ISZERO PUSH2 0x77F JUMPI SWAP2 PUSH1 0x20 MUL DUP3 ADD JUMPDEST DUP3 DUP2 GT ISZERO PUSH2 0x77E JUMPI DUP3 MLOAD DUP3 SWAP1 PUSH1 0x4 PUSH2 0x76E SWAP3 SWAP2 SWAP1 PUSH2 0x7BD JUMP JUMPDEST POP SWAP2 PUSH1 0x20 ADD SWAP2 SWAP1 PUSH1 0x4 ADD SWAP1 PUSH2 0x755 JUMP JUMPDEST JUMPDEST POP SWAP1 POP PUSH2 0x78C SWAP2 SWAP1 PUSH2 0x7FD JUMP JUMPDEST POP SWAP1 JUMP JUMPDEST PUSH1 0x40 MLOAD DUP1 PUSH1 0x80 ADD PUSH1 0x40 MSTORE DUP1 PUSH1 0x4 SWAP1 JUMPDEST PUSH2 0x7A7 PUSH2 0x820 JUMP JUMPDEST DUP2 MSTORE PUSH1 0x20 ADD SWAP1 PUSH1 0x1 SWAP1 SUB SWAP1 DUP2 PUSH2 0x79F JUMPI SWAP1 POP POP SWAP1 JUMP JUMPDEST DUP3 PUSH1 0x4 DUP2 ADD SWAP3 DUP3 ISZERO PUSH2 0x7EC JUMPI SWAP2 PUSH1 0x20 MUL DUP3 ADD JUMPDEST DUP3 DUP2 GT ISZERO PUSH2 0x7EB JUMPI DUP3 MLOAD DUP3 SSTORE SWAP2 PUSH1 0x20 ADD SWAP2 SWAP1 PUSH1 0x1 ADD SWAP1 PUSH2 0x7D0 JUMP JUMPDEST JUMPDEST POP SWAP1 POP PUSH2 0x7F9 SWAP2 SWAP1 PUSH2 0x842 JUMP JUMPDEST POP SWAP1 JUMP JUMPDEST JUMPDEST DUP1 DUP3 GT ISZERO PUSH2 0x81C JUMPI PUSH0 DUP2 DUP2 PUSH2 0x813 SWAP2 SWAP1 PUSH2 0x85D JUMP JUMPDEST POP PUSH1 0x4 ADD PUSH2 0x7FE JUMP JUMPDEST POP SWAP1 JUMP JUMPDEST PUSH1 0x40 MLOAD DUP1 PUSH1 0x80 ADD PUSH1 0x40 MSTORE DUP1 PUSH1 0x4 SWAP1 PUSH1 0x20 DUP3 MUL DUP1 CALLDATASIZE DUP4 CALLDATACOPY DUP1 DUP3 ADD SWAP2 POP POP SWAP1 POP POP SWAP1 JUMP JUMPDEST JUMPDEST DUP1 DUP3 GT ISZERO PUSH2 0x859 JUMPI PUSH0 DUP2 PUSH0 SWAP1 SSTORE POP PUSH1 0x1 ADD PUSH2 0x843 JUMP JUMPDEST POP SWAP1 JUMP JUMPDEST POP PUSH0 DUP2 SSTORE PUSH1 0x1 ADD PUSH0 DUP2 SSTORE PUSH1 0x1 ADD PUSH0 DUP2 SSTORE PUSH1 0x1 ADD PUSH0 SWAP1 SSTORE JUMP JUMPDEST PUSH0 DUP1 REVERT JUMPDEST PUSH0 PUSH20 0xFFFFFFFFFFFFFFFFFFFFFFFFFFFFFFFFFFFFFFFF DUP3 AND SWAP1 POP SWAP2 SWAP1 POP JUMP JUMPDEST PUSH0 PUSH2 0x8A2 DUP3 PUSH2 0x879 JUMP JUMPDEST SWAP1 POP SWAP2 SWAP1 POP JUMP JUMPDEST PUSH2 0x8B2 DUP2 PUSH2 0x898 JUMP JUMPDEST DUP2 EQ PUSH2 0x8BC JUMPI PUSH0 DUP1 REVERT JUMPDEST POP JUMP JUMPDEST PUSH0 DUP2 CALLDATALOAD SWAP1 POP PUSH2 0x8CD DUP2 PUSH2 0x8A9 JUMP JUMPDEST SWAP3 SWAP2 POP POP JUMP JUMPDEST PUSH0 DUP1 PUSH1 0x40 DUP4 DUP6 SUB SLT ISZERO PUSH2 0x8E9 JUMPI PUSH2 0x8E8 PUSH2 0x875 JUMP JUMPDEST JUMPDEST PUSH0 PUSH2 0x8F6 DUP6 DUP3 DUP7 ADD PUSH2 0x8BF JUMP JUMPDEST SWAP3 POP POP PUSH1 0x20 PUSH2 0x907 DUP6 DUP3 DUP7 ADD PUSH2 0x8BF JUMP JUMPDEST SWAP2 POP POP SWAP3 POP SWAP3 SWAP1 POP JUMP JUMPDEST PUSH0 DUP2 SWAP1 POP SWAP2 SWAP1 POP JUMP JUMPDEST PUSH2 0x923 DUP2 PUSH2 0x911 JUMP JUMPDEST DUP3 MSTORE POP POP JUMP JUMPDEST PUSH0 PUSH1 0x20 DUP3 ADD SWAP1 POP PUSH2 0x93C PUSH0 DUP4 ADD DUP5 PUSH2 0x91A JUMP JUMPDEST SWAP3 SWAP2 POP POP JUMP JUMPDEST PUSH2 0x94B DUP2 PUSH2 0x911 JUMP JUMPDEST DUP2 EQ PUSH2 0x955 JUMPI PUSH0 DUP1 REVERT JUMPDEST POP JUMP JUMPDEST PUSH0 DUP2 CALLDATALOAD SWAP1 POP PUSH2 0x966 DUP2 PUSH2 0x942 JUMP JUMPDEST SWAP3 SWAP2 POP POP JUMP JUMPDEST PUSH0 DUP1 PUSH0 PUSH1 0x60 DUP5 DUP7 SUB SLT ISZERO PUSH2 0x983 JUMPI PUSH2 0x982 PUSH2 0x875 JUMP JUMPDEST JUMPDEST PUSH0 PUSH2 0x990 DUP7 DUP3 DUP8 ADD PUSH2 0x958 JUMP JUMPDEST SWAP4 POP POP PUSH1 0x20 PUSH2 0x9A1 DUP7 DUP3 DUP8 ADD PUSH2 0x958 JUMP JUMPDEST SWAP3 POP POP PUSH1 0x40 PUSH2 0x9B2 DUP7 DUP3 DUP8 ADD PUSH2 0x958 JUMP JUMPDEST SWAP2 POP POP SWAP3 POP SWAP3 POP SWAP3 JUMP JUMPDEST PUSH32 0x4E487B7100000000000000000000000000000000000000000000000000000000 PUSH0 MSTORE PUSH1 0x32 PUSH1 0x4 MSTORE PUSH1 0x24 PUSH0 REVERT INVALID LOG2 PUSH5 0x6970667358 0x22 SLT KECCAK256 LOG2 0xEE 0xC8 0x1F 0xAB 0xDE DUP7 0xFC MLOAD 0xBE 0xF7 CALLER 0x26 EXTCODEHASH 0xA8 PUSH4 0x8D090EAA SAR 0xE1 CODESIZE 0xE2 SELFDESTRUCT LT RETURN PUSH22 0xA769C9A764736F6C634300081A003300000000000000 "
				},
				"gasEstimates": {
					"creation": {
						"codeDepositCost": "518200",
						"executionCost": "547",
						"totalCost": "518747"
					},
					"external": {
						"crearPartida(address,address)": "infinite",
						"jugar(uint256,uint256,uint256)": "infinite"
					},
					"internal": {
						"partidaTerminada(struct TicTacToe.Partida memory)": "infinite"
					}
				},
				"methodIdentifiers": {
					"crearPartida(address,address)": "1c5aef60",
					"jugar(uint256,uint256,uint256)": "4a5802da"
				}
			},
			"storageLayout": {
				"storage": [
					{
						"astId": 20,
						"contract": "contracts/2_0_TicTacToe.sol:TicTacToe",
						"label": "partidas",
						"offset": 0,
						"slot": "0",
						"type": "t_array(t_struct(Partida)16_storage)dyn_storage"
					}
				],
				"types": {
					"t_address": {
						"encoding": "inplace",
						"label": "address",
						"numberOfBytes": "20"
					},
					"t_array(t_array(t_uint256)4_storage)4_storage": {
						"base": "t_array(t_uint256)4_storage",
						"encoding": "inplace",
						"label": "uint256[4][4]",
						"numberOfBytes": "512"
					},
					"t_array(t_struct(Partida)16_storage)dyn_storage": {
						"base": "t_struct(Partida)16_storage",
						"encoding": "dynamic_array",
						"label": "struct TicTacToe.Partida[]",
						"numberOfBytes": "32"
					},
					"t_array(t_uint256)4_storage": {
						"base": "t_uint256",
						"encoding": "inplace",
						"label": "uint256[4]",
						"numberOfBytes": "128"
					},
					"t_struct(Partida)16_storage": {
						"encoding": "inplace",
						"label": "struct TicTacToe.Partida",
						"members": [
							{
								"astId": 3,
								"contract": "contracts/2_0_TicTacToe.sol:TicTacToe",
								"label": "jugador1",
								"offset": 0,
								"slot": "0",
								"type": "t_address"
							},
							{
								"astId": 5,
								"contract": "contracts/2_0_TicTacToe.sol:TicTacToe",
								"label": "jugador2",
								"offset": 0,
								"slot": "1",
								"type": "t_address"
							},
							{
								"astId": 7,
								"contract": "contracts/2_0_TicTacToe.sol:TicTacToe",
								"label": "ganador",
								"offset": 0,
								"slot": "2",
								"type": "t_address"
							},
							{
								"astId": 13,
								"contract": "contracts/2_0_TicTacToe.sol:TicTacToe",
								"label": "jugadas",
								"offset": 0,
								"slot": "3",
								"type": "t_array(t_array(t_uint256)4_storage)4_storage"
							},
							{
								"astId": 15,
								"contract": "contracts/2_0_TicTacToe.sol:TicTacToe",
								"label": "ultimoTurno",
								"offset": 0,
								"slot": "19",
								"type": "t_address"
							}
						],
						"numberOfBytes": "640"
					},
					"t_uint256": {
						"encoding": "inplace",
						"label": "uint256",
						"numberOfBytes": "32"
					}
				}
			},
			"userdoc": {
				"kind": "user",
				"methods": {},
				"version": 1
			}
		}
	}
}