{
	"contracts/2_0_TicTacToe_Marketplace.sol": {
		"TicTacToeMarketplace": {
			"abi": [
				{
					"inputs": [
						{
							"internalType": "address",
							"name": "contratoMoneda",
							"type": "address"
						},
						{
							"internalType": "address",
							"name": "contratoAchievement",
							"type": "address"
						}
					],
					"stateMutability": "nonpayable",
					"type": "constructor"
				},
				{
					"inputs": [
						{
							"internalType": "uint256",
							"name": "tokenId",
							"type": "uint256"
						}
					],
					"name": "comprar",
					"outputs": [],
					"stateMutability": "nonpayable",
					"type": "function"
				},
				{
					"inputs": [
						{
							"internalType": "uint256",
							"name": "tokenId",
							"type": "uint256"
						},
						{
							"internalType": "uint256",
							"name": "valor",
							"type": "uint256"
						}
					],
					"name": "publicar",
					"outputs": [],
					"stateMutability": "nonpayable",
					"type": "function"
				}
			],
			"devdoc": {
				"kind": "dev",
				"methods": {},
				"version": 1
			},
			"evm": {
				"assembly": "    /* \"contracts/2_0_TicTacToe_Marketplace.sol\":193:1193  contract TicTacToeMarketplace  {... */\n  mstore(0x40, 0x80)\n    /* \"contracts/2_0_TicTacToe_Marketplace.sol\":317:491  constructor(address contratoMoneda, address contratoAchievement)... */\n  callvalue\n  dup1\n  iszero\n  tag_1\n  jumpi\n  0x00\n  dup1\n  revert\ntag_1:\n  pop\n  mload(0x40)\n  sub(codesize, bytecodeSize)\n  dup1\n  bytecodeSize\n  dup4\n  codecopy\n  dup2\n  dup2\n  add\n  0x40\n  mstore\n  dup2\n  add\n  swap1\n  tag_2\n  swap2\n  swap1\n  tag_3\n  jump\t// in\ntag_2:\n    /* \"contracts/2_0_TicTacToe_Marketplace.sol\":421:440  contratoAchievement */\n  dup1\n    /* \"contracts/2_0_TicTacToe_Marketplace.sol\":398:410  achievements */\n  0x01\n  0x00\n    /* \"contracts/2_0_TicTacToe_Marketplace.sol\":398:441  achievements = IERC721(contratoAchievement) */\n  0x0100\n  exp\n  dup2\n  sload\n  dup2\n  0xffffffffffffffffffffffffffffffffffffffff\n  mul\n  not\n  and\n  swap1\n  dup4\n  0xffffffffffffffffffffffffffffffffffffffff\n  and\n  mul\n  or\n  swap1\n  sstore\n  pop\n    /* \"contracts/2_0_TicTacToe_Marketplace.sol\":468:482  contratoMoneda */\n  dup2\n    /* \"contracts/2_0_TicTacToe_Marketplace.sol\":452:458  moneda */\n  0x02\n  0x00\n    /* \"contracts/2_0_TicTacToe_Marketplace.sol\":452:483  moneda = IERC20(contratoMoneda) */\n  0x0100\n  exp\n  dup2\n  sload\n  dup2\n  0xffffffffffffffffffffffffffffffffffffffff\n  mul\n  not\n  and\n  swap1\n  dup4\n  0xffffffffffffffffffffffffffffffffffffffff\n  and\n  mul\n  or\n  swap1\n  sstore\n  pop\n    /* \"contracts/2_0_TicTacToe_Marketplace.sol\":317:491  constructor(address contratoMoneda, address contratoAchievement)... */\n  pop\n  pop\n    /* \"contracts/2_0_TicTacToe_Marketplace.sol\":193:1193  contract TicTacToeMarketplace  {... */\n  jump(tag_6)\n    /* \"#utility.yul\":88:205   */\ntag_8:\n    /* \"#utility.yul\":197:198   */\n  0x00\n    /* \"#utility.yul\":194:195   */\n  dup1\n    /* \"#utility.yul\":187:199   */\n  revert\n    /* \"#utility.yul\":334:460   */\ntag_10:\n    /* \"#utility.yul\":371:378   */\n  0x00\n    /* \"#utility.yul\":411:453   */\n  0xffffffffffffffffffffffffffffffffffffffff\n    /* \"#utility.yul\":404:409   */\n  dup3\n    /* \"#utility.yul\":400:454   */\n  and\n    /* \"#utility.yul\":389:454   */\n  swap1\n  pop\n    /* \"#utility.yul\":334:460   */\n  swap2\n  swap1\n  pop\n  jump\t// out\n    /* \"#utility.yul\":466:562   */\ntag_11:\n    /* \"#utility.yul\":503:510   */\n  0x00\n    /* \"#utility.yul\":532:556   */\n  tag_20\n    /* \"#utility.yul\":550:555   */\n  dup3\n    /* \"#utility.yul\":532:556   */\n  tag_10\n  jump\t// in\ntag_20:\n    /* \"#utility.yul\":521:556   */\n  swap1\n  pop\n    /* \"#utility.yul\":466:562   */\n  swap2\n  swap1\n  pop\n  jump\t// out\n    /* \"#utility.yul\":568:690   */\ntag_12:\n    /* \"#utility.yul\":641:665   */\n  tag_22\n    /* \"#utility.yul\":659:664   */\n  dup2\n    /* \"#utility.yul\":641:665   */\n  tag_11\n  jump\t// in\ntag_22:\n    /* \"#utility.yul\":634:639   */\n  dup2\n    /* \"#utility.yul\":631:666   */\n  eq\n    /* \"#utility.yul\":621:684   */\n  tag_23\n  jumpi\n    /* \"#utility.yul\":680:681   */\n  0x00\n    /* \"#utility.yul\":677:678   */\n  dup1\n    /* \"#utility.yul\":670:682   */\n  revert\n    /* \"#utility.yul\":621:684   */\ntag_23:\n    /* \"#utility.yul\":568:690   */\n  pop\n  jump\t// out\n    /* \"#utility.yul\":696:839   */\ntag_13:\n    /* \"#utility.yul\":753:758   */\n  0x00\n    /* \"#utility.yul\":784:790   */\n  dup2\n    /* \"#utility.yul\":778:791   */\n  mload\n    /* \"#utility.yul\":769:791   */\n  swap1\n  pop\n    /* \"#utility.yul\":800:833   */\n  tag_25\n    /* \"#utility.yul\":827:832   */\n  dup2\n    /* \"#utility.yul\":800:833   */\n  tag_12\n  jump\t// in\ntag_25:\n    /* \"#utility.yul\":696:839   */\n  swap3\n  swap2\n  pop\n  pop\n  jump\t// out\n    /* \"#utility.yul\":845:1352   */\ntag_3:\n    /* \"#utility.yul\":924:930   */\n  0x00\n    /* \"#utility.yul\":932:938   */\n  dup1\n    /* \"#utility.yul\":981:983   */\n  0x40\n    /* \"#utility.yul\":969:978   */\n  dup4\n    /* \"#utility.yul\":960:967   */\n  dup6\n    /* \"#utility.yul\":956:979   */\n  sub\n    /* \"#utility.yul\":952:984   */\n  slt\n    /* \"#utility.yul\":949:1068   */\n  iszero\n  tag_27\n  jumpi\n    /* \"#utility.yul\":987:1066   */\n  tag_28\n  tag_8\n  jump\t// in\ntag_28:\n    /* \"#utility.yul\":949:1068   */\ntag_27:\n    /* \"#utility.yul\":1107:1108   */\n  0x00\n    /* \"#utility.yul\":1132:1196   */\n  tag_29\n    /* \"#utility.yul\":1188:1195   */\n  dup6\n    /* \"#utility.yul\":1179:1185   */\n  dup3\n    /* \"#utility.yul\":1168:1177   */\n  dup7\n    /* \"#utility.yul\":1164:1186   */\n  add\n    /* \"#utility.yul\":1132:1196   */\n  tag_13\n  jump\t// in\ntag_29:\n    /* \"#utility.yul\":1122:1196   */\n  swap3\n  pop\n    /* \"#utility.yul\":1078:1206   */\n  pop\n    /* \"#utility.yul\":1245:1247   */\n  0x20\n    /* \"#utility.yul\":1271:1335   */\n  tag_30\n    /* \"#utility.yul\":1327:1334   */\n  dup6\n    /* \"#utility.yul\":1318:1324   */\n  dup3\n    /* \"#utility.yul\":1307:1316   */\n  dup7\n    /* \"#utility.yul\":1303:1325   */\n  add\n    /* \"#utility.yul\":1271:1335   */\n  tag_13\n  jump\t// in\ntag_30:\n    /* \"#utility.yul\":1261:1335   */\n  swap2\n  pop\n    /* \"#utility.yul\":1216:1345   */\n  pop\n    /* \"#utility.yul\":845:1352   */\n  swap3\n  pop\n  swap3\n  swap1\n  pop\n  jump\t// out\n    /* \"contracts/2_0_TicTacToe_Marketplace.sol\":193:1193  contract TicTacToeMarketplace  {... */\ntag_6:\n  dataSize(sub_0)\n  dup1\n  dataOffset(sub_0)\n  0x00\n  codecopy\n  0x00\n  return\nstop\n\nsub_0: assembly {\n        /* \"contracts/2_0_TicTacToe_Marketplace.sol\":193:1193  contract TicTacToeMarketplace  {... */\n      mstore(0x40, 0x80)\n      callvalue\n      dup1\n      iszero\n      tag_1\n      jumpi\n      0x00\n      dup1\n      revert\n    tag_1:\n      pop\n      jumpi(tag_2, lt(calldatasize, 0x04))\n      shr(0xe0, calldataload(0x00))\n      dup1\n      0x02bcd335\n      eq\n      tag_3\n      jumpi\n      dup1\n      0x2c9af1ea\n      eq\n      tag_4\n      jumpi\n    tag_2:\n      0x00\n      dup1\n      revert\n        /* \"contracts/2_0_TicTacToe_Marketplace.sol\":737:1190  function comprar(uint tokenId) public {... */\n    tag_3:\n      tag_5\n      0x04\n      dup1\n      calldatasize\n      sub\n      dup2\n      add\n      swap1\n      tag_6\n      swap2\n      swap1\n      tag_7\n      jump\t// in\n    tag_6:\n      tag_8\n      jump\t// in\n    tag_5:\n      stop\n        /* \"contracts/2_0_TicTacToe_Marketplace.sol\":497:731  function publicar(uint tokenId, uint valor) public {... */\n    tag_4:\n      tag_9\n      0x04\n      dup1\n      calldatasize\n      sub\n      dup2\n      add\n      swap1\n      tag_10\n      swap2\n      swap1\n      tag_11\n      jump\t// in\n    tag_10:\n      tag_12\n      jump\t// in\n    tag_9:\n      stop\n        /* \"contracts/2_0_TicTacToe_Marketplace.sol\":737:1190  function comprar(uint tokenId) public {... */\n    tag_8:\n        /* \"contracts/2_0_TicTacToe_Marketplace.sol\":813:814  0 */\n      0x00\n        /* \"contracts/2_0_TicTacToe_Marketplace.sol\":794:801  valores */\n      dup1\n        /* \"contracts/2_0_TicTacToe_Marketplace.sol\":794:810  valores[tokenId] */\n      0x00\n        /* \"contracts/2_0_TicTacToe_Marketplace.sol\":802:809  tokenId */\n      dup4\n        /* \"contracts/2_0_TicTacToe_Marketplace.sol\":794:810  valores[tokenId] */\n      dup2\n      mstore\n      0x20\n      add\n      swap1\n      dup2\n      mstore\n      0x20\n      add\n      0x00\n      keccak256\n      sload\n        /* \"contracts/2_0_TicTacToe_Marketplace.sol\":794:814  valores[tokenId] > 0 */\n      gt\n        /* \"contracts/2_0_TicTacToe_Marketplace.sol\":786:815  require(valores[tokenId] > 0) */\n      tag_14\n      jumpi\n      0x00\n      dup1\n      revert\n    tag_14:\n        /* \"contracts/2_0_TicTacToe_Marketplace.sol\":881:888  valores */\n      0x00\n        /* \"contracts/2_0_TicTacToe_Marketplace.sol\":881:897  valores[tokenId] */\n      dup1\n        /* \"contracts/2_0_TicTacToe_Marketplace.sol\":889:896  tokenId */\n      dup3\n        /* \"contracts/2_0_TicTacToe_Marketplace.sol\":881:897  valores[tokenId] */\n      dup2\n      mstore\n      0x20\n      add\n      swap1\n      dup2\n      mstore\n      0x20\n      add\n      0x00\n      keccak256\n      sload\n        /* \"contracts/2_0_TicTacToe_Marketplace.sol\":834:840  moneda */\n      0x02\n      0x00\n      swap1\n      sload\n      swap1\n      0x0100\n      exp\n      swap1\n      div\n      0xffffffffffffffffffffffffffffffffffffffff\n      and\n        /* \"contracts/2_0_TicTacToe_Marketplace.sol\":834:850  moneda.allowance */\n      0xffffffffffffffffffffffffffffffffffffffff\n      and\n      0xdd62ed3e\n        /* \"contracts/2_0_TicTacToe_Marketplace.sol\":851:861  msg.sender */\n      caller\n        /* \"contracts/2_0_TicTacToe_Marketplace.sol\":871:875  this */\n      address\n        /* \"contracts/2_0_TicTacToe_Marketplace.sol\":834:877  moneda.allowance(msg.sender, address(this)) */\n      mload(0x40)\n      dup4\n      0xffffffff\n      and\n      0xe0\n      shl\n      dup2\n      mstore\n      0x04\n      add\n      tag_15\n      swap3\n      swap2\n      swap1\n      tag_16\n      jump\t// in\n    tag_15:\n      0x20\n      mload(0x40)\n      dup1\n      dup4\n      sub\n      dup2\n      dup7\n      gas\n      staticcall\n      iszero\n      dup1\n      iszero\n      tag_18\n      jumpi\n      returndatasize\n      0x00\n      dup1\n      returndatacopy\n      revert(0x00, returndatasize)\n    tag_18:\n      pop\n      pop\n      pop\n      pop\n      mload(0x40)\n      returndatasize\n      not(0x1f)\n      0x1f\n      dup3\n      add\n      and\n      dup3\n      add\n      dup1\n      0x40\n      mstore\n      pop\n      dup2\n      add\n      swap1\n      tag_19\n      swap2\n      swap1\n      tag_20\n      jump\t// in\n    tag_19:\n        /* \"contracts/2_0_TicTacToe_Marketplace.sol\":834:897  moneda.allowance(msg.sender, address(this)) >= valores[tokenId] */\n      lt\n      iszero\n        /* \"contracts/2_0_TicTacToe_Marketplace.sol\":826:898  require(moneda.allowance(msg.sender, address(this)) >= valores[tokenId]) */\n      tag_21\n      jumpi\n      0x00\n      dup1\n      revert\n    tag_21:\n        /* \"contracts/2_0_TicTacToe_Marketplace.sol\":962:966  this */\n      address\n        /* \"contracts/2_0_TicTacToe_Marketplace.sol\":917:967  achievements.getApproved(tokenId) == address(this) */\n      0xffffffffffffffffffffffffffffffffffffffff\n      and\n        /* \"contracts/2_0_TicTacToe_Marketplace.sol\":917:929  achievements */\n      0x01\n      0x00\n      swap1\n      sload\n      swap1\n      0x0100\n      exp\n      swap1\n      div\n      0xffffffffffffffffffffffffffffffffffffffff\n      and\n        /* \"contracts/2_0_TicTacToe_Marketplace.sol\":917:941  achievements.getApproved */\n      0xffffffffffffffffffffffffffffffffffffffff\n      and\n      0x081812fc\n        /* \"contracts/2_0_TicTacToe_Marketplace.sol\":942:949  tokenId */\n      dup4\n        /* \"contracts/2_0_TicTacToe_Marketplace.sol\":917:950  achievements.getApproved(tokenId) */\n      mload(0x40)\n      dup3\n      0xffffffff\n      and\n      0xe0\n      shl\n      dup2\n      mstore\n      0x04\n      add\n      tag_22\n      swap2\n      swap1\n      tag_23\n      jump\t// in\n    tag_22:\n      0x20\n      mload(0x40)\n      dup1\n      dup4\n      sub\n      dup2\n      dup7\n      gas\n      staticcall\n      iszero\n      dup1\n      iszero\n      tag_25\n      jumpi\n      returndatasize\n      0x00\n      dup1\n      returndatacopy\n      revert(0x00, returndatasize)\n    tag_25:\n      pop\n      pop\n      pop\n      pop\n      mload(0x40)\n      returndatasize\n      not(0x1f)\n      0x1f\n      dup3\n      add\n      and\n      dup3\n      add\n      dup1\n      0x40\n      mstore\n      pop\n      dup2\n      add\n      swap1\n      tag_26\n      swap2\n      swap1\n      tag_27\n      jump\t// in\n    tag_26:\n        /* \"contracts/2_0_TicTacToe_Marketplace.sol\":917:967  achievements.getApproved(tokenId) == address(this) */\n      0xffffffffffffffffffffffffffffffffffffffff\n      and\n      eq\n        /* \"contracts/2_0_TicTacToe_Marketplace.sol\":909:968  require(achievements.getApproved(tokenId) == address(this)) */\n      tag_28\n      jumpi\n      0x00\n      dup1\n      revert\n    tag_28:\n        /* \"contracts/2_0_TicTacToe_Marketplace.sol\":979:985  moneda */\n      0x02\n      0x00\n      swap1\n      sload\n      swap1\n      0x0100\n      exp\n      swap1\n      div\n      0xffffffffffffffffffffffffffffffffffffffff\n      and\n        /* \"contracts/2_0_TicTacToe_Marketplace.sol\":979:998  moneda.transferFrom */\n      0xffffffffffffffffffffffffffffffffffffffff\n      and\n      0x23b872dd\n        /* \"contracts/2_0_TicTacToe_Marketplace.sol\":999:1009  msg.sender */\n      caller\n        /* \"contracts/2_0_TicTacToe_Marketplace.sol\":1011:1023  achievements */\n      0x01\n      0x00\n      swap1\n      sload\n      swap1\n      0x0100\n      exp\n      swap1\n      div\n      0xffffffffffffffffffffffffffffffffffffffff\n      and\n        /* \"contracts/2_0_TicTacToe_Marketplace.sol\":1011:1031  achievements.ownerOf */\n      0xffffffffffffffffffffffffffffffffffffffff\n      and\n      0x6352211e\n        /* \"contracts/2_0_TicTacToe_Marketplace.sol\":1032:1039  tokenId */\n      dup6\n        /* \"contracts/2_0_TicTacToe_Marketplace.sol\":1011:1040  achievements.ownerOf(tokenId) */\n      mload(0x40)\n      dup3\n      0xffffffff\n      and\n      0xe0\n      shl\n      dup2\n      mstore\n      0x04\n      add\n      tag_29\n      swap2\n      swap1\n      tag_23\n      jump\t// in\n    tag_29:\n      0x20\n      mload(0x40)\n      dup1\n      dup4\n      sub\n      dup2\n      dup7\n      gas\n      staticcall\n      iszero\n      dup1\n      iszero\n      tag_31\n      jumpi\n      returndatasize\n      0x00\n      dup1\n      returndatacopy\n      revert(0x00, returndatasize)\n    tag_31:\n      pop\n      pop\n      pop\n      pop\n      mload(0x40)\n      returndatasize\n      not(0x1f)\n      0x1f\n      dup3\n      add\n      and\n      dup3\n      add\n      dup1\n      0x40\n      mstore\n      pop\n      dup2\n      add\n      swap1\n      tag_32\n      swap2\n      swap1\n      tag_27\n      jump\t// in\n    tag_32:\n        /* \"contracts/2_0_TicTacToe_Marketplace.sol\":1042:1049  valores */\n      0x00\n        /* \"contracts/2_0_TicTacToe_Marketplace.sol\":1042:1058  valores[tokenId] */\n      dup1\n        /* \"contracts/2_0_TicTacToe_Marketplace.sol\":1050:1057  tokenId */\n      dup7\n        /* \"contracts/2_0_TicTacToe_Marketplace.sol\":1042:1058  valores[tokenId] */\n      dup2\n      mstore\n      0x20\n      add\n      swap1\n      dup2\n      mstore\n      0x20\n      add\n      0x00\n      keccak256\n      sload\n        /* \"contracts/2_0_TicTacToe_Marketplace.sol\":979:1059  moneda.transferFrom(msg.sender, achievements.ownerOf(tokenId), valores[tokenId]) */\n      mload(0x40)\n      dup5\n      0xffffffff\n      and\n      0xe0\n      shl\n      dup2\n      mstore\n      0x04\n      add\n      tag_33\n      swap4\n      swap3\n      swap2\n      swap1\n      tag_34\n      jump\t// in\n    tag_33:\n      0x20\n      mload(0x40)\n      dup1\n      dup4\n      sub\n      dup2\n      0x00\n      dup8\n      gas\n      call\n      iszero\n      dup1\n      iszero\n      tag_36\n      jumpi\n      returndatasize\n      0x00\n      dup1\n      returndatacopy\n      revert(0x00, returndatasize)\n    tag_36:\n      pop\n      pop\n      pop\n      pop\n      mload(0x40)\n      returndatasize\n      not(0x1f)\n      0x1f\n      dup3\n      add\n      and\n      dup3\n      add\n      dup1\n      0x40\n      mstore\n      pop\n      dup2\n      add\n      swap1\n      tag_37\n      swap2\n      swap1\n      tag_38\n      jump\t// in\n    tag_37:\n      pop\n        /* \"contracts/2_0_TicTacToe_Marketplace.sol\":1070:1082  achievements */\n      0x01\n      0x00\n      swap1\n      sload\n      swap1\n      0x0100\n      exp\n      swap1\n      div\n      0xffffffffffffffffffffffffffffffffffffffff\n      and\n        /* \"contracts/2_0_TicTacToe_Marketplace.sol\":1070:1099  achievements.safeTransferFrom */\n      0xffffffffffffffffffffffffffffffffffffffff\n      and\n      0x42842e0e\n        /* \"contracts/2_0_TicTacToe_Marketplace.sol\":1100:1112  achievements */\n      0x01\n      0x00\n      swap1\n      sload\n      swap1\n      0x0100\n      exp\n      swap1\n      div\n      0xffffffffffffffffffffffffffffffffffffffff\n      and\n        /* \"contracts/2_0_TicTacToe_Marketplace.sol\":1100:1120  achievements.ownerOf */\n      0xffffffffffffffffffffffffffffffffffffffff\n      and\n      0x6352211e\n        /* \"contracts/2_0_TicTacToe_Marketplace.sol\":1121:1128  tokenId */\n      dup5\n        /* \"contracts/2_0_TicTacToe_Marketplace.sol\":1100:1129  achievements.ownerOf(tokenId) */\n      mload(0x40)\n      dup3\n      0xffffffff\n      and\n      0xe0\n      shl\n      dup2\n      mstore\n      0x04\n      add\n      tag_39\n      swap2\n      swap1\n      tag_23\n      jump\t// in\n    tag_39:\n      0x20\n      mload(0x40)\n      dup1\n      dup4\n      sub\n      dup2\n      dup7\n      gas\n      staticcall\n      iszero\n      dup1\n      iszero\n      tag_41\n      jumpi\n      returndatasize\n      0x00\n      dup1\n      returndatacopy\n      revert(0x00, returndatasize)\n    tag_41:\n      pop\n      pop\n      pop\n      pop\n      mload(0x40)\n      returndatasize\n      not(0x1f)\n      0x1f\n      dup3\n      add\n      and\n      dup3\n      add\n      dup1\n      0x40\n      mstore\n      pop\n      dup2\n      add\n      swap1\n      tag_42\n      swap2\n      swap1\n      tag_27\n      jump\t// in\n    tag_42:\n        /* \"contracts/2_0_TicTacToe_Marketplace.sol\":1131:1141  msg.sender */\n      caller\n        /* \"contracts/2_0_TicTacToe_Marketplace.sol\":1143:1150  tokenId */\n      dup5\n        /* \"contracts/2_0_TicTacToe_Marketplace.sol\":1070:1151  achievements.safeTransferFrom(achievements.ownerOf(tokenId), msg.sender, tokenId) */\n      mload(0x40)\n      dup5\n      0xffffffff\n      and\n      0xe0\n      shl\n      dup2\n      mstore\n      0x04\n      add\n      tag_43\n      swap4\n      swap3\n      swap2\n      swap1\n      tag_34\n      jump\t// in\n    tag_43:\n      0x00\n      mload(0x40)\n      dup1\n      dup4\n      sub\n      dup2\n      0x00\n      dup8\n      dup1\n      extcodesize\n      iszero\n      dup1\n      iszero\n      tag_44\n      jumpi\n      0x00\n      dup1\n      revert\n    tag_44:\n      pop\n      gas\n      call\n      iszero\n      dup1\n      iszero\n      tag_46\n      jumpi\n      returndatasize\n      0x00\n      dup1\n      returndatacopy\n      revert(0x00, returndatasize)\n    tag_46:\n      pop\n      pop\n      pop\n      pop\n        /* \"contracts/2_0_TicTacToe_Marketplace.sol\":1181:1182  0 */\n      0x00\n        /* \"contracts/2_0_TicTacToe_Marketplace.sol\":1162:1169  valores */\n      dup1\n        /* \"contracts/2_0_TicTacToe_Marketplace.sol\":1162:1178  valores[tokenId] */\n      0x00\n        /* \"contracts/2_0_TicTacToe_Marketplace.sol\":1170:1177  tokenId */\n      dup4\n        /* \"contracts/2_0_TicTacToe_Marketplace.sol\":1162:1178  valores[tokenId] */\n      dup2\n      mstore\n      0x20\n      add\n      swap1\n      dup2\n      mstore\n      0x20\n      add\n      0x00\n      keccak256\n        /* \"contracts/2_0_TicTacToe_Marketplace.sol\":1162:1182  valores[tokenId] = 0 */\n      dup2\n      swap1\n      sstore\n      pop\n        /* \"contracts/2_0_TicTacToe_Marketplace.sol\":737:1190  function comprar(uint tokenId) public {... */\n      pop\n      jump\t// out\n        /* \"contracts/2_0_TicTacToe_Marketplace.sol\":497:731  function publicar(uint tokenId, uint valor) public {... */\n    tag_12:\n        /* \"contracts/2_0_TicTacToe_Marketplace.sol\":587:588  0 */\n      0x00\n        /* \"contracts/2_0_TicTacToe_Marketplace.sol\":567:574  valores */\n      dup1\n        /* \"contracts/2_0_TicTacToe_Marketplace.sol\":567:583  valores[tokenId] */\n      0x00\n        /* \"contracts/2_0_TicTacToe_Marketplace.sol\":575:582  tokenId */\n      dup5\n        /* \"contracts/2_0_TicTacToe_Marketplace.sol\":567:583  valores[tokenId] */\n      dup2\n      mstore\n      0x20\n      add\n      swap1\n      dup2\n      mstore\n      0x20\n      add\n      0x00\n      keccak256\n      sload\n        /* \"contracts/2_0_TicTacToe_Marketplace.sol\":567:588  valores[tokenId] == 0 */\n      eq\n        /* \"contracts/2_0_TicTacToe_Marketplace.sol\":559:589  require(valores[tokenId] == 0) */\n      tag_48\n      jumpi\n      0x00\n      dup1\n      revert\n    tag_48:\n        /* \"contracts/2_0_TicTacToe_Marketplace.sol\":616:617  0 */\n      0x00\n        /* \"contracts/2_0_TicTacToe_Marketplace.sol\":608:613  valor */\n      dup2\n        /* \"contracts/2_0_TicTacToe_Marketplace.sol\":608:617  valor > 0 */\n      gt\n        /* \"contracts/2_0_TicTacToe_Marketplace.sol\":600:618  require(valor > 0) */\n      tag_49\n      jumpi\n      0x00\n      dup1\n      revert\n    tag_49:\n        /* \"contracts/2_0_TicTacToe_Marketplace.sol\":682:686  this */\n      address\n        /* \"contracts/2_0_TicTacToe_Marketplace.sol\":637:687  achievements.getApproved(tokenId) == address(this) */\n      0xffffffffffffffffffffffffffffffffffffffff\n      and\n        /* \"contracts/2_0_TicTacToe_Marketplace.sol\":637:649  achievements */\n      0x01\n      0x00\n      swap1\n      sload\n      swap1\n      0x0100\n      exp\n      swap1\n      div\n      0xffffffffffffffffffffffffffffffffffffffff\n      and\n        /* \"contracts/2_0_TicTacToe_Marketplace.sol\":637:661  achievements.getApproved */\n      0xffffffffffffffffffffffffffffffffffffffff\n      and\n      0x081812fc\n        /* \"contracts/2_0_TicTacToe_Marketplace.sol\":662:669  tokenId */\n      dup5\n        /* \"contracts/2_0_TicTacToe_Marketplace.sol\":637:670  achievements.getApproved(tokenId) */\n      mload(0x40)\n      dup3\n      0xffffffff\n      and\n      0xe0\n      shl\n      dup2\n      mstore\n      0x04\n      add\n      tag_50\n      swap2\n      swap1\n      tag_23\n      jump\t// in\n    tag_50:\n      0x20\n      mload(0x40)\n      dup1\n      dup4\n      sub\n      dup2\n      dup7\n      gas\n      staticcall\n      iszero\n      dup1\n      iszero\n      tag_52\n      jumpi\n      returndatasize\n      0x00\n      dup1\n      returndatacopy\n      revert(0x00, returndatasize)\n    tag_52:\n      pop\n      pop\n      pop\n      pop\n      mload(0x40)\n      returndatasize\n      not(0x1f)\n      0x1f\n      dup3\n      add\n      and\n      dup3\n      add\n      dup1\n      0x40\n      mstore\n      pop\n      dup2\n      add\n      swap1\n      tag_53\n      swap2\n      swap1\n      tag_27\n      jump\t// in\n    tag_53:\n        /* \"contracts/2_0_TicTacToe_Marketplace.sol\":637:687  achievements.getApproved(tokenId) == address(this) */\n      0xffffffffffffffffffffffffffffffffffffffff\n      and\n      eq\n        /* \"contracts/2_0_TicTacToe_Marketplace.sol\":629:688  require(achievements.getApproved(tokenId) == address(this)) */\n      tag_54\n      jumpi\n      0x00\n      dup1\n      revert\n    tag_54:\n        /* \"contracts/2_0_TicTacToe_Marketplace.sol\":718:723  valor */\n      dup1\n        /* \"contracts/2_0_TicTacToe_Marketplace.sol\":699:706  valores */\n      0x00\n        /* \"contracts/2_0_TicTacToe_Marketplace.sol\":699:715  valores[tokenId] */\n      dup1\n        /* \"contracts/2_0_TicTacToe_Marketplace.sol\":707:714  tokenId */\n      dup5\n        /* \"contracts/2_0_TicTacToe_Marketplace.sol\":699:715  valores[tokenId] */\n      dup2\n      mstore\n      0x20\n      add\n      swap1\n      dup2\n      mstore\n      0x20\n      add\n      0x00\n      keccak256\n        /* \"contracts/2_0_TicTacToe_Marketplace.sol\":699:723  valores[tokenId] = valor */\n      dup2\n      swap1\n      sstore\n      pop\n        /* \"contracts/2_0_TicTacToe_Marketplace.sol\":497:731  function publicar(uint tokenId, uint valor) public {... */\n      pop\n      pop\n      jump\t// out\n        /* \"#utility.yul\":88:205   */\n    tag_56:\n        /* \"#utility.yul\":197:198   */\n      0x00\n        /* \"#utility.yul\":194:195   */\n      dup1\n        /* \"#utility.yul\":187:199   */\n      revert\n        /* \"#utility.yul\":334:411   */\n    tag_58:\n        /* \"#utility.yul\":371:378   */\n      0x00\n        /* \"#utility.yul\":400:405   */\n      dup2\n        /* \"#utility.yul\":389:405   */\n      swap1\n      pop\n        /* \"#utility.yul\":334:411   */\n      swap2\n      swap1\n      pop\n      jump\t// out\n        /* \"#utility.yul\":417:539   */\n    tag_59:\n        /* \"#utility.yul\":490:514   */\n      tag_77\n        /* \"#utility.yul\":508:513   */\n      dup2\n        /* \"#utility.yul\":490:514   */\n      tag_58\n      jump\t// in\n    tag_77:\n        /* \"#utility.yul\":483:488   */\n      dup2\n        /* \"#utility.yul\":480:515   */\n      eq\n        /* \"#utility.yul\":470:533   */\n      tag_78\n      jumpi\n        /* \"#utility.yul\":529:530   */\n      0x00\n        /* \"#utility.yul\":526:527   */\n      dup1\n        /* \"#utility.yul\":519:531   */\n      revert\n        /* \"#utility.yul\":470:533   */\n    tag_78:\n        /* \"#utility.yul\":417:539   */\n      pop\n      jump\t// out\n        /* \"#utility.yul\":545:684   */\n    tag_60:\n        /* \"#utility.yul\":591:596   */\n      0x00\n        /* \"#utility.yul\":629:635   */\n      dup2\n        /* \"#utility.yul\":616:636   */\n      calldataload\n        /* \"#utility.yul\":607:636   */\n      swap1\n      pop\n        /* \"#utility.yul\":645:678   */\n      tag_80\n        /* \"#utility.yul\":672:677   */\n      dup2\n        /* \"#utility.yul\":645:678   */\n      tag_59\n      jump\t// in\n    tag_80:\n        /* \"#utility.yul\":545:684   */\n      swap3\n      swap2\n      pop\n      pop\n      jump\t// out\n        /* \"#utility.yul\":690:1019   */\n    tag_7:\n        /* \"#utility.yul\":749:755   */\n      0x00\n        /* \"#utility.yul\":798:800   */\n      0x20\n        /* \"#utility.yul\":786:795   */\n      dup3\n        /* \"#utility.yul\":777:784   */\n      dup5\n        /* \"#utility.yul\":773:796   */\n      sub\n        /* \"#utility.yul\":769:801   */\n      slt\n        /* \"#utility.yul\":766:885   */\n      iszero\n      tag_82\n      jumpi\n        /* \"#utility.yul\":804:883   */\n      tag_83\n      tag_56\n      jump\t// in\n    tag_83:\n        /* \"#utility.yul\":766:885   */\n    tag_82:\n        /* \"#utility.yul\":924:925   */\n      0x00\n        /* \"#utility.yul\":949:1002   */\n      tag_84\n        /* \"#utility.yul\":994:1001   */\n      dup5\n        /* \"#utility.yul\":985:991   */\n      dup3\n        /* \"#utility.yul\":974:983   */\n      dup6\n        /* \"#utility.yul\":970:992   */\n      add\n        /* \"#utility.yul\":949:1002   */\n      tag_60\n      jump\t// in\n    tag_84:\n        /* \"#utility.yul\":939:1002   */\n      swap2\n      pop\n        /* \"#utility.yul\":895:1012   */\n      pop\n        /* \"#utility.yul\":690:1019   */\n      swap3\n      swap2\n      pop\n      pop\n      jump\t// out\n        /* \"#utility.yul\":1025:1499   */\n    tag_11:\n        /* \"#utility.yul\":1093:1099   */\n      0x00\n        /* \"#utility.yul\":1101:1107   */\n      dup1\n        /* \"#utility.yul\":1150:1152   */\n      0x40\n        /* \"#utility.yul\":1138:1147   */\n      dup4\n        /* \"#utility.yul\":1129:1136   */\n      dup6\n        /* \"#utility.yul\":1125:1148   */\n      sub\n        /* \"#utility.yul\":1121:1153   */\n      slt\n        /* \"#utility.yul\":1118:1237   */\n      iszero\n      tag_86\n      jumpi\n        /* \"#utility.yul\":1156:1235   */\n      tag_87\n      tag_56\n      jump\t// in\n    tag_87:\n        /* \"#utility.yul\":1118:1237   */\n    tag_86:\n        /* \"#utility.yul\":1276:1277   */\n      0x00\n        /* \"#utility.yul\":1301:1354   */\n      tag_88\n        /* \"#utility.yul\":1346:1353   */\n      dup6\n        /* \"#utility.yul\":1337:1343   */\n      dup3\n        /* \"#utility.yul\":1326:1335   */\n      dup7\n        /* \"#utility.yul\":1322:1344   */\n      add\n        /* \"#utility.yul\":1301:1354   */\n      tag_60\n      jump\t// in\n    tag_88:\n        /* \"#utility.yul\":1291:1354   */\n      swap3\n      pop\n        /* \"#utility.yul\":1247:1364   */\n      pop\n        /* \"#utility.yul\":1403:1405   */\n      0x20\n        /* \"#utility.yul\":1429:1482   */\n      tag_89\n        /* \"#utility.yul\":1474:1481   */\n      dup6\n        /* \"#utility.yul\":1465:1471   */\n      dup3\n        /* \"#utility.yul\":1454:1463   */\n      dup7\n        /* \"#utility.yul\":1450:1472   */\n      add\n        /* \"#utility.yul\":1429:1482   */\n      tag_60\n      jump\t// in\n    tag_89:\n        /* \"#utility.yul\":1419:1482   */\n      swap2\n      pop\n        /* \"#utility.yul\":1374:1492   */\n      pop\n        /* \"#utility.yul\":1025:1499   */\n      swap3\n      pop\n      swap3\n      swap1\n      pop\n      jump\t// out\n        /* \"#utility.yul\":1505:1631   */\n    tag_61:\n        /* \"#utility.yul\":1542:1549   */\n      0x00\n        /* \"#utility.yul\":1582:1624   */\n      0xffffffffffffffffffffffffffffffffffffffff\n        /* \"#utility.yul\":1575:1580   */\n      dup3\n        /* \"#utility.yul\":1571:1625   */\n      and\n        /* \"#utility.yul\":1560:1625   */\n      swap1\n      pop\n        /* \"#utility.yul\":1505:1631   */\n      swap2\n      swap1\n      pop\n      jump\t// out\n        /* \"#utility.yul\":1637:1733   */\n    tag_62:\n        /* \"#utility.yul\":1674:1681   */\n      0x00\n        /* \"#utility.yul\":1703:1727   */\n      tag_92\n        /* \"#utility.yul\":1721:1726   */\n      dup3\n        /* \"#utility.yul\":1703:1727   */\n      tag_61\n      jump\t// in\n    tag_92:\n        /* \"#utility.yul\":1692:1727   */\n      swap1\n      pop\n        /* \"#utility.yul\":1637:1733   */\n      swap2\n      swap1\n      pop\n      jump\t// out\n        /* \"#utility.yul\":1739:1857   */\n    tag_63:\n        /* \"#utility.yul\":1826:1850   */\n      tag_94\n        /* \"#utility.yul\":1844:1849   */\n      dup2\n        /* \"#utility.yul\":1826:1850   */\n      tag_62\n      jump\t// in\n    tag_94:\n        /* \"#utility.yul\":1821:1824   */\n      dup3\n        /* \"#utility.yul\":1814:1851   */\n      mstore\n        /* \"#utility.yul\":1739:1857   */\n      pop\n      pop\n      jump\t// out\n        /* \"#utility.yul\":1863:2195   */\n    tag_16:\n        /* \"#utility.yul\":1984:1988   */\n      0x00\n        /* \"#utility.yul\":2022:2024   */\n      0x40\n        /* \"#utility.yul\":2011:2020   */\n      dup3\n        /* \"#utility.yul\":2007:2025   */\n      add\n        /* \"#utility.yul\":1999:2025   */\n      swap1\n      pop\n        /* \"#utility.yul\":2035:2106   */\n      tag_96\n        /* \"#utility.yul\":2103:2104   */\n      0x00\n        /* \"#utility.yul\":2092:2101   */\n      dup4\n        /* \"#utility.yul\":2088:2105   */\n      add\n        /* \"#utility.yul\":2079:2085   */\n      dup6\n        /* \"#utility.yul\":2035:2106   */\n      tag_63\n      jump\t// in\n    tag_96:\n        /* \"#utility.yul\":2116:2188   */\n      tag_97\n        /* \"#utility.yul\":2184:2186   */\n      0x20\n        /* \"#utility.yul\":2173:2182   */\n      dup4\n        /* \"#utility.yul\":2169:2187   */\n      add\n        /* \"#utility.yul\":2160:2166   */\n      dup5\n        /* \"#utility.yul\":2116:2188   */\n      tag_63\n      jump\t// in\n    tag_97:\n        /* \"#utility.yul\":1863:2195   */\n      swap4\n      swap3\n      pop\n      pop\n      pop\n      jump\t// out\n        /* \"#utility.yul\":2201:2344   */\n    tag_64:\n        /* \"#utility.yul\":2258:2263   */\n      0x00\n        /* \"#utility.yul\":2289:2295   */\n      dup2\n        /* \"#utility.yul\":2283:2296   */\n      mload\n        /* \"#utility.yul\":2274:2296   */\n      swap1\n      pop\n        /* \"#utility.yul\":2305:2338   */\n      tag_99\n        /* \"#utility.yul\":2332:2337   */\n      dup2\n        /* \"#utility.yul\":2305:2338   */\n      tag_59\n      jump\t// in\n    tag_99:\n        /* \"#utility.yul\":2201:2344   */\n      swap3\n      swap2\n      pop\n      pop\n      jump\t// out\n        /* \"#utility.yul\":2350:2701   */\n    tag_20:\n        /* \"#utility.yul\":2420:2426   */\n      0x00\n        /* \"#utility.yul\":2469:2471   */\n      0x20\n        /* \"#utility.yul\":2457:2466   */\n      dup3\n        /* \"#utility.yul\":2448:2455   */\n      dup5\n        /* \"#utility.yul\":2444:2467   */\n      sub\n        /* \"#utility.yul\":2440:2472   */\n      slt\n        /* \"#utility.yul\":2437:2556   */\n      iszero\n      tag_101\n      jumpi\n        /* \"#utility.yul\":2475:2554   */\n      tag_102\n      tag_56\n      jump\t// in\n    tag_102:\n        /* \"#utility.yul\":2437:2556   */\n    tag_101:\n        /* \"#utility.yul\":2595:2596   */\n      0x00\n        /* \"#utility.yul\":2620:2684   */\n      tag_103\n        /* \"#utility.yul\":2676:2683   */\n      dup5\n        /* \"#utility.yul\":2667:2673   */\n      dup3\n        /* \"#utility.yul\":2656:2665   */\n      dup6\n        /* \"#utility.yul\":2652:2674   */\n      add\n        /* \"#utility.yul\":2620:2684   */\n      tag_64\n      jump\t// in\n    tag_103:\n        /* \"#utility.yul\":2610:2684   */\n      swap2\n      pop\n        /* \"#utility.yul\":2566:2694   */\n      pop\n        /* \"#utility.yul\":2350:2701   */\n      swap3\n      swap2\n      pop\n      pop\n      jump\t// out\n        /* \"#utility.yul\":2707:2825   */\n    tag_65:\n        /* \"#utility.yul\":2794:2818   */\n      tag_105\n        /* \"#utility.yul\":2812:2817   */\n      dup2\n        /* \"#utility.yul\":2794:2818   */\n      tag_58\n      jump\t// in\n    tag_105:\n        /* \"#utility.yul\":2789:2792   */\n      dup3\n        /* \"#utility.yul\":2782:2819   */\n      mstore\n        /* \"#utility.yul\":2707:2825   */\n      pop\n      pop\n      jump\t// out\n        /* \"#utility.yul\":2831:3053   */\n    tag_23:\n        /* \"#utility.yul\":2924:2928   */\n      0x00\n        /* \"#utility.yul\":2962:2964   */\n      0x20\n        /* \"#utility.yul\":2951:2960   */\n      dup3\n        /* \"#utility.yul\":2947:2965   */\n      add\n        /* \"#utility.yul\":2939:2965   */\n      swap1\n      pop\n        /* \"#utility.yul\":2975:3046   */\n      tag_107\n        /* \"#utility.yul\":3043:3044   */\n      0x00\n        /* \"#utility.yul\":3032:3041   */\n      dup4\n        /* \"#utility.yul\":3028:3045   */\n      add\n        /* \"#utility.yul\":3019:3025   */\n      dup5\n        /* \"#utility.yul\":2975:3046   */\n      tag_65\n      jump\t// in\n    tag_107:\n        /* \"#utility.yul\":2831:3053   */\n      swap3\n      swap2\n      pop\n      pop\n      jump\t// out\n        /* \"#utility.yul\":3059:3181   */\n    tag_66:\n        /* \"#utility.yul\":3132:3156   */\n      tag_109\n        /* \"#utility.yul\":3150:3155   */\n      dup2\n        /* \"#utility.yul\":3132:3156   */\n      tag_62\n      jump\t// in\n    tag_109:\n        /* \"#utility.yul\":3125:3130   */\n      dup2\n        /* \"#utility.yul\":3122:3157   */\n      eq\n        /* \"#utility.yul\":3112:3175   */\n      tag_110\n      jumpi\n        /* \"#utility.yul\":3171:3172   */\n      0x00\n        /* \"#utility.yul\":3168:3169   */\n      dup1\n        /* \"#utility.yul\":3161:3173   */\n      revert\n        /* \"#utility.yul\":3112:3175   */\n    tag_110:\n        /* \"#utility.yul\":3059:3181   */\n      pop\n      jump\t// out\n        /* \"#utility.yul\":3187:3330   */\n    tag_67:\n        /* \"#utility.yul\":3244:3249   */\n      0x00\n        /* \"#utility.yul\":3275:3281   */\n      dup2\n        /* \"#utility.yul\":3269:3282   */\n      mload\n        /* \"#utility.yul\":3260:3282   */\n      swap1\n      pop\n        /* \"#utility.yul\":3291:3324   */\n      tag_112\n        /* \"#utility.yul\":3318:3323   */\n      dup2\n        /* \"#utility.yul\":3291:3324   */\n      tag_66\n      jump\t// in\n    tag_112:\n        /* \"#utility.yul\":3187:3330   */\n      swap3\n      swap2\n      pop\n      pop\n      jump\t// out\n        /* \"#utility.yul\":3336:3687   */\n    tag_27:\n        /* \"#utility.yul\":3406:3412   */\n      0x00\n        /* \"#utility.yul\":3455:3457   */\n      0x20\n        /* \"#utility.yul\":3443:3452   */\n      dup3\n        /* \"#utility.yul\":3434:3441   */\n      dup5\n        /* \"#utility.yul\":3430:3453   */\n      sub\n        /* \"#utility.yul\":3426:3458   */\n      slt\n        /* \"#utility.yul\":3423:3542   */\n      iszero\n      tag_114\n      jumpi\n        /* \"#utility.yul\":3461:3540   */\n      tag_115\n      tag_56\n      jump\t// in\n    tag_115:\n        /* \"#utility.yul\":3423:3542   */\n    tag_114:\n        /* \"#utility.yul\":3581:3582   */\n      0x00\n        /* \"#utility.yul\":3606:3670   */\n      tag_116\n        /* \"#utility.yul\":3662:3669   */\n      dup5\n        /* \"#utility.yul\":3653:3659   */\n      dup3\n        /* \"#utility.yul\":3642:3651   */\n      dup6\n        /* \"#utility.yul\":3638:3660   */\n      add\n        /* \"#utility.yul\":3606:3670   */\n      tag_67\n      jump\t// in\n    tag_116:\n        /* \"#utility.yul\":3596:3670   */\n      swap2\n      pop\n        /* \"#utility.yul\":3552:3680   */\n      pop\n        /* \"#utility.yul\":3336:3687   */\n      swap3\n      swap2\n      pop\n      pop\n      jump\t// out\n        /* \"#utility.yul\":3693:4135   */\n    tag_34:\n        /* \"#utility.yul\":3842:3846   */\n      0x00\n        /* \"#utility.yul\":3880:3882   */\n      0x60\n        /* \"#utility.yul\":3869:3878   */\n      dup3\n        /* \"#utility.yul\":3865:3883   */\n      add\n        /* \"#utility.yul\":3857:3883   */\n      swap1\n      pop\n        /* \"#utility.yul\":3893:3964   */\n      tag_118\n        /* \"#utility.yul\":3961:3962   */\n      0x00\n        /* \"#utility.yul\":3950:3959   */\n      dup4\n        /* \"#utility.yul\":3946:3963   */\n      add\n        /* \"#utility.yul\":3937:3943   */\n      dup7\n        /* \"#utility.yul\":3893:3964   */\n      tag_63\n      jump\t// in\n    tag_118:\n        /* \"#utility.yul\":3974:4046   */\n      tag_119\n        /* \"#utility.yul\":4042:4044   */\n      0x20\n        /* \"#utility.yul\":4031:4040   */\n      dup4\n        /* \"#utility.yul\":4027:4045   */\n      add\n        /* \"#utility.yul\":4018:4024   */\n      dup6\n        /* \"#utility.yul\":3974:4046   */\n      tag_63\n      jump\t// in\n    tag_119:\n        /* \"#utility.yul\":4056:4128   */\n      tag_120\n        /* \"#utility.yul\":4124:4126   */\n      0x40\n        /* \"#utility.yul\":4113:4122   */\n      dup4\n        /* \"#utility.yul\":4109:4127   */\n      add\n        /* \"#utility.yul\":4100:4106   */\n      dup5\n        /* \"#utility.yul\":4056:4128   */\n      tag_65\n      jump\t// in\n    tag_120:\n        /* \"#utility.yul\":3693:4135   */\n      swap5\n      swap4\n      pop\n      pop\n      pop\n      pop\n      jump\t// out\n        /* \"#utility.yul\":4141:4231   */\n    tag_68:\n        /* \"#utility.yul\":4175:4182   */\n      0x00\n        /* \"#utility.yul\":4218:4223   */\n      dup2\n        /* \"#utility.yul\":4211:4224   */\n      iszero\n        /* \"#utility.yul\":4204:4225   */\n      iszero\n        /* \"#utility.yul\":4193:4225   */\n      swap1\n      pop\n        /* \"#utility.yul\":4141:4231   */\n      swap2\n      swap1\n      pop\n      jump\t// out\n        /* \"#utility.yul\":4237:4353   */\n    tag_69:\n        /* \"#utility.yul\":4307:4328   */\n      tag_123\n        /* \"#utility.yul\":4322:4327   */\n      dup2\n        /* \"#utility.yul\":4307:4328   */\n      tag_68\n      jump\t// in\n    tag_123:\n        /* \"#utility.yul\":4300:4305   */\n      dup2\n        /* \"#utility.yul\":4297:4329   */\n      eq\n        /* \"#utility.yul\":4287:4347   */\n      tag_124\n      jumpi\n        /* \"#utility.yul\":4343:4344   */\n      0x00\n        /* \"#utility.yul\":4340:4341   */\n      dup1\n        /* \"#utility.yul\":4333:4345   */\n      revert\n        /* \"#utility.yul\":4287:4347   */\n    tag_124:\n        /* \"#utility.yul\":4237:4353   */\n      pop\n      jump\t// out\n        /* \"#utility.yul\":4359:4496   */\n    tag_70:\n        /* \"#utility.yul\":4413:4418   */\n      0x00\n        /* \"#utility.yul\":4444:4450   */\n      dup2\n        /* \"#utility.yul\":4438:4451   */\n      mload\n        /* \"#utility.yul\":4429:4451   */\n      swap1\n      pop\n        /* \"#utility.yul\":4460:4490   */\n      tag_126\n        /* \"#utility.yul\":4484:4489   */\n      dup2\n        /* \"#utility.yul\":4460:4490   */\n      tag_69\n      jump\t// in\n    tag_126:\n        /* \"#utility.yul\":4359:4496   */\n      swap3\n      swap2\n      pop\n      pop\n      jump\t// out\n        /* \"#utility.yul\":4502:4847   */\n    tag_38:\n        /* \"#utility.yul\":4569:4575   */\n      0x00\n        /* \"#utility.yul\":4618:4620   */\n      0x20\n        /* \"#utility.yul\":4606:4615   */\n      dup3\n        /* \"#utility.yul\":4597:4604   */\n      dup5\n        /* \"#utility.yul\":4593:4616   */\n      sub\n        /* \"#utility.yul\":4589:4621   */\n      slt\n        /* \"#utility.yul\":4586:4705   */\n      iszero\n      tag_128\n      jumpi\n        /* \"#utility.yul\":4624:4703   */\n      tag_129\n      tag_56\n      jump\t// in\n    tag_129:\n        /* \"#utility.yul\":4586:4705   */\n    tag_128:\n        /* \"#utility.yul\":4744:4745   */\n      0x00\n        /* \"#utility.yul\":4769:4830   */\n      tag_130\n        /* \"#utility.yul\":4822:4829   */\n      dup5\n        /* \"#utility.yul\":4813:4819   */\n      dup3\n        /* \"#utility.yul\":4802:4811   */\n      dup6\n        /* \"#utility.yul\":4798:4820   */\n      add\n        /* \"#utility.yul\":4769:4830   */\n      tag_70\n      jump\t// in\n    tag_130:\n        /* \"#utility.yul\":4759:4830   */\n      swap2\n      pop\n        /* \"#utility.yul\":4715:4840   */\n      pop\n        /* \"#utility.yul\":4502:4847   */\n      swap3\n      swap2\n      pop\n      pop\n      jump\t// out\n\n    auxdata: 0xa26469706673582212201cd1d7ab3fc2e3f5a954441827566893471b81bb7a1f8350df5e41786d5b266964736f6c634300081a0033\n}\n",
				"bytecode": {
					"linkReferences": {},
					"object": "608060405234801561000f575f80fd5b5060405161098e38038061098e83398181016040528101906100319190610116565b8060015f6101000a81548173ffffffffffffffffffffffffffffffffffffffff021916908373ffffffffffffffffffffffffffffffffffffffff1602179055508160025f6101000a81548173ffffffffffffffffffffffffffffffffffffffff021916908373ffffffffffffffffffffffffffffffffffffffff1602179055505050610154565b5f80fd5b5f73ffffffffffffffffffffffffffffffffffffffff82169050919050565b5f6100e5826100bc565b9050919050565b6100f5816100db565b81146100ff575f80fd5b50565b5f81519050610110816100ec565b92915050565b5f806040838503121561012c5761012b6100b8565b5b5f61013985828601610102565b925050602061014a85828601610102565b9150509250929050565b61082d806101615f395ff3fe608060405234801561000f575f80fd5b5060043610610034575f3560e01c806302bcd335146100385780632c9af1ea14610054575b5f80fd5b610052600480360381019061004d91906105d7565b610070565b005b61006e60048036038101906100699190610602565b610492565b005b5f805f8381526020019081526020015f20541161008b575f80fd5b5f808281526020019081526020015f205460025f9054906101000a900473ffffffffffffffffffffffffffffffffffffffff1673ffffffffffffffffffffffffffffffffffffffff1663dd62ed3e33306040518363ffffffff1660e01b81526004016100f892919061067f565b602060405180830381865afa158015610113573d5f803e3d5ffd5b505050506040513d601f19601f8201168201806040525081019061013791906106ba565b1015610141575f80fd5b3073ffffffffffffffffffffffffffffffffffffffff1660015f9054906101000a900473ffffffffffffffffffffffffffffffffffffffff1673ffffffffffffffffffffffffffffffffffffffff1663081812fc836040518263ffffffff1660e01b81526004016101b291906106f4565b602060405180830381865afa1580156101cd573d5f803e3d5ffd5b505050506040513d601f19601f820116820180604052508101906101f19190610737565b73ffffffffffffffffffffffffffffffffffffffff1614610210575f80fd5b60025f9054906101000a900473ffffffffffffffffffffffffffffffffffffffff1673ffffffffffffffffffffffffffffffffffffffff166323b872dd3360015f9054906101000a900473ffffffffffffffffffffffffffffffffffffffff1673ffffffffffffffffffffffffffffffffffffffff16636352211e856040518263ffffffff1660e01b81526004016102a891906106f4565b602060405180830381865afa1580156102c3573d5f803e3d5ffd5b505050506040513d601f19601f820116820180604052508101906102e79190610737565b5f808681526020019081526020015f20546040518463ffffffff1660e01b815260040161031693929190610762565b6020604051808303815f875af1158015610332573d5f803e3d5ffd5b505050506040513d601f19601f8201168201806040525081019061035691906107cc565b5060015f9054906101000a900473ffffffffffffffffffffffffffffffffffffffff1673ffffffffffffffffffffffffffffffffffffffff166342842e0e60015f9054906101000a900473ffffffffffffffffffffffffffffffffffffffff1673ffffffffffffffffffffffffffffffffffffffff16636352211e846040518263ffffffff1660e01b81526004016103ee91906106f4565b602060405180830381865afa158015610409573d5f803e3d5ffd5b505050506040513d601f19601f8201168201806040525081019061042d9190610737565b33846040518463ffffffff1660e01b815260040161044d93929190610762565b5f604051808303815f87803b158015610464575f80fd5b505af1158015610476573d5f803e3d5ffd5b505050505f805f8381526020019081526020015f208190555050565b5f805f8481526020019081526020015f2054146104ad575f80fd5b5f81116104b8575f80fd5b3073ffffffffffffffffffffffffffffffffffffffff1660015f9054906101000a900473ffffffffffffffffffffffffffffffffffffffff1673ffffffffffffffffffffffffffffffffffffffff1663081812fc846040518263ffffffff1660e01b815260040161052991906106f4565b602060405180830381865afa158015610544573d5f803e3d5ffd5b505050506040513d601f19601f820116820180604052508101906105689190610737565b73ffffffffffffffffffffffffffffffffffffffff1614610587575f80fd5b805f808481526020019081526020015f20819055505050565b5f80fd5b5f819050919050565b6105b6816105a4565b81146105c0575f80fd5b50565b5f813590506105d1816105ad565b92915050565b5f602082840312156105ec576105eb6105a0565b5b5f6105f9848285016105c3565b91505092915050565b5f8060408385031215610618576106176105a0565b5b5f610625858286016105c3565b9250506020610636858286016105c3565b9150509250929050565b5f73ffffffffffffffffffffffffffffffffffffffff82169050919050565b5f61066982610640565b9050919050565b6106798161065f565b82525050565b5f6040820190506106925f830185610670565b61069f6020830184610670565b9392505050565b5f815190506106b4816105ad565b92915050565b5f602082840312156106cf576106ce6105a0565b5b5f6106dc848285016106a6565b91505092915050565b6106ee816105a4565b82525050565b5f6020820190506107075f8301846106e5565b92915050565b6107168161065f565b8114610720575f80fd5b50565b5f815190506107318161070d565b92915050565b5f6020828403121561074c5761074b6105a0565b5b5f61075984828501610723565b91505092915050565b5f6060820190506107755f830186610670565b6107826020830185610670565b61078f60408301846106e5565b949350505050565b5f8115159050919050565b6107ab81610797565b81146107b5575f80fd5b50565b5f815190506107c6816107a2565b92915050565b5f602082840312156107e1576107e06105a0565b5b5f6107ee848285016107b8565b9150509291505056fea26469706673582212201cd1d7ab3fc2e3f5a954441827566893471b81bb7a1f8350df5e41786d5b266964736f6c634300081a0033",
					"opcodes": "PUSH1 0x80 PUSH1 0x40 MSTORE CALLVALUE DUP1 ISZERO PUSH2 0xF JUMPI PUSH0 DUP1 REVERT JUMPDEST POP PUSH1 0x40 MLOAD PUSH2 0x98E CODESIZE SUB DUP1 PUSH2 0x98E DUP4 CODECOPY DUP2 DUP2 ADD PUSH1 0x40 MSTORE DUP2 ADD SWAP1 PUSH2 0x31 SWAP2 SWAP1 PUSH2 0x116 JUMP JUMPDEST DUP1 PUSH1 0x1 PUSH0 PUSH2 0x100 EXP DUP2 SLOAD DUP2 PUSH20 0xFFFFFFFFFFFFFFFFFFFFFFFFFFFFFFFFFFFFFFFF MUL NOT AND SWAP1 DUP4 PUSH20 0xFFFFFFFFFFFFFFFFFFFFFFFFFFFFFFFFFFFFFFFF AND MUL OR SWAP1 SSTORE POP DUP2 PUSH1 0x2 PUSH0 PUSH2 0x100 EXP DUP2 SLOAD DUP2 PUSH20 0xFFFFFFFFFFFFFFFFFFFFFFFFFFFFFFFFFFFFFFFF MUL NOT AND SWAP1 DUP4 PUSH20 0xFFFFFFFFFFFFFFFFFFFFFFFFFFFFFFFFFFFFFFFF AND MUL OR SWAP1 SSTORE POP POP POP PUSH2 0x154 JUMP JUMPDEST PUSH0 DUP1 REVERT JUMPDEST PUSH0 PUSH20 0xFFFFFFFFFFFFFFFFFFFFFFFFFFFFFFFFFFFFFFFF DUP3 AND SWAP1 POP SWAP2 SWAP1 POP JUMP JUMPDEST PUSH0 PUSH2 0xE5 DUP3 PUSH2 0xBC JUMP JUMPDEST SWAP1 POP SWAP2 SWAP1 POP JUMP JUMPDEST PUSH2 0xF5 DUP2 PUSH2 0xDB JUMP JUMPDEST DUP2 EQ PUSH2 0xFF JUMPI PUSH0 DUP1 REVERT JUMPDEST POP JUMP JUMPDEST PUSH0 DUP2 MLOAD SWAP1 POP PUSH2 0x110 DUP2 PUSH2 0xEC JUMP JUMPDEST SWAP3 SWAP2 POP POP JUMP JUMPDEST PUSH0 DUP1 PUSH1 0x40 DUP4 DUP6 SUB SLT ISZERO PUSH2 0x12C JUMPI PUSH2 0x12B PUSH2 0xB8 JUMP JUMPDEST JUMPDEST PUSH0 PUSH2 0x139 DUP6 DUP3 DUP7 ADD PUSH2 0x102 JUMP JUMPDEST SWAP3 POP POP PUSH1 0x20 PUSH2 0x14A DUP6 DUP3 DUP7 ADD PUSH2 0x102 JUMP JUMPDEST SWAP2 POP POP SWAP3 POP SWAP3 SWAP1 POP JUMP JUMPDEST PUSH2 0x82D DUP1 PUSH2 0x161 PUSH0 CODECOPY PUSH0 RETURN INVALID PUSH1 0x80 PUSH1 0x40 MSTORE CALLVALUE DUP1 ISZERO PUSH2 0xF JUMPI PUSH0 DUP1 REVERT JUMPDEST POP PUSH1 0x4 CALLDATASIZE LT PUSH2 0x34 JUMPI PUSH0 CALLDATALOAD PUSH1 0xE0 SHR DUP1 PUSH4 0x2BCD335 EQ PUSH2 0x38 JUMPI DUP1 PUSH4 0x2C9AF1EA EQ PUSH2 0x54 JUMPI JUMPDEST PUSH0 DUP1 REVERT JUMPDEST PUSH2 0x52 PUSH1 0x4 DUP1 CALLDATASIZE SUB DUP2 ADD SWAP1 PUSH2 0x4D SWAP2 SWAP1 PUSH2 0x5D7 JUMP JUMPDEST PUSH2 0x70 JUMP JUMPDEST STOP JUMPDEST PUSH2 0x6E PUSH1 0x4 DUP1 CALLDATASIZE SUB DUP2 ADD SWAP1 PUSH2 0x69 SWAP2 SWAP1 PUSH2 0x602 JUMP JUMPDEST PUSH2 0x492 JUMP JUMPDEST STOP JUMPDEST PUSH0 DUP1 PUSH0 DUP4 DUP2 MSTORE PUSH1 0x20 ADD SWAP1 DUP2 MSTORE PUSH1 0x20 ADD PUSH0 KECCAK256 SLOAD GT PUSH2 0x8B JUMPI PUSH0 DUP1 REVERT JUMPDEST PUSH0 DUP1 DUP3 DUP2 MSTORE PUSH1 0x20 ADD SWAP1 DUP2 MSTORE PUSH1 0x20 ADD PUSH0 KECCAK256 SLOAD PUSH1 0x2 PUSH0 SWAP1 SLOAD SWAP1 PUSH2 0x100 EXP SWAP1 DIV PUSH20 0xFFFFFFFFFFFFFFFFFFFFFFFFFFFFFFFFFFFFFFFF AND PUSH20 0xFFFFFFFFFFFFFFFFFFFFFFFFFFFFFFFFFFFFFFFF AND PUSH4 0xDD62ED3E CALLER ADDRESS PUSH1 0x40 MLOAD DUP4 PUSH4 0xFFFFFFFF AND PUSH1 0xE0 SHL DUP2 MSTORE PUSH1 0x4 ADD PUSH2 0xF8 SWAP3 SWAP2 SWAP1 PUSH2 0x67F JUMP JUMPDEST PUSH1 0x20 PUSH1 0x40 MLOAD DUP1 DUP4 SUB DUP2 DUP7 GAS STATICCALL ISZERO DUP1 ISZERO PUSH2 0x113 JUMPI RETURNDATASIZE PUSH0 DUP1 RETURNDATACOPY RETURNDATASIZE PUSH0 REVERT JUMPDEST POP POP POP POP PUSH1 0x40 MLOAD RETURNDATASIZE PUSH1 0x1F NOT PUSH1 0x1F DUP3 ADD AND DUP3 ADD DUP1 PUSH1 0x40 MSTORE POP DUP2 ADD SWAP1 PUSH2 0x137 SWAP2 SWAP1 PUSH2 0x6BA JUMP JUMPDEST LT ISZERO PUSH2 0x141 JUMPI PUSH0 DUP1 REVERT JUMPDEST ADDRESS PUSH20 0xFFFFFFFFFFFFFFFFFFFFFFFFFFFFFFFFFFFFFFFF AND PUSH1 0x1 PUSH0 SWAP1 SLOAD SWAP1 PUSH2 0x100 EXP SWAP1 DIV PUSH20 0xFFFFFFFFFFFFFFFFFFFFFFFFFFFFFFFFFFFFFFFF AND PUSH20 0xFFFFFFFFFFFFFFFFFFFFFFFFFFFFFFFFFFFFFFFF AND PUSH4 0x81812FC DUP4 PUSH1 0x40 MLOAD DUP3 PUSH4 0xFFFFFFFF AND PUSH1 0xE0 SHL DUP2 MSTORE PUSH1 0x4 ADD PUSH2 0x1B2 SWAP2 SWAP1 PUSH2 0x6F4 JUMP JUMPDEST PUSH1 0x20 PUSH1 0x40 MLOAD DUP1 DUP4 SUB DUP2 DUP7 GAS STATICCALL ISZERO DUP1 ISZERO PUSH2 0x1CD JUMPI RETURNDATASIZE PUSH0 DUP1 RETURNDATACOPY RETURNDATASIZE PUSH0 REVERT JUMPDEST POP POP POP POP PUSH1 0x40 MLOAD RETURNDATASIZE PUSH1 0x1F NOT PUSH1 0x1F DUP3 ADD AND DUP3 ADD DUP1 PUSH1 0x40 MSTORE POP DUP2 ADD SWAP1 PUSH2 0x1F1 SWAP2 SWAP1 PUSH2 0x737 JUMP JUMPDEST PUSH20 0xFFFFFFFFFFFFFFFFFFFFFFFFFFFFFFFFFFFFFFFF AND EQ PUSH2 0x210 JUMPI PUSH0 DUP1 REVERT JUMPDEST PUSH1 0x2 PUSH0 SWAP1 SLOAD SWAP1 PUSH2 0x100 EXP SWAP1 DIV PUSH20 0xFFFFFFFFFFFFFFFFFFFFFFFFFFFFFFFFFFFFFFFF AND PUSH20 0xFFFFFFFFFFFFFFFFFFFFFFFFFFFFFFFFFFFFFFFF AND PUSH4 0x23B872DD CALLER PUSH1 0x1 PUSH0 SWAP1 SLOAD SWAP1 PUSH2 0x100 EXP SWAP1 DIV PUSH20 0xFFFFFFFFFFFFFFFFFFFFFFFFFFFFFFFFFFFFFFFF AND PUSH20 0xFFFFFFFFFFFFFFFFFFFFFFFFFFFFFFFFFFFFFFFF AND PUSH4 0x6352211E DUP6 PUSH1 0x40 MLOAD DUP3 PUSH4 0xFFFFFFFF AND PUSH1 0xE0 SHL DUP2 MSTORE PUSH1 0x4 ADD PUSH2 0x2A8 SWAP2 SWAP1 PUSH2 0x6F4 JUMP JUMPDEST PUSH1 0x20 PUSH1 0x40 MLOAD DUP1 DUP4 SUB DUP2 DUP7 GAS STATICCALL ISZERO DUP1 ISZERO PUSH2 0x2C3 JUMPI RETURNDATASIZE PUSH0 DUP1 RETURNDATACOPY RETURNDATASIZE PUSH0 REVERT JUMPDEST POP POP POP POP PUSH1 0x40 MLOAD RETURNDATASIZE PUSH1 0x1F NOT PUSH1 0x1F DUP3 ADD AND DUP3 ADD DUP1 PUSH1 0x40 MSTORE POP DUP2 ADD SWAP1 PUSH2 0x2E7 SWAP2 SWAP1 PUSH2 0x737 JUMP JUMPDEST PUSH0 DUP1 DUP7 DUP2 MSTORE PUSH1 0x20 ADD SWAP1 DUP2 MSTORE PUSH1 0x20 ADD PUSH0 KECCAK256 SLOAD PUSH1 0x40 MLOAD DUP5 PUSH4 0xFFFFFFFF AND PUSH1 0xE0 SHL DUP2 MSTORE PUSH1 0x4 ADD PUSH2 0x316 SWAP4 SWAP3 SWAP2 SWAP1 PUSH2 0x762 JUMP JUMPDEST PUSH1 0x20 PUSH1 0x40 MLOAD DUP1 DUP4 SUB DUP2 PUSH0 DUP8 GAS CALL ISZERO DUP1 ISZERO PUSH2 0x332 JUMPI RETURNDATASIZE PUSH0 DUP1 RETURNDATACOPY RETURNDATASIZE PUSH0 REVERT JUMPDEST POP POP POP POP PUSH1 0x40 MLOAD RETURNDATASIZE PUSH1 0x1F NOT PUSH1 0x1F DUP3 ADD AND DUP3 ADD DUP1 PUSH1 0x40 MSTORE POP DUP2 ADD SWAP1 PUSH2 0x356 SWAP2 SWAP1 PUSH2 0x7CC JUMP JUMPDEST POP PUSH1 0x1 PUSH0 SWAP1 SLOAD SWAP1 PUSH2 0x100 EXP SWAP1 DIV PUSH20 0xFFFFFFFFFFFFFFFFFFFFFFFFFFFFFFFFFFFFFFFF AND PUSH20 0xFFFFFFFFFFFFFFFFFFFFFFFFFFFFFFFFFFFFFFFF AND PUSH4 0x42842E0E PUSH1 0x1 PUSH0 SWAP1 SLOAD SWAP1 PUSH2 0x100 EXP SWAP1 DIV PUSH20 0xFFFFFFFFFFFFFFFFFFFFFFFFFFFFFFFFFFFFFFFF AND PUSH20 0xFFFFFFFFFFFFFFFFFFFFFFFFFFFFFFFFFFFFFFFF AND PUSH4 0x6352211E DUP5 PUSH1 0x40 MLOAD DUP3 PUSH4 0xFFFFFFFF AND PUSH1 0xE0 SHL DUP2 MSTORE PUSH1 0x4 ADD PUSH2 0x3EE SWAP2 SWAP1 PUSH2 0x6F4 JUMP JUMPDEST PUSH1 0x20 PUSH1 0x40 MLOAD DUP1 DUP4 SUB DUP2 DUP7 GAS STATICCALL ISZERO DUP1 ISZERO PUSH2 0x409 JUMPI RETURNDATASIZE PUSH0 DUP1 RETURNDATACOPY RETURNDATASIZE PUSH0 REVERT JUMPDEST POP POP POP POP PUSH1 0x40 MLOAD RETURNDATASIZE PUSH1 0x1F NOT PUSH1 0x1F DUP3 ADD AND DUP3 ADD DUP1 PUSH1 0x40 MSTORE POP DUP2 ADD SWAP1 PUSH2 0x42D SWAP2 SWAP1 PUSH2 0x737 JUMP JUMPDEST CALLER DUP5 PUSH1 0x40 MLOAD DUP5 PUSH4 0xFFFFFFFF AND PUSH1 0xE0 SHL DUP2 MSTORE PUSH1 0x4 ADD PUSH2 0x44D SWAP4 SWAP3 SWAP2 SWAP1 PUSH2 0x762 JUMP JUMPDEST PUSH0 PUSH1 0x40 MLOAD DUP1 DUP4 SUB DUP2 PUSH0 DUP8 DUP1 EXTCODESIZE ISZERO DUP1 ISZERO PUSH2 0x464 JUMPI PUSH0 DUP1 REVERT JUMPDEST POP GAS CALL ISZERO DUP1 ISZERO PUSH2 0x476 JUMPI RETURNDATASIZE PUSH0 DUP1 RETURNDATACOPY RETURNDATASIZE PUSH0 REVERT JUMPDEST POP POP POP POP PUSH0 DUP1 PUSH0 DUP4 DUP2 MSTORE PUSH1 0x20 ADD SWAP1 DUP2 MSTORE PUSH1 0x20 ADD PUSH0 KECCAK256 DUP2 SWAP1 SSTORE POP POP JUMP JUMPDEST PUSH0 DUP1 PUSH0 DUP5 DUP2 MSTORE PUSH1 0x20 ADD SWAP1 DUP2 MSTORE PUSH1 0x20 ADD PUSH0 KECCAK256 SLOAD EQ PUSH2 0x4AD JUMPI PUSH0 DUP1 REVERT JUMPDEST PUSH0 DUP2 GT PUSH2 0x4B8 JUMPI PUSH0 DUP1 REVERT JUMPDEST ADDRESS PUSH20 0xFFFFFFFFFFFFFFFFFFFFFFFFFFFFFFFFFFFFFFFF AND PUSH1 0x1 PUSH0 SWAP1 SLOAD SWAP1 PUSH2 0x100 EXP SWAP1 DIV PUSH20 0xFFFFFFFFFFFFFFFFFFFFFFFFFFFFFFFFFFFFFFFF AND PUSH20 0xFFFFFFFFFFFFFFFFFFFFFFFFFFFFFFFFFFFFFFFF AND PUSH4 0x81812FC DUP5 PUSH1 0x40 MLOAD DUP3 PUSH4 0xFFFFFFFF AND PUSH1 0xE0 SHL DUP2 MSTORE PUSH1 0x4 ADD PUSH2 0x529 SWAP2 SWAP1 PUSH2 0x6F4 JUMP JUMPDEST PUSH1 0x20 PUSH1 0x40 MLOAD DUP1 DUP4 SUB DUP2 DUP7 GAS STATICCALL ISZERO DUP1 ISZERO PUSH2 0x544 JUMPI RETURNDATASIZE PUSH0 DUP1 RETURNDATACOPY RETURNDATASIZE PUSH0 REVERT JUMPDEST POP POP POP POP PUSH1 0x40 MLOAD RETURNDATASIZE PUSH1 0x1F NOT PUSH1 0x1F DUP3 ADD AND DUP3 ADD DUP1 PUSH1 0x40 MSTORE POP DUP2 ADD SWAP1 PUSH2 0x568 SWAP2 SWAP1 PUSH2 0x737 JUMP JUMPDEST PUSH20 0xFFFFFFFFFFFFFFFFFFFFFFFFFFFFFFFFFFFFFFFF AND EQ PUSH2 0x587 JUMPI PUSH0 DUP1 REVERT JUMPDEST DUP1 PUSH0 DUP1 DUP5 DUP2 MSTORE PUSH1 0x20 ADD SWAP1 DUP2 MSTORE PUSH1 0x20 ADD PUSH0 KECCAK256 DUP2 SWAP1 SSTORE POP POP POP JUMP JUMPDEST PUSH0 DUP1 REVERT JUMPDEST PUSH0 DUP2 SWAP1 POP SWAP2 SWAP1 POP JUMP JUMPDEST PUSH2 0x5B6 DUP2 PUSH2 0x5A4 JUMP JUMPDEST DUP2 EQ PUSH2 0x5C0 JUMPI PUSH0 DUP1 REVERT JUMPDEST POP JUMP JUMPDEST PUSH0 DUP2 CALLDATALOAD SWAP1 POP PUSH2 0x5D1 DUP2 PUSH2 0x5AD JUMP JUMPDEST SWAP3 SWAP2 POP POP JUMP JUMPDEST PUSH0 PUSH1 0x20 DUP3 DUP5 SUB SLT ISZERO PUSH2 0x5EC JUMPI PUSH2 0x5EB PUSH2 0x5A0 JUMP JUMPDEST JUMPDEST PUSH0 PUSH2 0x5F9 DUP5 DUP3 DUP6 ADD PUSH2 0x5C3 JUMP JUMPDEST SWAP2 POP POP SWAP3 SWAP2 POP POP JUMP JUMPDEST PUSH0 DUP1 PUSH1 0x40 DUP4 DUP6 SUB SLT ISZERO PUSH2 0x618 JUMPI PUSH2 0x617 PUSH2 0x5A0 JUMP JUMPDEST JUMPDEST PUSH0 PUSH2 0x625 DUP6 DUP3 DUP7 ADD PUSH2 0x5C3 JUMP JUMPDEST SWAP3 POP POP PUSH1 0x20 PUSH2 0x636 DUP6 DUP3 DUP7 ADD PUSH2 0x5C3 JUMP JUMPDEST SWAP2 POP POP SWAP3 POP SWAP3 SWAP1 POP JUMP JUMPDEST PUSH0 PUSH20 0xFFFFFFFFFFFFFFFFFFFFFFFFFFFFFFFFFFFFFFFF DUP3 AND SWAP1 POP SWAP2 SWAP1 POP JUMP JUMPDEST PUSH0 PUSH2 0x669 DUP3 PUSH2 0x640 JUMP JUMPDEST SWAP1 POP SWAP2 SWAP1 POP JUMP JUMPDEST PUSH2 0x679 DUP2 PUSH2 0x65F JUMP JUMPDEST DUP3 MSTORE POP POP JUMP JUMPDEST PUSH0 PUSH1 0x40 DUP3 ADD SWAP1 POP PUSH2 0x692 PUSH0 DUP4 ADD DUP6 PUSH2 0x670 JUMP JUMPDEST PUSH2 0x69F PUSH1 0x20 DUP4 ADD DUP5 PUSH2 0x670 JUMP JUMPDEST SWAP4 SWAP3 POP POP POP JUMP JUMPDEST PUSH0 DUP2 MLOAD SWAP1 POP PUSH2 0x6B4 DUP2 PUSH2 0x5AD JUMP JUMPDEST SWAP3 SWAP2 POP POP JUMP JUMPDEST PUSH0 PUSH1 0x20 DUP3 DUP5 SUB SLT ISZERO PUSH2 0x6CF JUMPI PUSH2 0x6CE PUSH2 0x5A0 JUMP JUMPDEST JUMPDEST PUSH0 PUSH2 0x6DC DUP5 DUP3 DUP6 ADD PUSH2 0x6A6 JUMP JUMPDEST SWAP2 POP POP SWAP3 SWAP2 POP POP JUMP JUMPDEST PUSH2 0x6EE DUP2 PUSH2 0x5A4 JUMP JUMPDEST DUP3 MSTORE POP POP JUMP JUMPDEST PUSH0 PUSH1 0x20 DUP3 ADD SWAP1 POP PUSH2 0x707 PUSH0 DUP4 ADD DUP5 PUSH2 0x6E5 JUMP JUMPDEST SWAP3 SWAP2 POP POP JUMP JUMPDEST PUSH2 0x716 DUP2 PUSH2 0x65F JUMP JUMPDEST DUP2 EQ PUSH2 0x720 JUMPI PUSH0 DUP1 REVERT JUMPDEST POP JUMP JUMPDEST PUSH0 DUP2 MLOAD SWAP1 POP PUSH2 0x731 DUP2 PUSH2 0x70D JUMP JUMPDEST SWAP3 SWAP2 POP POP JUMP JUMPDEST PUSH0 PUSH1 0x20 DUP3 DUP5 SUB SLT ISZERO PUSH2 0x74C JUMPI PUSH2 0x74B PUSH2 0x5A0 JUMP JUMPDEST JUMPDEST PUSH0 PUSH2 0x759 DUP5 DUP3 DUP6 ADD PUSH2 0x723 JUMP JUMPDEST SWAP2 POP POP SWAP3 SWAP2 POP POP JUMP JUMPDEST PUSH0 PUSH1 0x60 DUP3 ADD SWAP1 POP PUSH2 0x775 PUSH0 DUP4 ADD DUP7 PUSH2 0x670 JUMP JUMPDEST PUSH2 0x782 PUSH1 0x20 DUP4 ADD DUP6 PUSH2 0x670 JUMP JUMPDEST PUSH2 0x78F PUSH1 0x40 DUP4 ADD DUP5 PUSH2 0x6E5 JUMP JUMPDEST SWAP5 SWAP4 POP POP POP POP JUMP JUMPDEST PUSH0 DUP2 ISZERO ISZERO SWAP1 POP SWAP2 SWAP1 POP JUMP JUMPDEST PUSH2 0x7AB DUP2 PUSH2 0x797 JUMP JUMPDEST DUP2 EQ PUSH2 0x7B5 JUMPI PUSH0 DUP1 REVERT JUMPDEST POP JUMP JUMPDEST PUSH0 DUP2 MLOAD SWAP1 POP PUSH2 0x7C6 DUP2 PUSH2 0x7A2 JUMP JUMPDEST SWAP3 SWAP2 POP POP JUMP JUMPDEST PUSH0 PUSH1 0x20 DUP3 DUP5 SUB SLT ISZERO PUSH2 0x7E1 JUMPI PUSH2 0x7E0 PUSH2 0x5A0 JUMP JUMPDEST JUMPDEST PUSH0 PUSH2 0x7EE DUP5 DUP3 DUP6 ADD PUSH2 0x7B8 JUMP JUMPDEST SWAP2 POP POP SWAP3 SWAP2 POP POP JUMP INVALID LOG2 PUSH5 0x6970667358 0x22 SLT KECCAK256 SHR 0xD1 0xD7 0xAB EXTCODEHASH 0xC2 0xE3 CREATE2 0xA9 SLOAD PREVRANDAO XOR 0x27 JUMP PUSH9 0x93471B81BB7A1F8350 0xDF MCOPY COINBASE PUSH25 0x6D5B266964736F6C634300081A003300000000000000000000 "
				},
				"gasEstimates": {
					"creation": {
						"codeDepositCost": "418600",
						"executionCost": "infinite",
						"totalCost": "infinite"
					},
					"external": {
						"comprar(uint256)": "infinite",
						"publicar(uint256,uint256)": "infinite"
					}
				},
				"methodIdentifiers": {
					"comprar(uint256)": "02bcd335",
					"publicar(uint256,uint256)": "2c9af1ea"
				}
			},
			"storageLayout": {
				"storage": [
					{
						"astId": 6252,
						"contract": "contracts/2_0_TicTacToe_Marketplace.sol:TicTacToeMarketplace",
						"label": "valores",
						"offset": 0,
						"slot": "0",
						"type": "t_mapping(t_uint256,t_uint256)"
					},
					{
						"astId": 6255,
						"contract": "contracts/2_0_TicTacToe_Marketplace.sol:TicTacToeMarketplace",
						"label": "achievements",
						"offset": 0,
						"slot": "1",
						"type": "t_contract(IERC721)1288"
					},
					{
						"astId": 6258,
						"contract": "contracts/2_0_TicTacToe_Marketplace.sol:TicTacToeMarketplace",
						"label": "moneda",
						"offset": 0,
						"slot": "2",
						"type": "t_contract(IERC20)214"
					}
				],
				"types": {
					"t_contract(IERC20)214": {
						"encoding": "inplace",
						"label": "contract IERC20",
						"numberOfBytes": "20"
					},
					"t_contract(IERC721)1288": {
						"encoding": "inplace",
						"label": "contract IERC721",
						"numberOfBytes": "20"
					},
					"t_mapping(t_uint256,t_uint256)": {
						"encoding": "mapping",
						"key": "t_uint256",
						"label": "mapping(uint256 => uint256)",
						"numberOfBytes": "32",
						"value": "t_uint256"
					},
					"t_uint256": {
						"encoding": "inplace",
						"label": "uint256",
						"numberOfBytes": "32"
					}
				}
			},
			"userdoc": {
				"kind": "user",
				"methods": {},
				"version": 1
			}
		}
	}
}