{
	"contracts/2_0_TicTacToe.sol": {
		"TicTacToe": {
			"abi": [
				{
					"inputs": [
						{
							"internalType": "address",
							"name": "pJugador1",
							"type": "address"
						},
						{
							"internalType": "address",
							"name": "pJugador2",
							"type": "address"
						}
					],
					"name": "crearPartida",
					"outputs": [
						{
							"internalType": "uint256",
							"name": "",
							"type": "uint256"
						}
					],
					"stateMutability": "nonpayable",
					"type": "function"
				},
				{
					"inputs": [
						{
							"internalType": "uint256",
							"name": "idPartida",
							"type": "uint256"
						},
						{
							"internalType": "uint256",
							"name": "horizontal",
							"type": "uint256"
						},
						{
							"internalType": "uint256",
							"name": "vertical",
							"type": "uint256"
						}
					],
					"name": "jugar",
					"outputs": [],
					"stateMutability": "nonpayable",
					"type": "function"
				}
			],
			"devdoc": {
				"kind": "dev",
				"methods": {},
				"version": 1
			},
			"evm": {
				"assembly": "    /* \"contracts/2_0_TicTacToe.sol\":114:3413  contract TicTacToe{... */\n  mstore(0x40, 0x80)\n  callvalue\n  dup1\n  iszero\n  tag_1\n  jumpi\n  0x00\n  dup1\n  revert\ntag_1:\n  pop\n  dataSize(sub_0)\n  dup1\n  dataOffset(sub_0)\n  0x00\n  codecopy\n  0x00\n  return\nstop\n\nsub_0: assembly {\n        /* \"contracts/2_0_TicTacToe.sol\":114:3413  contract TicTacToe{... */\n      mstore(0x40, 0x80)\n      callvalue\n      dup1\n      iszero\n      tag_1\n      jumpi\n      0x00\n      dup1\n      revert\n    tag_1:\n      pop\n      jumpi(tag_2, lt(calldatasize, 0x04))\n      shr(0xe0, calldataload(0x00))\n      dup1\n      0x1c5aef60\n      eq\n      tag_3\n      jumpi\n      dup1\n      0x4a5802da\n      eq\n      tag_4\n      jumpi\n    tag_2:\n      0x00\n      dup1\n      revert\n        /* \"contracts/2_0_TicTacToe.sol\":390:783  function crearPartida(address pJugador1, address pJugador2) public returns(uint){... */\n    tag_3:\n      tag_5\n      0x04\n      dup1\n      calldatasize\n      sub\n      dup2\n      add\n      swap1\n      tag_6\n      swap2\n      swap1\n      tag_7\n      jump\t// in\n    tag_6:\n      tag_8\n      jump\t// in\n    tag_5:\n      mload(0x40)\n      tag_9\n      swap2\n      swap1\n      tag_10\n      jump\t// in\n    tag_9:\n      mload(0x40)\n      dup1\n      swap2\n      sub\n      swap1\n      return\n        /* \"contracts/2_0_TicTacToe.sol\":791:1608  function jugar(uint idPartida, uint horizontal, uint vertical) public {... */\n    tag_4:\n      tag_11\n      0x04\n      dup1\n      calldatasize\n      sub\n      dup2\n      add\n      swap1\n      tag_12\n      swap2\n      swap1\n      tag_13\n      jump\t// in\n    tag_12:\n      tag_14\n      jump\t// in\n    tag_11:\n      stop\n        /* \"contracts/2_0_TicTacToe.sol\":390:783  function crearPartida(address pJugador1, address pJugador2) public returns(uint){... */\n    tag_8:\n        /* \"contracts/2_0_TicTacToe.sol\":465:469  uint */\n      0x00\n        /* \"contracts/2_0_TicTacToe.sol\":526:535  pJugador2 */\n      dup2\n        /* \"contracts/2_0_TicTacToe.sol\":513:535  pJugador1 != pJugador2 */\n      0xffffffffffffffffffffffffffffffffffffffff\n      and\n        /* \"contracts/2_0_TicTacToe.sol\":513:522  pJugador1 */\n      dup4\n        /* \"contracts/2_0_TicTacToe.sol\":513:535  pJugador1 != pJugador2 */\n      0xffffffffffffffffffffffffffffffffffffffff\n      and\n      sub\n        /* \"contracts/2_0_TicTacToe.sol\":505:536  require(pJugador1 != pJugador2) */\n      tag_16\n      jumpi\n      0x00\n      dup1\n      revert\n    tag_16:\n        /* \"contracts/2_0_TicTacToe.sol\":572:586  uint idPartida */\n      0x00\n        /* \"contracts/2_0_TicTacToe.sol\":589:597  partidas */\n      dup1\n        /* \"contracts/2_0_TicTacToe.sol\":589:604  partidas.length */\n      dup1\n      sload\n      swap1\n      pop\n        /* \"contracts/2_0_TicTacToe.sol\":572:604  uint idPartida = partidas.length */\n      swap1\n      pop\n        /* \"contracts/2_0_TicTacToe.sol\":615:637  Partida memory partida */\n      tag_17\n      tag_18\n      jump\t// in\n    tag_17:\n        /* \"contracts/2_0_TicTacToe.sol\":667:676  pJugador1 */\n      dup5\n        /* \"contracts/2_0_TicTacToe.sol\":648:655  partida */\n      dup2\n        /* \"contracts/2_0_TicTacToe.sol\":648:664  partida.jugador1 */\n      0x00\n      add\n        /* \"contracts/2_0_TicTacToe.sol\":648:676  partida.jugador1 = pJugador1 */\n      swap1\n      0xffffffffffffffffffffffffffffffffffffffff\n      and\n      swap1\n      dup2\n      0xffffffffffffffffffffffffffffffffffffffff\n      and\n      dup2\n      mstore\n      pop\n      pop\n        /* \"contracts/2_0_TicTacToe.sol\":706:715  pJugador2 */\n      dup4\n        /* \"contracts/2_0_TicTacToe.sol\":687:694  partida */\n      dup2\n        /* \"contracts/2_0_TicTacToe.sol\":687:703  partida.jugador2 */\n      0x20\n      add\n        /* \"contracts/2_0_TicTacToe.sol\":687:715  partida.jugador2 = pJugador2 */\n      swap1\n      0xffffffffffffffffffffffffffffffffffffffff\n      and\n      swap1\n      dup2\n      0xffffffffffffffffffffffffffffffffffffffff\n      and\n      dup2\n      mstore\n      pop\n      pop\n        /* \"contracts/2_0_TicTacToe.sol\":726:734  partidas */\n      0x00\n        /* \"contracts/2_0_TicTacToe.sol\":740:747  partida */\n      dup2\n        /* \"contracts/2_0_TicTacToe.sol\":726:748  partidas.push(partida) */\n      swap1\n      dup1\n      0x01\n      dup2\n      sload\n      add\n      dup1\n      dup3\n      sstore\n      dup1\n      swap2\n      pop\n      pop\n      0x01\n      swap1\n      sub\n      swap1\n      0x00\n      mstore\n      keccak256(0x00, 0x20)\n      swap1\n      0x14\n      mul\n      add\n      0x00\n      swap1\n      swap2\n      swap1\n      swap2\n      swap1\n      swap2\n      pop\n      0x00\n      dup3\n      add\n      mload\n      dup2\n      0x00\n      add\n      exp(0x0100, 0x00)\n      dup2\n      sload\n      dup2\n      0xffffffffffffffffffffffffffffffffffffffff\n      mul\n      not\n      and\n      swap1\n      dup4\n      0xffffffffffffffffffffffffffffffffffffffff\n      and\n      mul\n      or\n      swap1\n      sstore\n      pop\n      0x20\n      dup3\n      add\n      mload\n      dup2\n      0x01\n      add\n      exp(0x0100, 0x00)\n      dup2\n      sload\n      dup2\n      0xffffffffffffffffffffffffffffffffffffffff\n      mul\n      not\n      and\n      swap1\n      dup4\n      0xffffffffffffffffffffffffffffffffffffffff\n      and\n      mul\n      or\n      swap1\n      sstore\n      pop\n      0x40\n      dup3\n      add\n      mload\n      dup2\n      0x02\n      add\n      exp(0x0100, 0x00)\n      dup2\n      sload\n      dup2\n      0xffffffffffffffffffffffffffffffffffffffff\n      mul\n      not\n      and\n      swap1\n      dup4\n      0xffffffffffffffffffffffffffffffffffffffff\n      and\n      mul\n      or\n      swap1\n      sstore\n      pop\n      0x60\n      dup3\n      add\n      mload\n      dup2\n      0x03\n      add\n      swap1\n      0x04\n      tag_20\n      swap3\n      swap2\n      swap1\n      tag_21\n      jump\t// in\n    tag_20:\n      pop\n      0x80\n      dup3\n      add\n      mload\n      dup2\n      0x13\n      add\n      exp(0x0100, 0x00)\n      dup2\n      sload\n      dup2\n      0xffffffffffffffffffffffffffffffffffffffff\n      mul\n      not\n      and\n      swap1\n      dup4\n      0xffffffffffffffffffffffffffffffffffffffff\n      and\n      mul\n      or\n      swap1\n      sstore\n      pop\n      pop\n      pop\n        /* \"contracts/2_0_TicTacToe.sol\":766:775  idPartida */\n      dup2\n        /* \"contracts/2_0_TicTacToe.sol\":759:775  return idPartida */\n      swap3\n      pop\n      pop\n      pop\n        /* \"contracts/2_0_TicTacToe.sol\":390:783  function crearPartida(address pJugador1, address pJugador2) public returns(uint){... */\n      swap3\n      swap2\n      pop\n      pop\n      jump\t// out\n        /* \"contracts/2_0_TicTacToe.sol\":791:1608  function jugar(uint idPartida, uint horizontal, uint vertical) public {... */\n    tag_14:\n        /* \"contracts/2_0_TicTacToe.sol\":896:918  Partida memory partida */\n      0x00\n        /* \"contracts/2_0_TicTacToe.sol\":921:929  partidas */\n      dup1\n        /* \"contracts/2_0_TicTacToe.sol\":930:939  idPartida */\n      dup5\n        /* \"contracts/2_0_TicTacToe.sol\":921:940  partidas[idPartida] */\n      dup2\n      sload\n      dup2\n      lt\n      tag_23\n      jumpi\n      tag_24\n      tag_25\n      jump\t// in\n    tag_24:\n    tag_23:\n      swap1\n      0x00\n      mstore\n      keccak256(0x00, 0x20)\n      swap1\n      0x14\n      mul\n      add\n        /* \"contracts/2_0_TicTacToe.sol\":896:940  Partida memory partida = partidas[idPartida] */\n      mload(0x40)\n      dup1\n      0xa0\n      add\n      0x40\n      mstore\n      swap1\n      dup2\n      0x00\n      dup3\n      add\n      0x00\n      swap1\n      sload\n      swap1\n      0x0100\n      exp\n      swap1\n      div\n      0xffffffffffffffffffffffffffffffffffffffff\n      and\n      0xffffffffffffffffffffffffffffffffffffffff\n      and\n      0xffffffffffffffffffffffffffffffffffffffff\n      and\n      dup2\n      mstore\n      0x20\n      add\n      0x01\n      dup3\n      add\n      0x00\n      swap1\n      sload\n      swap1\n      0x0100\n      exp\n      swap1\n      div\n      0xffffffffffffffffffffffffffffffffffffffff\n      and\n      0xffffffffffffffffffffffffffffffffffffffff\n      and\n      0xffffffffffffffffffffffffffffffffffffffff\n      and\n      dup2\n      mstore\n      0x20\n      add\n      0x02\n      dup3\n      add\n      0x00\n      swap1\n      sload\n      swap1\n      0x0100\n      exp\n      swap1\n      div\n      0xffffffffffffffffffffffffffffffffffffffff\n      and\n      0xffffffffffffffffffffffffffffffffffffffff\n      and\n      0xffffffffffffffffffffffffffffffffffffffff\n      and\n      dup2\n      mstore\n      0x20\n      add\n      0x03\n      dup3\n      add\n      0x04\n      dup1\n      0x20\n      mul\n      mload(0x40)\n      swap1\n      dup2\n      add\n      0x40\n      mstore\n      dup1\n      swap3\n      swap2\n      swap1\n      0x00\n      swap1\n    tag_27:\n      dup3\n      dup3\n      lt\n      iszero\n      tag_28\n      jumpi\n      dup4\n      dup3\n      0x04\n      mul\n      add\n      0x04\n      dup1\n      0x20\n      mul\n      mload(0x40)\n      swap1\n      dup2\n      add\n      0x40\n      mstore\n      dup1\n      swap3\n      swap2\n      swap1\n      dup3\n      0x04\n      dup1\n      iszero\n      tag_30\n      jumpi\n      0x20\n      mul\n      dup3\n      add\n      swap2\n    tag_31:\n      dup2\n      sload\n      dup2\n      mstore\n      0x20\n      add\n      swap1\n      0x01\n      add\n      swap1\n      dup1\n      dup4\n      gt\n      tag_31\n      jumpi\n    tag_30:\n      pop\n      pop\n      pop\n      pop\n      pop\n      dup2\n      mstore\n      0x20\n      add\n      swap1\n      0x01\n      add\n      swap1\n      jump(tag_27)\n    tag_28:\n      pop\n      pop\n      pop\n      pop\n      dup2\n      mstore\n      0x20\n      add\n      0x13\n      dup3\n      add\n      0x00\n      swap1\n      sload\n      swap1\n      0x0100\n      exp\n      swap1\n      div\n      0xffffffffffffffffffffffffffffffffffffffff\n      and\n      0xffffffffffffffffffffffffffffffffffffffff\n      and\n      0xffffffffffffffffffffffffffffffffffffffff\n      and\n      dup2\n      mstore\n      pop\n      pop\n      swap1\n      pop\n        /* \"contracts/2_0_TicTacToe.sol\":973:980  partida */\n      dup1\n        /* \"contracts/2_0_TicTacToe.sol\":973:989  partida.jugador1 */\n      0x00\n      add\n      mload\n        /* \"contracts/2_0_TicTacToe.sol\":959:989  msg.sender == partida.jugador1 */\n      0xffffffffffffffffffffffffffffffffffffffff\n      and\n        /* \"contracts/2_0_TicTacToe.sol\":959:969  msg.sender */\n      caller\n        /* \"contracts/2_0_TicTacToe.sol\":959:989  msg.sender == partida.jugador1 */\n      0xffffffffffffffffffffffffffffffffffffffff\n      and\n      eq\n        /* \"contracts/2_0_TicTacToe.sol\":959:1023  msg.sender == partida.jugador1 || msg.sender == partida.jugador2 */\n      dup1\n      tag_32\n      jumpi\n      pop\n        /* \"contracts/2_0_TicTacToe.sol\":1007:1014  partida */\n      dup1\n        /* \"contracts/2_0_TicTacToe.sol\":1007:1023  partida.jugador2 */\n      0x20\n      add\n      mload\n        /* \"contracts/2_0_TicTacToe.sol\":993:1023  msg.sender == partida.jugador2 */\n      0xffffffffffffffffffffffffffffffffffffffff\n      and\n        /* \"contracts/2_0_TicTacToe.sol\":993:1003  msg.sender */\n      caller\n        /* \"contracts/2_0_TicTacToe.sol\":993:1023  msg.sender == partida.jugador2 */\n      0xffffffffffffffffffffffffffffffffffffffff\n      and\n      eq\n        /* \"contracts/2_0_TicTacToe.sol\":959:1023  msg.sender == partida.jugador1 || msg.sender == partida.jugador2 */\n    tag_32:\n        /* \"contracts/2_0_TicTacToe.sol\":951:1024  require(msg.sender == partida.jugador1 || msg.sender == partida.jugador2) */\n      tag_33\n      jumpi\n      0x00\n      dup1\n      revert\n    tag_33:\n        /* \"contracts/2_0_TicTacToe.sol\":1056:1057  0 */\n      0x00\n        /* \"contracts/2_0_TicTacToe.sol\":1043:1053  horizontal */\n      dup4\n        /* \"contracts/2_0_TicTacToe.sol\":1043:1057  horizontal > 0 */\n      gt\n        /* \"contracts/2_0_TicTacToe.sol\":1043:1075  horizontal > 0 && horizontal < 4 */\n      dup1\n      iszero\n      tag_34\n      jumpi\n      pop\n        /* \"contracts/2_0_TicTacToe.sol\":1074:1075  4 */\n      0x04\n        /* \"contracts/2_0_TicTacToe.sol\":1061:1071  horizontal */\n      dup4\n        /* \"contracts/2_0_TicTacToe.sol\":1061:1075  horizontal < 4 */\n      lt\n        /* \"contracts/2_0_TicTacToe.sol\":1043:1075  horizontal > 0 && horizontal < 4 */\n    tag_34:\n        /* \"contracts/2_0_TicTacToe.sol\":1035:1076  require(horizontal > 0 && horizontal < 4) */\n      tag_35\n      jumpi\n      0x00\n      dup1\n      revert\n    tag_35:\n        /* \"contracts/2_0_TicTacToe.sol\":1106:1107  0 */\n      0x00\n        /* \"contracts/2_0_TicTacToe.sol\":1095:1103  vertical */\n      dup3\n        /* \"contracts/2_0_TicTacToe.sol\":1095:1107  vertical > 0 */\n      gt\n        /* \"contracts/2_0_TicTacToe.sol\":1095:1123  vertical > 0 && vertical < 4 */\n      dup1\n      iszero\n      tag_36\n      jumpi\n      pop\n        /* \"contracts/2_0_TicTacToe.sol\":1122:1123  4 */\n      0x04\n        /* \"contracts/2_0_TicTacToe.sol\":1111:1119  vertical */\n      dup3\n        /* \"contracts/2_0_TicTacToe.sol\":1111:1123  vertical < 4 */\n      lt\n        /* \"contracts/2_0_TicTacToe.sol\":1095:1123  vertical > 0 && vertical < 4 */\n    tag_36:\n        /* \"contracts/2_0_TicTacToe.sol\":1087:1124  require(vertical > 0 && vertical < 4) */\n      tag_37\n      jumpi\n      0x00\n      dup1\n      revert\n    tag_37:\n        /* \"contracts/2_0_TicTacToe.sol\":1157:1164  partida */\n      dup1\n        /* \"contracts/2_0_TicTacToe.sol\":1157:1176  partida.ultimoTurno */\n      0x80\n      add\n      mload\n        /* \"contracts/2_0_TicTacToe.sol\":1143:1176  msg.sender != partida.ultimoTurno */\n      0xffffffffffffffffffffffffffffffffffffffff\n      and\n        /* \"contracts/2_0_TicTacToe.sol\":1143:1153  msg.sender */\n      caller\n        /* \"contracts/2_0_TicTacToe.sol\":1143:1176  msg.sender != partida.ultimoTurno */\n      0xffffffffffffffffffffffffffffffffffffffff\n      and\n      sub\n        /* \"contracts/2_0_TicTacToe.sol\":1135:1177  require(msg.sender != partida.ultimoTurno) */\n      tag_38\n      jumpi\n      0x00\n      dup1\n      revert\n    tag_38:\n        /* \"contracts/2_0_TicTacToe.sol\":1237:1238  0 */\n      0x00\n        /* \"contracts/2_0_TicTacToe.sol\":1196:1203  partida */\n      dup2\n        /* \"contracts/2_0_TicTacToe.sol\":1196:1211  partida.jugadas */\n      0x60\n      add\n      mload\n        /* \"contracts/2_0_TicTacToe.sol\":1212:1222  horizontal */\n      dup5\n        /* \"contracts/2_0_TicTacToe.sol\":1196:1223  partida.jugadas[horizontal] */\n      0x04\n      dup2\n      lt\n      tag_39\n      jumpi\n      tag_40\n      tag_25\n      jump\t// in\n    tag_40:\n    tag_39:\n      0x20\n      mul\n      add\n      mload\n        /* \"contracts/2_0_TicTacToe.sol\":1224:1232  vertical */\n      dup4\n        /* \"contracts/2_0_TicTacToe.sol\":1196:1233  partida.jugadas[horizontal][vertical] */\n      0x04\n      dup2\n      lt\n      tag_41\n      jumpi\n      tag_42\n      tag_25\n      jump\t// in\n    tag_42:\n    tag_41:\n      0x20\n      mul\n      add\n      mload\n        /* \"contracts/2_0_TicTacToe.sol\":1196:1238  partida.jugadas[horizontal][vertical] == 0 */\n      eq\n        /* \"contracts/2_0_TicTacToe.sol\":1188:1239  require(partida.jugadas[horizontal][vertical] == 0) */\n      tag_43\n      jumpi\n      0x00\n      dup1\n      revert\n    tag_43:\n        /* \"contracts/2_0_TicTacToe.sol\":1259:1284  partidaTerminada(partida) */\n      tag_44\n        /* \"contracts/2_0_TicTacToe.sol\":1276:1283  partida */\n      dup2\n        /* \"contracts/2_0_TicTacToe.sol\":1259:1275  partidaTerminada */\n      tag_45\n        /* \"contracts/2_0_TicTacToe.sol\":1259:1284  partidaTerminada(partida) */\n      jump\t// in\n    tag_44:\n        /* \"contracts/2_0_TicTacToe.sol\":1258:1284  !partidaTerminada(partida) */\n      iszero\n        /* \"contracts/2_0_TicTacToe.sol\":1250:1285  require(!partidaTerminada(partida)) */\n      tag_46\n      jumpi\n      0x00\n      dup1\n      revert\n    tag_46:\n        /* \"contracts/2_0_TicTacToe.sol\":1327:1377  guardarMovimiento(idPartida, horizontal, vertical) */\n      tag_47\n        /* \"contracts/2_0_TicTacToe.sol\":1345:1354  idPartida */\n      dup5\n        /* \"contracts/2_0_TicTacToe.sol\":1356:1366  horizontal */\n      dup5\n        /* \"contracts/2_0_TicTacToe.sol\":1368:1376  vertical */\n      dup5\n        /* \"contracts/2_0_TicTacToe.sol\":1327:1344  guardarMovimiento */\n      tag_48\n        /* \"contracts/2_0_TicTacToe.sol\":1327:1377  guardarMovimiento(idPartida, horizontal, vertical) */\n      jump\t// in\n    tag_47:\n        /* \"contracts/2_0_TicTacToe.sol\":1452:1464  uint ganador */\n      0x00\n        /* \"contracts/2_0_TicTacToe.sol\":1467:1490  obtenerGanador(partida) */\n      tag_49\n        /* \"contracts/2_0_TicTacToe.sol\":1482:1489  partida */\n      dup3\n        /* \"contracts/2_0_TicTacToe.sol\":1467:1481  obtenerGanador */\n      tag_50\n        /* \"contracts/2_0_TicTacToe.sol\":1467:1490  obtenerGanador(partida) */\n      jump\t// in\n    tag_49:\n        /* \"contracts/2_0_TicTacToe.sol\":1452:1490  uint ganador = obtenerGanador(partida) */\n      swap1\n      pop\n        /* \"contracts/2_0_TicTacToe.sol\":1501:1535  guardarGanador(ganador, idPartida) */\n      tag_51\n        /* \"contracts/2_0_TicTacToe.sol\":1516:1523  ganador */\n      dup2\n        /* \"contracts/2_0_TicTacToe.sol\":1525:1534  idPartida */\n      dup7\n        /* \"contracts/2_0_TicTacToe.sol\":1501:1515  guardarGanador */\n      tag_52\n        /* \"contracts/2_0_TicTacToe.sol\":1501:1535  guardarGanador(ganador, idPartida) */\n      jump\t// in\n    tag_51:\n        /* \"contracts/2_0_TicTacToe.sol\":1590:1600  msg.sender */\n      caller\n        /* \"contracts/2_0_TicTacToe.sol\":1556:1564  partidas */\n      0x00\n        /* \"contracts/2_0_TicTacToe.sol\":1565:1574  idPartida */\n      dup7\n        /* \"contracts/2_0_TicTacToe.sol\":1556:1575  partidas[idPartida] */\n      dup2\n      sload\n      dup2\n      lt\n      tag_53\n      jumpi\n      tag_54\n      tag_25\n      jump\t// in\n    tag_54:\n    tag_53:\n      swap1\n      0x00\n      mstore\n      keccak256(0x00, 0x20)\n      swap1\n      0x14\n      mul\n      add\n        /* \"contracts/2_0_TicTacToe.sol\":1556:1587  partidas[idPartida].ultimoTurno */\n      0x13\n      add\n      0x00\n        /* \"contracts/2_0_TicTacToe.sol\":1556:1600  partidas[idPartida].ultimoTurno = msg.sender */\n      0x0100\n      exp\n      dup2\n      sload\n      dup2\n      0xffffffffffffffffffffffffffffffffffffffff\n      mul\n      not\n      and\n      swap1\n      dup4\n      0xffffffffffffffffffffffffffffffffffffffff\n      and\n      mul\n      or\n      swap1\n      sstore\n      pop\n        /* \"contracts/2_0_TicTacToe.sol\":861:1608  {... */\n      pop\n      pop\n        /* \"contracts/2_0_TicTacToe.sol\":791:1608  function jugar(uint idPartida, uint horizontal, uint vertical) public {... */\n      pop\n      pop\n      pop\n      jump\t// out\n        /* \"contracts/2_0_TicTacToe.sol\":3054:3379  function partidaTerminada(Partida memory partida) private pure returns(bool) {... */\n    tag_45:\n        /* \"contracts/2_0_TicTacToe.sol\":3125:3129  bool */\n      0x00\n        /* \"contracts/2_0_TicTacToe.sol\":3172:3173  0 */\n      dup1\n        /* \"contracts/2_0_TicTacToe.sol\":3145:3174  partida.ganador != address(0) */\n      0xffffffffffffffffffffffffffffffffffffffff\n      and\n        /* \"contracts/2_0_TicTacToe.sol\":3145:3152  partida */\n      dup3\n        /* \"contracts/2_0_TicTacToe.sol\":3145:3160  partida.ganador */\n      0x40\n      add\n      mload\n        /* \"contracts/2_0_TicTacToe.sol\":3145:3174  partida.ganador != address(0) */\n      0xffffffffffffffffffffffffffffffffffffffff\n      and\n      eq\n        /* \"contracts/2_0_TicTacToe.sol\":3142:3187  if(partida.ganador != address(0)) return true */\n      tag_57\n      jumpi\n        /* \"contracts/2_0_TicTacToe.sol\":3183:3187  true */\n      0x01\n        /* \"contracts/2_0_TicTacToe.sol\":3176:3187  return true */\n      swap1\n      pop\n      jump(tag_56)\n        /* \"contracts/2_0_TicTacToe.sol\":3142:3187  if(partida.ganador != address(0)) return true */\n    tag_57:\n        /* \"contracts/2_0_TicTacToe.sol\":3204:3210  uint x */\n      0x00\n        /* \"contracts/2_0_TicTacToe.sol\":3211:3212  1 */\n      0x01\n        /* \"contracts/2_0_TicTacToe.sol\":3204:3212  uint x=1 */\n      swap1\n      pop\n        /* \"contracts/2_0_TicTacToe.sol\":3200:3350  for(uint x=1; x<4; x++){... */\n    tag_58:\n        /* \"contracts/2_0_TicTacToe.sol\":3216:3217  4 */\n      0x04\n        /* \"contracts/2_0_TicTacToe.sol\":3214:3215  x */\n      dup2\n        /* \"contracts/2_0_TicTacToe.sol\":3214:3217  x<4 */\n      lt\n        /* \"contracts/2_0_TicTacToe.sol\":3200:3350  for(uint x=1; x<4; x++){... */\n      iszero\n      tag_59\n      jumpi\n        /* \"contracts/2_0_TicTacToe.sol\":3242:3248  uint y */\n      0x00\n        /* \"contracts/2_0_TicTacToe.sol\":3249:3250  1 */\n      0x01\n        /* \"contracts/2_0_TicTacToe.sol\":3242:3250  uint y=1 */\n      swap1\n      pop\n        /* \"contracts/2_0_TicTacToe.sol\":3238:3339  for(uint y=1; y<4; y++){... */\n    tag_61:\n        /* \"contracts/2_0_TicTacToe.sol\":3254:3255  4 */\n      0x04\n        /* \"contracts/2_0_TicTacToe.sol\":3252:3253  y */\n      dup2\n        /* \"contracts/2_0_TicTacToe.sol\":3252:3255  y<4 */\n      lt\n        /* \"contracts/2_0_TicTacToe.sol\":3238:3339  for(uint y=1; y<4; y++){... */\n      iszero\n      tag_62\n      jumpi\n        /* \"contracts/2_0_TicTacToe.sol\":3308:3309  0 */\n      0x00\n        /* \"contracts/2_0_TicTacToe.sol\":3283:3290  partida */\n      dup5\n        /* \"contracts/2_0_TicTacToe.sol\":3283:3298  partida.jugadas */\n      0x60\n      add\n      mload\n        /* \"contracts/2_0_TicTacToe.sol\":3299:3300  x */\n      dup4\n        /* \"contracts/2_0_TicTacToe.sol\":3283:3301  partida.jugadas[x] */\n      0x04\n      dup2\n      lt\n      tag_64\n      jumpi\n      tag_65\n      tag_25\n      jump\t// in\n    tag_65:\n    tag_64:\n      0x20\n      mul\n      add\n      mload\n        /* \"contracts/2_0_TicTacToe.sol\":3302:3303  y */\n      dup3\n        /* \"contracts/2_0_TicTacToe.sol\":3283:3304  partida.jugadas[x][y] */\n      0x04\n      dup2\n      lt\n      tag_66\n      jumpi\n      tag_67\n      tag_25\n      jump\t// in\n    tag_67:\n    tag_66:\n      0x20\n      mul\n      add\n      mload\n        /* \"contracts/2_0_TicTacToe.sol\":3283:3309  partida.jugadas[x][y] == 0 */\n      sub\n        /* \"contracts/2_0_TicTacToe.sol\":3280:3323  if(partida.jugadas[x][y] == 0) return false */\n      tag_68\n      jumpi\n        /* \"contracts/2_0_TicTacToe.sol\":3318:3323  false */\n      0x00\n        /* \"contracts/2_0_TicTacToe.sol\":3311:3323  return false */\n      swap3\n      pop\n      pop\n      pop\n      jump(tag_56)\n        /* \"contracts/2_0_TicTacToe.sol\":3280:3323  if(partida.jugadas[x][y] == 0) return false */\n    tag_68:\n        /* \"contracts/2_0_TicTacToe.sol\":3257:3260  y++ */\n      dup1\n      dup1\n      0x01\n      add\n      swap2\n      pop\n      pop\n        /* \"contracts/2_0_TicTacToe.sol\":3238:3339  for(uint y=1; y<4; y++){... */\n      jump(tag_61)\n    tag_62:\n      pop\n        /* \"contracts/2_0_TicTacToe.sol\":3219:3222  x++ */\n      dup1\n      dup1\n      0x01\n      add\n      swap2\n      pop\n      pop\n        /* \"contracts/2_0_TicTacToe.sol\":3200:3350  for(uint x=1; x<4; x++){... */\n      jump(tag_58)\n    tag_59:\n      pop\n        /* \"contracts/2_0_TicTacToe.sol\":3367:3371  true */\n      0x01\n        /* \"contracts/2_0_TicTacToe.sol\":3360:3371  return true */\n      swap1\n      pop\n        /* \"contracts/2_0_TicTacToe.sol\":3054:3379  function partidaTerminada(Partida memory partida) private pure returns(bool) {... */\n    tag_56:\n      swap2\n      swap1\n      pop\n      jump\t// out\n        /* \"contracts/2_0_TicTacToe.sol\":1616:1938  function guardarMovimiento(uint idPartida, uint horizontal, uint vertical) private {... */\n    tag_48:\n        /* \"contracts/2_0_TicTacToe.sol\":1727:1735  partidas */\n      0x00\n        /* \"contracts/2_0_TicTacToe.sol\":1736:1745  idPartida */\n      dup4\n        /* \"contracts/2_0_TicTacToe.sol\":1727:1746  partidas[idPartida] */\n      dup2\n      sload\n      dup2\n      lt\n      tag_70\n      jumpi\n      tag_71\n      tag_25\n      jump\t// in\n    tag_71:\n    tag_70:\n      swap1\n      0x00\n      mstore\n      keccak256(0x00, 0x20)\n      swap1\n      0x14\n      mul\n      add\n        /* \"contracts/2_0_TicTacToe.sol\":1727:1755  partidas[idPartida].jugador1 */\n      0x00\n      add\n      0x00\n      swap1\n      sload\n      swap1\n      0x0100\n      exp\n      swap1\n      div\n      0xffffffffffffffffffffffffffffffffffffffff\n      and\n        /* \"contracts/2_0_TicTacToe.sol\":1713:1755  msg.sender == partidas[idPartida].jugador1 */\n      0xffffffffffffffffffffffffffffffffffffffff\n      and\n        /* \"contracts/2_0_TicTacToe.sol\":1713:1723  msg.sender */\n      caller\n        /* \"contracts/2_0_TicTacToe.sol\":1713:1755  msg.sender == partidas[idPartida].jugador1 */\n      0xffffffffffffffffffffffffffffffffffffffff\n      and\n      sub\n        /* \"contracts/2_0_TicTacToe.sol\":1710:1931  if(msg.sender == partidas[idPartida].jugador1){... */\n      tag_73\n      jumpi\n        /* \"contracts/2_0_TicTacToe.sol\":1823:1824  1 */\n      0x01\n        /* \"contracts/2_0_TicTacToe.sol\":1771:1779  partidas */\n      0x00\n        /* \"contracts/2_0_TicTacToe.sol\":1780:1789  idPartida */\n      dup5\n        /* \"contracts/2_0_TicTacToe.sol\":1771:1790  partidas[idPartida] */\n      dup2\n      sload\n      dup2\n      lt\n      tag_74\n      jumpi\n      tag_75\n      tag_25\n      jump\t// in\n    tag_75:\n    tag_74:\n      swap1\n      0x00\n      mstore\n      keccak256(0x00, 0x20)\n      swap1\n      0x14\n      mul\n      add\n        /* \"contracts/2_0_TicTacToe.sol\":1771:1798  partidas[idPartida].jugadas */\n      0x03\n      add\n        /* \"contracts/2_0_TicTacToe.sol\":1799:1809  horizontal */\n      dup4\n        /* \"contracts/2_0_TicTacToe.sol\":1771:1810  partidas[idPartida].jugadas[horizontal] */\n      0x04\n      dup2\n      lt\n      tag_77\n      jumpi\n      tag_78\n      tag_25\n      jump\t// in\n    tag_78:\n    tag_77:\n      0x04\n      mul\n      add\n        /* \"contracts/2_0_TicTacToe.sol\":1811:1819  vertical */\n      dup3\n        /* \"contracts/2_0_TicTacToe.sol\":1771:1820  partidas[idPartida].jugadas[horizontal][vertical] */\n      0x04\n      dup2\n      lt\n      tag_80\n      jumpi\n      tag_81\n      tag_25\n      jump\t// in\n    tag_81:\n    tag_80:\n      add\n        /* \"contracts/2_0_TicTacToe.sol\":1771:1824  partidas[idPartida].jugadas[horizontal][vertical] = 1 */\n      dup2\n      swap1\n      sstore\n      pop\n        /* \"contracts/2_0_TicTacToe.sol\":1710:1931  if(msg.sender == partidas[idPartida].jugador1){... */\n      jump(tag_83)\n    tag_73:\n        /* \"contracts/2_0_TicTacToe.sol\":1918:1919  2 */\n      0x02\n        /* \"contracts/2_0_TicTacToe.sol\":1866:1874  partidas */\n      0x00\n        /* \"contracts/2_0_TicTacToe.sol\":1875:1884  idPartida */\n      dup5\n        /* \"contracts/2_0_TicTacToe.sol\":1866:1885  partidas[idPartida] */\n      dup2\n      sload\n      dup2\n      lt\n      tag_84\n      jumpi\n      tag_85\n      tag_25\n      jump\t// in\n    tag_85:\n    tag_84:\n      swap1\n      0x00\n      mstore\n      keccak256(0x00, 0x20)\n      swap1\n      0x14\n      mul\n      add\n        /* \"contracts/2_0_TicTacToe.sol\":1866:1893  partidas[idPartida].jugadas */\n      0x03\n      add\n        /* \"contracts/2_0_TicTacToe.sol\":1894:1904  horizontal */\n      dup4\n        /* \"contracts/2_0_TicTacToe.sol\":1866:1905  partidas[idPartida].jugadas[horizontal] */\n      0x04\n      dup2\n      lt\n      tag_87\n      jumpi\n      tag_88\n      tag_25\n      jump\t// in\n    tag_88:\n    tag_87:\n      0x04\n      mul\n      add\n        /* \"contracts/2_0_TicTacToe.sol\":1906:1914  vertical */\n      dup3\n        /* \"contracts/2_0_TicTacToe.sol\":1866:1915  partidas[idPartida].jugadas[horizontal][vertical] */\n      0x04\n      dup2\n      lt\n      tag_90\n      jumpi\n      tag_91\n      tag_25\n      jump\t// in\n    tag_91:\n    tag_90:\n      add\n        /* \"contracts/2_0_TicTacToe.sol\":1866:1919  partidas[idPartida].jugadas[horizontal][vertical] = 2 */\n      dup2\n      swap1\n      sstore\n      pop\n        /* \"contracts/2_0_TicTacToe.sol\":1710:1931  if(msg.sender == partidas[idPartida].jugador1){... */\n    tag_83:\n        /* \"contracts/2_0_TicTacToe.sol\":1616:1938  function guardarMovimiento(uint idPartida, uint horizontal, uint vertical) private {... */\n      pop\n      pop\n      pop\n      jump\t// out\n        /* \"contracts/2_0_TicTacToe.sol\":1946:2143  function obtenerGanador(Partida memory partida) private pure returns(uint) {... */\n    tag_50:\n        /* \"contracts/2_0_TicTacToe.sol\":2015:2019  uint */\n      0x00\n        /* \"contracts/2_0_TicTacToe.sol\":2062:2074  uint ganador */\n      dup1\n        /* \"contracts/2_0_TicTacToe.sol\":2077:2110  checarLinea(partida, 1,1,2,2,3,3) */\n      tag_94\n        /* \"contracts/2_0_TicTacToe.sol\":2089:2096  partida */\n      dup4\n        /* \"contracts/2_0_TicTacToe.sol\":2098:2099  1 */\n      0x01\n        /* \"contracts/2_0_TicTacToe.sol\":2100:2101  1 */\n      dup1\n        /* \"contracts/2_0_TicTacToe.sol\":2102:2103  2 */\n      0x02\n        /* \"contracts/2_0_TicTacToe.sol\":2104:2105  2 */\n      dup1\n        /* \"contracts/2_0_TicTacToe.sol\":2106:2107  3 */\n      0x03\n        /* \"contracts/2_0_TicTacToe.sol\":2108:2109  3 */\n      dup1\n        /* \"contracts/2_0_TicTacToe.sol\":2077:2088  checarLinea */\n      tag_95\n        /* \"contracts/2_0_TicTacToe.sol\":2077:2110  checarLinea(partida, 1,1,2,2,3,3) */\n      jump\t// in\n    tag_94:\n        /* \"contracts/2_0_TicTacToe.sol\":2062:2110  uint ganador = checarLinea(partida, 1,1,2,2,3,3) */\n      swap1\n      pop\n        /* \"contracts/2_0_TicTacToe.sol\":2128:2135  ganador */\n      dup1\n        /* \"contracts/2_0_TicTacToe.sol\":2121:2135  return ganador */\n      swap2\n      pop\n      pop\n        /* \"contracts/2_0_TicTacToe.sol\":1946:2143  function obtenerGanador(Partida memory partida) private pure returns(uint) {... */\n      swap2\n      swap1\n      pop\n      jump\t// out\n        /* \"contracts/2_0_TicTacToe.sol\":2525:2876  function guardarGanador(uint ganador, uint idPartida) private {... */\n    tag_52:\n        /* \"contracts/2_0_TicTacToe.sol\":2612:2613  0 */\n      0x00\n        /* \"contracts/2_0_TicTacToe.sol\":2601:2608  ganador */\n      dup3\n        /* \"contracts/2_0_TicTacToe.sol\":2601:2613  ganador != 0 */\n      eq\n        /* \"contracts/2_0_TicTacToe.sol\":2598:2861  if(ganador != 0){... */\n      tag_97\n      jumpi\n        /* \"contracts/2_0_TicTacToe.sol\":2643:2644  1 */\n      0x01\n        /* \"contracts/2_0_TicTacToe.sol\":2632:2639  ganador */\n      dup3\n        /* \"contracts/2_0_TicTacToe.sol\":2632:2644  ganador == 1 */\n      sub\n        /* \"contracts/2_0_TicTacToe.sol\":2629:2850  if(ganador == 1){... */\n      tag_98\n      jumpi\n        /* \"contracts/2_0_TicTacToe.sol\":2694:2702  partidas */\n      0x00\n        /* \"contracts/2_0_TicTacToe.sol\":2703:2712  idPartida */\n      dup2\n        /* \"contracts/2_0_TicTacToe.sol\":2694:2713  partidas[idPartida] */\n      dup2\n      sload\n      dup2\n      lt\n      tag_99\n      jumpi\n      tag_100\n      tag_25\n      jump\t// in\n    tag_100:\n    tag_99:\n      swap1\n      0x00\n      mstore\n      keccak256(0x00, 0x20)\n      swap1\n      0x14\n      mul\n      add\n        /* \"contracts/2_0_TicTacToe.sol\":2694:2722  partidas[idPartida].jugador1 */\n      0x00\n      add\n      0x00\n      swap1\n      sload\n      swap1\n      0x0100\n      exp\n      swap1\n      div\n      0xffffffffffffffffffffffffffffffffffffffff\n      and\n        /* \"contracts/2_0_TicTacToe.sol\":2664:2672  partidas */\n      0x00\n        /* \"contracts/2_0_TicTacToe.sol\":2673:2682  idPartida */\n      dup3\n        /* \"contracts/2_0_TicTacToe.sol\":2664:2683  partidas[idPartida] */\n      dup2\n      sload\n      dup2\n      lt\n      tag_102\n      jumpi\n      tag_103\n      tag_25\n      jump\t// in\n    tag_103:\n    tag_102:\n      swap1\n      0x00\n      mstore\n      keccak256(0x00, 0x20)\n      swap1\n      0x14\n      mul\n      add\n        /* \"contracts/2_0_TicTacToe.sol\":2664:2691  partidas[idPartida].ganador */\n      0x02\n      add\n      0x00\n        /* \"contracts/2_0_TicTacToe.sol\":2664:2722  partidas[idPartida].ganador = partidas[idPartida].jugador1 */\n      0x0100\n      exp\n      dup2\n      sload\n      dup2\n      0xffffffffffffffffffffffffffffffffffffffff\n      mul\n      not\n      and\n      swap1\n      dup4\n      0xffffffffffffffffffffffffffffffffffffffff\n      and\n      mul\n      or\n      swap1\n      sstore\n      pop\n        /* \"contracts/2_0_TicTacToe.sol\":2629:2850  if(ganador == 1){... */\n      jump(tag_105)\n    tag_98:\n        /* \"contracts/2_0_TicTacToe.sol\":2806:2814  partidas */\n      0x00\n        /* \"contracts/2_0_TicTacToe.sol\":2815:2824  idPartida */\n      dup2\n        /* \"contracts/2_0_TicTacToe.sol\":2806:2825  partidas[idPartida] */\n      dup2\n      sload\n      dup2\n      lt\n      tag_106\n      jumpi\n      tag_107\n      tag_25\n      jump\t// in\n    tag_107:\n    tag_106:\n      swap1\n      0x00\n      mstore\n      keccak256(0x00, 0x20)\n      swap1\n      0x14\n      mul\n      add\n        /* \"contracts/2_0_TicTacToe.sol\":2806:2834  partidas[idPartida].jugador2 */\n      0x01\n      add\n      0x00\n      swap1\n      sload\n      swap1\n      0x0100\n      exp\n      swap1\n      div\n      0xffffffffffffffffffffffffffffffffffffffff\n      and\n        /* \"contracts/2_0_TicTacToe.sol\":2776:2784  partidas */\n      0x00\n        /* \"contracts/2_0_TicTacToe.sol\":2785:2794  idPartida */\n      dup3\n        /* \"contracts/2_0_TicTacToe.sol\":2776:2795  partidas[idPartida] */\n      dup2\n      sload\n      dup2\n      lt\n      tag_109\n      jumpi\n      tag_110\n      tag_25\n      jump\t// in\n    tag_110:\n    tag_109:\n      swap1\n      0x00\n      mstore\n      keccak256(0x00, 0x20)\n      swap1\n      0x14\n      mul\n      add\n        /* \"contracts/2_0_TicTacToe.sol\":2776:2803  partidas[idPartida].ganador */\n      0x02\n      add\n      0x00\n        /* \"contracts/2_0_TicTacToe.sol\":2776:2834  partidas[idPartida].ganador = partidas[idPartida].jugador2 */\n      0x0100\n      exp\n      dup2\n      sload\n      dup2\n      0xffffffffffffffffffffffffffffffffffffffff\n      mul\n      not\n      and\n      swap1\n      dup4\n      0xffffffffffffffffffffffffffffffffffffffff\n      and\n      mul\n      or\n      swap1\n      sstore\n      pop\n        /* \"contracts/2_0_TicTacToe.sol\":2629:2850  if(ganador == 1){... */\n    tag_105:\n        /* \"contracts/2_0_TicTacToe.sol\":2598:2861  if(ganador != 0){... */\n    tag_97:\n        /* \"contracts/2_0_TicTacToe.sol\":2525:2876  function guardarGanador(uint ganador, uint idPartida) private {... */\n      pop\n      pop\n      jump\t// out\n        /* \"contracts/2_0_TicTacToe.sol\":2149:2517  function checarLinea(Partida memory partida, uint x1, uint y1, uint x2, uint y2, uint x3, uint y3) private pure returns(uint){... */\n    tag_95:\n        /* \"contracts/2_0_TicTacToe.sol\":2269:2273  uint */\n      0x00\n        /* \"contracts/2_0_TicTacToe.sol\":2315:2322  partida */\n      dup8\n        /* \"contracts/2_0_TicTacToe.sol\":2315:2330  partida.jugadas */\n      0x60\n      add\n      mload\n        /* \"contracts/2_0_TicTacToe.sol\":2331:2333  x2 */\n      dup6\n        /* \"contracts/2_0_TicTacToe.sol\":2315:2334  partida.jugadas[x2] */\n      0x04\n      dup2\n      lt\n      tag_113\n      jumpi\n      tag_114\n      tag_25\n      jump\t// in\n    tag_114:\n    tag_113:\n      0x20\n      mul\n      add\n      mload\n        /* \"contracts/2_0_TicTacToe.sol\":2335:2337  y2 */\n      dup5\n        /* \"contracts/2_0_TicTacToe.sol\":2315:2338  partida.jugadas[x2][y2] */\n      0x04\n      dup2\n      lt\n      tag_115\n      jumpi\n      tag_116\n      tag_25\n      jump\t// in\n    tag_116:\n    tag_115:\n      0x20\n      mul\n      add\n      mload\n        /* \"contracts/2_0_TicTacToe.sol\":2288:2295  partida */\n      dup9\n        /* \"contracts/2_0_TicTacToe.sol\":2288:2303  partida.jugadas */\n      0x60\n      add\n      mload\n        /* \"contracts/2_0_TicTacToe.sol\":2304:2306  x1 */\n      dup9\n        /* \"contracts/2_0_TicTacToe.sol\":2288:2307  partida.jugadas[x1] */\n      0x04\n      dup2\n      lt\n      tag_117\n      jumpi\n      tag_118\n      tag_25\n      jump\t// in\n    tag_118:\n    tag_117:\n      0x20\n      mul\n      add\n      mload\n        /* \"contracts/2_0_TicTacToe.sol\":2308:2310  y1 */\n      dup8\n        /* \"contracts/2_0_TicTacToe.sol\":2288:2311  partida.jugadas[x1][y1] */\n      0x04\n      dup2\n      lt\n      tag_119\n      jumpi\n      tag_120\n      tag_25\n      jump\t// in\n    tag_120:\n    tag_119:\n      0x20\n      mul\n      add\n      mload\n        /* \"contracts/2_0_TicTacToe.sol\":2288:2338  partida.jugadas[x1][y1] == partida.jugadas[x2][y2] */\n      eq\n        /* \"contracts/2_0_TicTacToe.sol\":2288:2392  partida.jugadas[x1][y1] == partida.jugadas[x2][y2] && partida.jugadas[x2][y2] == partida.jugadas[x3][y3] */\n      dup1\n      iszero\n      tag_121\n      jumpi\n      pop\n        /* \"contracts/2_0_TicTacToe.sol\":2369:2376  partida */\n      dup8\n        /* \"contracts/2_0_TicTacToe.sol\":2369:2384  partida.jugadas */\n      0x60\n      add\n      mload\n        /* \"contracts/2_0_TicTacToe.sol\":2385:2387  x3 */\n      dup4\n        /* \"contracts/2_0_TicTacToe.sol\":2369:2388  partida.jugadas[x3] */\n      0x04\n      dup2\n      lt\n      tag_122\n      jumpi\n      tag_123\n      tag_25\n      jump\t// in\n    tag_123:\n    tag_122:\n      0x20\n      mul\n      add\n      mload\n        /* \"contracts/2_0_TicTacToe.sol\":2389:2391  y3 */\n      dup3\n        /* \"contracts/2_0_TicTacToe.sol\":2369:2392  partida.jugadas[x3][y3] */\n      0x04\n      dup2\n      lt\n      tag_124\n      jumpi\n      tag_125\n      tag_25\n      jump\t// in\n    tag_125:\n    tag_124:\n      0x20\n      mul\n      add\n      mload\n        /* \"contracts/2_0_TicTacToe.sol\":2342:2349  partida */\n      dup9\n        /* \"contracts/2_0_TicTacToe.sol\":2342:2357  partida.jugadas */\n      0x60\n      add\n      mload\n        /* \"contracts/2_0_TicTacToe.sol\":2358:2360  x2 */\n      dup7\n        /* \"contracts/2_0_TicTacToe.sol\":2342:2361  partida.jugadas[x2] */\n      0x04\n      dup2\n      lt\n      tag_126\n      jumpi\n      tag_127\n      tag_25\n      jump\t// in\n    tag_127:\n    tag_126:\n      0x20\n      mul\n      add\n      mload\n        /* \"contracts/2_0_TicTacToe.sol\":2362:2364  y2 */\n      dup6\n        /* \"contracts/2_0_TicTacToe.sol\":2342:2365  partida.jugadas[x2][y2] */\n      0x04\n      dup2\n      lt\n      tag_128\n      jumpi\n      tag_129\n      tag_25\n      jump\t// in\n    tag_129:\n    tag_128:\n      0x20\n      mul\n      add\n      mload\n        /* \"contracts/2_0_TicTacToe.sol\":2342:2392  partida.jugadas[x2][y2] == partida.jugadas[x3][y3] */\n      eq\n        /* \"contracts/2_0_TicTacToe.sol\":2288:2392  partida.jugadas[x1][y1] == partida.jugadas[x2][y2] && partida.jugadas[x2][y2] == partida.jugadas[x3][y3] */\n    tag_121:\n        /* \"contracts/2_0_TicTacToe.sol\":2285:2510  if(partida.jugadas[x1][y1] == partida.jugadas[x2][y2] && partida.jugadas[x2][y2] == partida.jugadas[x3][y3])... */\n      iszero\n      tag_130\n      jumpi\n        /* \"contracts/2_0_TicTacToe.sol\":2425:2432  partida */\n      dup8\n        /* \"contracts/2_0_TicTacToe.sol\":2425:2440  partida.jugadas */\n      0x60\n      add\n      mload\n        /* \"contracts/2_0_TicTacToe.sol\":2441:2443  x1 */\n      dup8\n        /* \"contracts/2_0_TicTacToe.sol\":2425:2444  partida.jugadas[x1] */\n      0x04\n      dup2\n      lt\n      tag_131\n      jumpi\n      tag_132\n      tag_25\n      jump\t// in\n    tag_132:\n    tag_131:\n      0x20\n      mul\n      add\n      mload\n        /* \"contracts/2_0_TicTacToe.sol\":2445:2447  y1 */\n      dup7\n        /* \"contracts/2_0_TicTacToe.sol\":2425:2448  partida.jugadas[x1][y1] */\n      0x04\n      dup2\n      lt\n      tag_133\n      jumpi\n      tag_134\n      tag_25\n      jump\t// in\n    tag_134:\n    tag_133:\n      0x20\n      mul\n      add\n      mload\n        /* \"contracts/2_0_TicTacToe.sol\":2418:2448  return partida.jugadas[x1][y1] */\n      swap1\n      pop\n      jump(tag_112)\n        /* \"contracts/2_0_TicTacToe.sol\":2285:2510  if(partida.jugadas[x1][y1] == partida.jugadas[x2][y2] && partida.jugadas[x2][y2] == partida.jugadas[x3][y3])... */\n    tag_130:\n        /* \"contracts/2_0_TicTacToe.sol\":2497:2498  0 */\n      0x00\n        /* \"contracts/2_0_TicTacToe.sol\":2490:2498  return 0 */\n      swap1\n      pop\n        /* \"contracts/2_0_TicTacToe.sol\":2149:2517  function checarLinea(Partida memory partida, uint x1, uint y1, uint x2, uint y2, uint x3, uint y3) private pure returns(uint){... */\n    tag_112:\n      swap8\n      swap7\n      pop\n      pop\n      pop\n      pop\n      pop\n      pop\n      pop\n      jump\t// out\n    tag_18:\n      mload(0x40)\n      dup1\n      0xa0\n      add\n      0x40\n      mstore\n      dup1\n      and(0xffffffffffffffffffffffffffffffffffffffff, 0x00)\n      dup2\n      mstore\n      0x20\n      add\n      and(0xffffffffffffffffffffffffffffffffffffffff, 0x00)\n      dup2\n      mstore\n      0x20\n      add\n      and(0xffffffffffffffffffffffffffffffffffffffff, 0x00)\n      dup2\n      mstore\n      0x20\n      add\n      tag_136\n      tag_137\n      jump\t// in\n    tag_136:\n      dup2\n      mstore\n      0x20\n      add\n      and(0xffffffffffffffffffffffffffffffffffffffff, 0x00)\n      dup2\n      mstore\n      pop\n      swap1\n      jump\t// out\n    tag_21:\n      dup3\n      0x04\n      dup1\n      mul\n      dup2\n      add\n      swap3\n      dup3\n      iszero\n      tag_138\n      jumpi\n      swap2\n      0x20\n      mul\n      dup3\n      add\n    tag_139:\n      dup3\n      dup2\n      gt\n      iszero\n      tag_140\n      jumpi\n      dup3\n      mload\n      dup3\n      swap1\n      0x04\n      tag_141\n      swap3\n      swap2\n      swap1\n      tag_142\n      jump\t// in\n    tag_141:\n      pop\n      swap2\n      0x20\n      add\n      swap2\n      swap1\n      0x04\n      add\n      swap1\n      jump(tag_139)\n    tag_140:\n    tag_138:\n      pop\n      swap1\n      pop\n      tag_143\n      swap2\n      swap1\n      tag_144\n      jump\t// in\n    tag_143:\n      pop\n      swap1\n      jump\t// out\n    tag_137:\n      mload(0x40)\n      dup1\n      0x80\n      add\n      0x40\n      mstore\n      dup1\n      0x04\n      swap1\n    tag_145:\n      tag_146\n      tag_147\n      jump\t// in\n    tag_146:\n      dup2\n      mstore\n      0x20\n      add\n      swap1\n      0x01\n      swap1\n      sub\n      swap1\n      dup2\n      tag_145\n      jumpi\n      swap1\n      pop\n      pop\n      swap1\n      jump\t// out\n    tag_142:\n      dup3\n      0x04\n      dup2\n      add\n      swap3\n      dup3\n      iszero\n      tag_148\n      jumpi\n      swap2\n      0x20\n      mul\n      dup3\n      add\n    tag_149:\n      dup3\n      dup2\n      gt\n      iszero\n      tag_150\n      jumpi\n      dup3\n      mload\n      dup3\n      sstore\n      swap2\n      0x20\n      add\n      swap2\n      swap1\n      0x01\n      add\n      swap1\n      jump(tag_149)\n    tag_150:\n    tag_148:\n      pop\n      swap1\n      pop\n      tag_151\n      swap2\n      swap1\n      tag_152\n      jump\t// in\n    tag_151:\n      pop\n      swap1\n      jump\t// out\n    tag_144:\n    tag_153:\n      dup1\n      dup3\n      gt\n      iszero\n      tag_154\n      jumpi\n      0x00\n      dup2\n      dup2\n      tag_155\n      swap2\n      swap1\n      tag_156\n      jump\t// in\n    tag_155:\n      pop\n      0x04\n      add\n      jump(tag_153)\n    tag_154:\n      pop\n      swap1\n      jump\t// out\n    tag_147:\n      mload(0x40)\n      dup1\n      0x80\n      add\n      0x40\n      mstore\n      dup1\n      0x04\n      swap1\n      0x20\n      dup3\n      mul\n      dup1\n      calldatasize\n      dup4\n      calldatacopy\n      dup1\n      dup3\n      add\n      swap2\n      pop\n      pop\n      swap1\n      pop\n      pop\n      swap1\n      jump\t// out\n    tag_152:\n    tag_157:\n      dup1\n      dup3\n      gt\n      iszero\n      tag_158\n      jumpi\n      0x00\n      dup2\n      0x00\n      swap1\n      sstore\n      pop\n      0x01\n      add\n      jump(tag_157)\n    tag_158:\n      pop\n      swap1\n      jump\t// out\n    tag_156:\n      pop\n      0x00\n      dup2\n      sstore\n      0x01\n      add\n      0x00\n      dup2\n      sstore\n      0x01\n      add\n      0x00\n      dup2\n      sstore\n      0x01\n      add\n      0x00\n      swap1\n      sstore\n      jump\t// out\n        /* \"#utility.yul\":88:205   */\n    tag_160:\n        /* \"#utility.yul\":197:198   */\n      0x00\n        /* \"#utility.yul\":194:195   */\n      dup1\n        /* \"#utility.yul\":187:199   */\n      revert\n        /* \"#utility.yul\":334:460   */\n    tag_162:\n        /* \"#utility.yul\":371:378   */\n      0x00\n        /* \"#utility.yul\":411:453   */\n      0xffffffffffffffffffffffffffffffffffffffff\n        /* \"#utility.yul\":404:409   */\n      dup3\n        /* \"#utility.yul\":400:454   */\n      and\n        /* \"#utility.yul\":389:454   */\n      swap1\n      pop\n        /* \"#utility.yul\":334:460   */\n      swap2\n      swap1\n      pop\n      jump\t// out\n        /* \"#utility.yul\":466:562   */\n    tag_163:\n        /* \"#utility.yul\":503:510   */\n      0x00\n        /* \"#utility.yul\":532:556   */\n      tag_176\n        /* \"#utility.yul\":550:555   */\n      dup3\n        /* \"#utility.yul\":532:556   */\n      tag_162\n      jump\t// in\n    tag_176:\n        /* \"#utility.yul\":521:556   */\n      swap1\n      pop\n        /* \"#utility.yul\":466:562   */\n      swap2\n      swap1\n      pop\n      jump\t// out\n        /* \"#utility.yul\":568:690   */\n    tag_164:\n        /* \"#utility.yul\":641:665   */\n      tag_178\n        /* \"#utility.yul\":659:664   */\n      dup2\n        /* \"#utility.yul\":641:665   */\n      tag_163\n      jump\t// in\n    tag_178:\n        /* \"#utility.yul\":634:639   */\n      dup2\n        /* \"#utility.yul\":631:666   */\n      eq\n        /* \"#utility.yul\":621:684   */\n      tag_179\n      jumpi\n        /* \"#utility.yul\":680:681   */\n      0x00\n        /* \"#utility.yul\":677:678   */\n      dup1\n        /* \"#utility.yul\":670:682   */\n      revert\n        /* \"#utility.yul\":621:684   */\n    tag_179:\n        /* \"#utility.yul\":568:690   */\n      pop\n      jump\t// out\n        /* \"#utility.yul\":696:835   */\n    tag_165:\n        /* \"#utility.yul\":742:747   */\n      0x00\n        /* \"#utility.yul\":780:786   */\n      dup2\n        /* \"#utility.yul\":767:787   */\n      calldataload\n        /* \"#utility.yul\":758:787   */\n      swap1\n      pop\n        /* \"#utility.yul\":796:829   */\n      tag_181\n        /* \"#utility.yul\":823:828   */\n      dup2\n        /* \"#utility.yul\":796:829   */\n      tag_164\n      jump\t// in\n    tag_181:\n        /* \"#utility.yul\":696:835   */\n      swap3\n      swap2\n      pop\n      pop\n      jump\t// out\n        /* \"#utility.yul\":841:1315   */\n    tag_7:\n        /* \"#utility.yul\":909:915   */\n      0x00\n        /* \"#utility.yul\":917:923   */\n      dup1\n        /* \"#utility.yul\":966:968   */\n      0x40\n        /* \"#utility.yul\":954:963   */\n      dup4\n        /* \"#utility.yul\":945:952   */\n      dup6\n        /* \"#utility.yul\":941:964   */\n      sub\n        /* \"#utility.yul\":937:969   */\n      slt\n        /* \"#utility.yul\":934:1053   */\n      iszero\n      tag_183\n      jumpi\n        /* \"#utility.yul\":972:1051   */\n      tag_184\n      tag_160\n      jump\t// in\n    tag_184:\n        /* \"#utility.yul\":934:1053   */\n    tag_183:\n        /* \"#utility.yul\":1092:1093   */\n      0x00\n        /* \"#utility.yul\":1117:1170   */\n      tag_185\n        /* \"#utility.yul\":1162:1169   */\n      dup6\n        /* \"#utility.yul\":1153:1159   */\n      dup3\n        /* \"#utility.yul\":1142:1151   */\n      dup7\n        /* \"#utility.yul\":1138:1160   */\n      add\n        /* \"#utility.yul\":1117:1170   */\n      tag_165\n      jump\t// in\n    tag_185:\n        /* \"#utility.yul\":1107:1170   */\n      swap3\n      pop\n        /* \"#utility.yul\":1063:1180   */\n      pop\n        /* \"#utility.yul\":1219:1221   */\n      0x20\n        /* \"#utility.yul\":1245:1298   */\n      tag_186\n        /* \"#utility.yul\":1290:1297   */\n      dup6\n        /* \"#utility.yul\":1281:1287   */\n      dup3\n        /* \"#utility.yul\":1270:1279   */\n      dup7\n        /* \"#utility.yul\":1266:1288   */\n      add\n        /* \"#utility.yul\":1245:1298   */\n      tag_165\n      jump\t// in\n    tag_186:\n        /* \"#utility.yul\":1235:1298   */\n      swap2\n      pop\n        /* \"#utility.yul\":1190:1308   */\n      pop\n        /* \"#utility.yul\":841:1315   */\n      swap3\n      pop\n      swap3\n      swap1\n      pop\n      jump\t// out\n        /* \"#utility.yul\":1321:1398   */\n    tag_166:\n        /* \"#utility.yul\":1358:1365   */\n      0x00\n        /* \"#utility.yul\":1387:1392   */\n      dup2\n        /* \"#utility.yul\":1376:1392   */\n      swap1\n      pop\n        /* \"#utility.yul\":1321:1398   */\n      swap2\n      swap1\n      pop\n      jump\t// out\n        /* \"#utility.yul\":1404:1522   */\n    tag_167:\n        /* \"#utility.yul\":1491:1515   */\n      tag_189\n        /* \"#utility.yul\":1509:1514   */\n      dup2\n        /* \"#utility.yul\":1491:1515   */\n      tag_166\n      jump\t// in\n    tag_189:\n        /* \"#utility.yul\":1486:1489   */\n      dup3\n        /* \"#utility.yul\":1479:1516   */\n      mstore\n        /* \"#utility.yul\":1404:1522   */\n      pop\n      pop\n      jump\t// out\n        /* \"#utility.yul\":1528:1750   */\n    tag_10:\n        /* \"#utility.yul\":1621:1625   */\n      0x00\n        /* \"#utility.yul\":1659:1661   */\n      0x20\n        /* \"#utility.yul\":1648:1657   */\n      dup3\n        /* \"#utility.yul\":1644:1662   */\n      add\n        /* \"#utility.yul\":1636:1662   */\n      swap1\n      pop\n        /* \"#utility.yul\":1672:1743   */\n      tag_191\n        /* \"#utility.yul\":1740:1741   */\n      0x00\n        /* \"#utility.yul\":1729:1738   */\n      dup4\n        /* \"#utility.yul\":1725:1742   */\n      add\n        /* \"#utility.yul\":1716:1722   */\n      dup5\n        /* \"#utility.yul\":1672:1743   */\n      tag_167\n      jump\t// in\n    tag_191:\n        /* \"#utility.yul\":1528:1750   */\n      swap3\n      swap2\n      pop\n      pop\n      jump\t// out\n        /* \"#utility.yul\":1756:1878   */\n    tag_168:\n        /* \"#utility.yul\":1829:1853   */\n      tag_193\n        /* \"#utility.yul\":1847:1852   */\n      dup2\n        /* \"#utility.yul\":1829:1853   */\n      tag_166\n      jump\t// in\n    tag_193:\n        /* \"#utility.yul\":1822:1827   */\n      dup2\n        /* \"#utility.yul\":1819:1854   */\n      eq\n        /* \"#utility.yul\":1809:1872   */\n      tag_194\n      jumpi\n        /* \"#utility.yul\":1868:1869   */\n      0x00\n        /* \"#utility.yul\":1865:1866   */\n      dup1\n        /* \"#utility.yul\":1858:1870   */\n      revert\n        /* \"#utility.yul\":1809:1872   */\n    tag_194:\n        /* \"#utility.yul\":1756:1878   */\n      pop\n      jump\t// out\n        /* \"#utility.yul\":1884:2023   */\n    tag_169:\n        /* \"#utility.yul\":1930:1935   */\n      0x00\n        /* \"#utility.yul\":1968:1974   */\n      dup2\n        /* \"#utility.yul\":1955:1975   */\n      calldataload\n        /* \"#utility.yul\":1946:1975   */\n      swap1\n      pop\n        /* \"#utility.yul\":1984:2017   */\n      tag_196\n        /* \"#utility.yul\":2011:2016   */\n      dup2\n        /* \"#utility.yul\":1984:2017   */\n      tag_168\n      jump\t// in\n    tag_196:\n        /* \"#utility.yul\":1884:2023   */\n      swap3\n      swap2\n      pop\n      pop\n      jump\t// out\n        /* \"#utility.yul\":2029:2648   */\n    tag_13:\n        /* \"#utility.yul\":2106:2112   */\n      0x00\n        /* \"#utility.yul\":2114:2120   */\n      dup1\n        /* \"#utility.yul\":2122:2128   */\n      0x00\n        /* \"#utility.yul\":2171:2173   */\n      0x60\n        /* \"#utility.yul\":2159:2168   */\n      dup5\n        /* \"#utility.yul\":2150:2157   */\n      dup7\n        /* \"#utility.yul\":2146:2169   */\n      sub\n        /* \"#utility.yul\":2142:2174   */\n      slt\n        /* \"#utility.yul\":2139:2258   */\n      iszero\n      tag_198\n      jumpi\n        /* \"#utility.yul\":2177:2256   */\n      tag_199\n      tag_160\n      jump\t// in\n    tag_199:\n        /* \"#utility.yul\":2139:2258   */\n    tag_198:\n        /* \"#utility.yul\":2297:2298   */\n      0x00\n        /* \"#utility.yul\":2322:2375   */\n      tag_200\n        /* \"#utility.yul\":2367:2374   */\n      dup7\n        /* \"#utility.yul\":2358:2364   */\n      dup3\n        /* \"#utility.yul\":2347:2356   */\n      dup8\n        /* \"#utility.yul\":2343:2365   */\n      add\n        /* \"#utility.yul\":2322:2375   */\n      tag_169\n      jump\t// in\n    tag_200:\n        /* \"#utility.yul\":2312:2375   */\n      swap4\n      pop\n        /* \"#utility.yul\":2268:2385   */\n      pop\n        /* \"#utility.yul\":2424:2426   */\n      0x20\n        /* \"#utility.yul\":2450:2503   */\n      tag_201\n        /* \"#utility.yul\":2495:2502   */\n      dup7\n        /* \"#utility.yul\":2486:2492   */\n      dup3\n        /* \"#utility.yul\":2475:2484   */\n      dup8\n        /* \"#utility.yul\":2471:2493   */\n      add\n        /* \"#utility.yul\":2450:2503   */\n      tag_169\n      jump\t// in\n    tag_201:\n        /* \"#utility.yul\":2440:2503   */\n      swap3\n      pop\n        /* \"#utility.yul\":2395:2513   */\n      pop\n        /* \"#utility.yul\":2552:2554   */\n      0x40\n        /* \"#utility.yul\":2578:2631   */\n      tag_202\n        /* \"#utility.yul\":2623:2630   */\n      dup7\n        /* \"#utility.yul\":2614:2620   */\n      dup3\n        /* \"#utility.yul\":2603:2612   */\n      dup8\n        /* \"#utility.yul\":2599:2621   */\n      add\n        /* \"#utility.yul\":2578:2631   */\n      tag_169\n      jump\t// in\n    tag_202:\n        /* \"#utility.yul\":2568:2631   */\n      swap2\n      pop\n        /* \"#utility.yul\":2523:2641   */\n      pop\n        /* \"#utility.yul\":2029:2648   */\n      swap3\n      pop\n      swap3\n      pop\n      swap3\n      jump\t// out\n        /* \"#utility.yul\":2654:2834   */\n    tag_25:\n        /* \"#utility.yul\":2702:2779   */\n      0x4e487b7100000000000000000000000000000000000000000000000000000000\n        /* \"#utility.yul\":2699:2700   */\n      0x00\n        /* \"#utility.yul\":2692:2780   */\n      mstore\n        /* \"#utility.yul\":2799:2803   */\n      0x32\n        /* \"#utility.yul\":2796:2797   */\n      0x04\n        /* \"#utility.yul\":2789:2804   */\n      mstore\n        /* \"#utility.yul\":2823:2827   */\n      0x24\n        /* \"#utility.yul\":2820:2821   */\n      0x00\n        /* \"#utility.yul\":2813:2828   */\n      revert\n\n    auxdata: 0xa26469706673582212207554d56f4e2f030dca3de9e7b8f058929ff2dff15dcc598f0844832a4d3ca26964736f6c634300081a0033\n}\n",
				"bytecode": {
					"linkReferences": {},
					"object": "6080604052348015600e575f80fd5b50610e3d8061001c5f395ff3fe608060405234801561000f575f80fd5b5060043610610034575f3560e01c80631c5aef60146100385780634a5802da14610068575b5f80fd5b610052600480360381019061004d9190610cf1565b610084565b60405161005f9190610d47565b60405180910390f35b610082600480360381019061007d9190610d8a565b61029e565b005b5f8173ffffffffffffffffffffffffffffffffffffffff168373ffffffffffffffffffffffffffffffffffffffff16036100bc575f80fd5b5f808054905090506100cc610ad5565b84815f019073ffffffffffffffffffffffffffffffffffffffff16908173ffffffffffffffffffffffffffffffffffffffff168152505083816020019073ffffffffffffffffffffffffffffffffffffffff16908173ffffffffffffffffffffffffffffffffffffffff16815250505f81908060018154018082558091505060019003905f5260205f2090601402015f909190919091505f820151815f015f6101000a81548173ffffffffffffffffffffffffffffffffffffffff021916908373ffffffffffffffffffffffffffffffffffffffff1602179055506020820151816001015f6101000a81548173ffffffffffffffffffffffffffffffffffffffff021916908373ffffffffffffffffffffffffffffffffffffffff1602179055506040820151816002015f6101000a81548173ffffffffffffffffffffffffffffffffffffffff021916908373ffffffffffffffffffffffffffffffffffffffff16021790555060608201518160030190600461024a929190610b5e565b506080820151816013015f6101000a81548173ffffffffffffffffffffffffffffffffffffffff021916908373ffffffffffffffffffffffffffffffffffffffff1602179055505050819250505092915050565b5f8084815481106102b2576102b1610dda565b5b905f5260205f2090601402016040518060a00160405290815f82015f9054906101000a900473ffffffffffffffffffffffffffffffffffffffff1673ffffffffffffffffffffffffffffffffffffffff1673ffffffffffffffffffffffffffffffffffffffff168152602001600182015f9054906101000a900473ffffffffffffffffffffffffffffffffffffffff1673ffffffffffffffffffffffffffffffffffffffff1673ffffffffffffffffffffffffffffffffffffffff168152602001600282015f9054906101000a900473ffffffffffffffffffffffffffffffffffffffff1673ffffffffffffffffffffffffffffffffffffffff1673ffffffffffffffffffffffffffffffffffffffff16815260200160038201600480602002604051908101604052809291905f905b8282101561043b57838260040201600480602002604051908101604052809291908260048015610427576020028201915b815481526020019060010190808311610413575b5050505050815260200190600101906103e2565b505050508152602001601382015f9054906101000a900473ffffffffffffffffffffffffffffffffffffffff1673ffffffffffffffffffffffffffffffffffffffff1673ffffffffffffffffffffffffffffffffffffffff16815250509050805f015173ffffffffffffffffffffffffffffffffffffffff163373ffffffffffffffffffffffffffffffffffffffff1614806105065750806020015173ffffffffffffffffffffffffffffffffffffffff163373ffffffffffffffffffffffffffffffffffffffff16145b61050e575f80fd5b5f8311801561051d5750600483105b610525575f80fd5b5f821180156105345750600482105b61053c575f80fd5b806080015173ffffffffffffffffffffffffffffffffffffffff163373ffffffffffffffffffffffffffffffffffffffff1603610577575f80fd5b5f8160600151846004811061058f5761058e610dda565b5b602002015183600481106105a6576105a5610dda565b5b6020020151146105b4575f80fd5b6105bd8161064e565b156105c6575f80fd5b6105d1848484610716565b5f6105db82610836565b90506105e78186610855565b335f86815481106105fb576105fa610dda565b5b905f5260205f2090601402016013015f6101000a81548173ffffffffffffffffffffffffffffffffffffffff021916908373ffffffffffffffffffffffffffffffffffffffff1602179055505050505050565b5f8073ffffffffffffffffffffffffffffffffffffffff16826040015173ffffffffffffffffffffffffffffffffffffffff161461068f5760019050610711565b5f600190505b600481101561070b575f600190505b60048110156106fd575f846060015183600481106106c5576106c4610dda565b5b602002015182600481106106dc576106db610dda565b5b6020020151036106f0575f92505050610711565b80806001019150506106a4565b508080600101915050610695565b50600190505b919050565b5f838154811061072957610728610dda565b5b905f5260205f2090601402015f015f9054906101000a900473ffffffffffffffffffffffffffffffffffffffff1673ffffffffffffffffffffffffffffffffffffffff163373ffffffffffffffffffffffffffffffffffffffff16036107df5760015f848154811061079e5761079d610dda565b5b905f5260205f20906014020160030183600481106107bf576107be610dda565b5b6004020182600481106107d5576107d4610dda565b5b0181905550610831565b60025f84815481106107f4576107f3610dda565b5b905f5260205f209060140201600301836004811061081557610814610dda565b5b60040201826004811061082b5761082a610dda565b5b01819055505b505050565b5f8061084a836001806002806003806109b0565b905080915050919050565b5f82146109ac5760018203610909575f818154811061087757610876610dda565b5b905f5260205f2090601402015f015f9054906101000a900473ffffffffffffffffffffffffffffffffffffffff165f82815481106108b8576108b7610dda565b5b905f5260205f2090601402016002015f6101000a81548173ffffffffffffffffffffffffffffffffffffffff021916908373ffffffffffffffffffffffffffffffffffffffff1602179055506109ab565b5f818154811061091c5761091b610dda565b5b905f5260205f2090601402016001015f9054906101000a900473ffffffffffffffffffffffffffffffffffffffff165f828154811061095e5761095d610dda565b5b905f5260205f2090601402016002015f6101000a81548173ffffffffffffffffffffffffffffffffffffffff021916908373ffffffffffffffffffffffffffffffffffffffff1602179055505b5b5050565b5f876060015185600481106109c8576109c7610dda565b5b602002015184600481106109df576109de610dda565b5b6020020151886060015188600481106109fb576109fa610dda565b5b60200201518760048110610a1257610a11610dda565b5b6020020151148015610a87575087606001518360048110610a3657610a35610dda565b5b60200201518260048110610a4d57610a4c610dda565b5b602002015188606001518660048110610a6957610a68610dda565b5b60200201518560048110610a8057610a7f610dda565b5b6020020151145b15610ac65787606001518760048110610aa357610aa2610dda565b5b60200201518660048110610aba57610ab9610dda565b5b60200201519050610aca565b5f90505b979650505050505050565b6040518060a001604052805f73ffffffffffffffffffffffffffffffffffffffff1681526020015f73ffffffffffffffffffffffffffffffffffffffff1681526020015f73ffffffffffffffffffffffffffffffffffffffff168152602001610b3c610bae565b81526020015f73ffffffffffffffffffffffffffffffffffffffff1681525090565b82600480028101928215610b9d579160200282015b82811115610b9c57825182906004610b8c929190610bdb565b5091602001919060040190610b73565b5b509050610baa9190610c1b565b5090565b60405180608001604052806004905b610bc5610c3e565b815260200190600190039081610bbd5790505090565b8260048101928215610c0a579160200282015b82811115610c09578251825591602001919060010190610bee565b5b509050610c179190610c60565b5090565b5b80821115610c3a575f8181610c319190610c7b565b50600401610c1c565b5090565b6040518060800160405280600490602082028036833780820191505090505090565b5b80821115610c77575f815f905550600101610c61565b5090565b505f81556001015f81556001015f81556001015f9055565b5f80fd5b5f73ffffffffffffffffffffffffffffffffffffffff82169050919050565b5f610cc082610c97565b9050919050565b610cd081610cb6565b8114610cda575f80fd5b50565b5f81359050610ceb81610cc7565b92915050565b5f8060408385031215610d0757610d06610c93565b5b5f610d1485828601610cdd565b9250506020610d2585828601610cdd565b9150509250929050565b5f819050919050565b610d4181610d2f565b82525050565b5f602082019050610d5a5f830184610d38565b92915050565b610d6981610d2f565b8114610d73575f80fd5b50565b5f81359050610d8481610d60565b92915050565b5f805f60608486031215610da157610da0610c93565b5b5f610dae86828701610d76565b9350506020610dbf86828701610d76565b9250506040610dd086828701610d76565b9150509250925092565b7f4e487b71000000000000000000000000000000000000000000000000000000005f52603260045260245ffdfea26469706673582212207554d56f4e2f030dca3de9e7b8f058929ff2dff15dcc598f0844832a4d3ca26964736f6c634300081a0033",
					"opcodes": "PUSH1 0x80 PUSH1 0x40 MSTORE CALLVALUE DUP1 ISZERO PUSH1 0xE JUMPI PUSH0 DUP1 REVERT JUMPDEST POP PUSH2 0xE3D DUP1 PUSH2 0x1C PUSH0 CODECOPY PUSH0 RETURN INVALID PUSH1 0x80 PUSH1 0x40 MSTORE CALLVALUE DUP1 ISZERO PUSH2 0xF JUMPI PUSH0 DUP1 REVERT JUMPDEST POP PUSH1 0x4 CALLDATASIZE LT PUSH2 0x34 JUMPI PUSH0 CALLDATALOAD PUSH1 0xE0 SHR DUP1 PUSH4 0x1C5AEF60 EQ PUSH2 0x38 JUMPI DUP1 PUSH4 0x4A5802DA EQ PUSH2 0x68 JUMPI JUMPDEST PUSH0 DUP1 REVERT JUMPDEST PUSH2 0x52 PUSH1 0x4 DUP1 CALLDATASIZE SUB DUP2 ADD SWAP1 PUSH2 0x4D SWAP2 SWAP1 PUSH2 0xCF1 JUMP JUMPDEST PUSH2 0x84 JUMP JUMPDEST PUSH1 0x40 MLOAD PUSH2 0x5F SWAP2 SWAP1 PUSH2 0xD47 JUMP JUMPDEST PUSH1 0x40 MLOAD DUP1 SWAP2 SUB SWAP1 RETURN JUMPDEST PUSH2 0x82 PUSH1 0x4 DUP1 CALLDATASIZE SUB DUP2 ADD SWAP1 PUSH2 0x7D SWAP2 SWAP1 PUSH2 0xD8A JUMP JUMPDEST PUSH2 0x29E JUMP JUMPDEST STOP JUMPDEST PUSH0 DUP2 PUSH20 0xFFFFFFFFFFFFFFFFFFFFFFFFFFFFFFFFFFFFFFFF AND DUP4 PUSH20 0xFFFFFFFFFFFFFFFFFFFFFFFFFFFFFFFFFFFFFFFF AND SUB PUSH2 0xBC JUMPI PUSH0 DUP1 REVERT JUMPDEST PUSH0 DUP1 DUP1 SLOAD SWAP1 POP SWAP1 POP PUSH2 0xCC PUSH2 0xAD5 JUMP JUMPDEST DUP5 DUP2 PUSH0 ADD SWAP1 PUSH20 0xFFFFFFFFFFFFFFFFFFFFFFFFFFFFFFFFFFFFFFFF AND SWAP1 DUP2 PUSH20 0xFFFFFFFFFFFFFFFFFFFFFFFFFFFFFFFFFFFFFFFF AND DUP2 MSTORE POP POP DUP4 DUP2 PUSH1 0x20 ADD SWAP1 PUSH20 0xFFFFFFFFFFFFFFFFFFFFFFFFFFFFFFFFFFFFFFFF AND SWAP1 DUP2 PUSH20 0xFFFFFFFFFFFFFFFFFFFFFFFFFFFFFFFFFFFFFFFF AND DUP2 MSTORE POP POP PUSH0 DUP2 SWAP1 DUP1 PUSH1 0x1 DUP2 SLOAD ADD DUP1 DUP3 SSTORE DUP1 SWAP2 POP POP PUSH1 0x1 SWAP1 SUB SWAP1 PUSH0 MSTORE PUSH1 0x20 PUSH0 KECCAK256 SWAP1 PUSH1 0x14 MUL ADD PUSH0 SWAP1 SWAP2 SWAP1 SWAP2 SWAP1 SWAP2 POP PUSH0 DUP3 ADD MLOAD DUP2 PUSH0 ADD PUSH0 PUSH2 0x100 EXP DUP2 SLOAD DUP2 PUSH20 0xFFFFFFFFFFFFFFFFFFFFFFFFFFFFFFFFFFFFFFFF MUL NOT AND SWAP1 DUP4 PUSH20 0xFFFFFFFFFFFFFFFFFFFFFFFFFFFFFFFFFFFFFFFF AND MUL OR SWAP1 SSTORE POP PUSH1 0x20 DUP3 ADD MLOAD DUP2 PUSH1 0x1 ADD PUSH0 PUSH2 0x100 EXP DUP2 SLOAD DUP2 PUSH20 0xFFFFFFFFFFFFFFFFFFFFFFFFFFFFFFFFFFFFFFFF MUL NOT AND SWAP1 DUP4 PUSH20 0xFFFFFFFFFFFFFFFFFFFFFFFFFFFFFFFFFFFFFFFF AND MUL OR SWAP1 SSTORE POP PUSH1 0x40 DUP3 ADD MLOAD DUP2 PUSH1 0x2 ADD PUSH0 PUSH2 0x100 EXP DUP2 SLOAD DUP2 PUSH20 0xFFFFFFFFFFFFFFFFFFFFFFFFFFFFFFFFFFFFFFFF MUL NOT AND SWAP1 DUP4 PUSH20 0xFFFFFFFFFFFFFFFFFFFFFFFFFFFFFFFFFFFFFFFF AND MUL OR SWAP1 SSTORE POP PUSH1 0x60 DUP3 ADD MLOAD DUP2 PUSH1 0x3 ADD SWAP1 PUSH1 0x4 PUSH2 0x24A SWAP3 SWAP2 SWAP1 PUSH2 0xB5E JUMP JUMPDEST POP PUSH1 0x80 DUP3 ADD MLOAD DUP2 PUSH1 0x13 ADD PUSH0 PUSH2 0x100 EXP DUP2 SLOAD DUP2 PUSH20 0xFFFFFFFFFFFFFFFFFFFFFFFFFFFFFFFFFFFFFFFF MUL NOT AND SWAP1 DUP4 PUSH20 0xFFFFFFFFFFFFFFFFFFFFFFFFFFFFFFFFFFFFFFFF AND MUL OR SWAP1 SSTORE POP POP POP DUP2 SWAP3 POP POP POP SWAP3 SWAP2 POP POP JUMP JUMPDEST PUSH0 DUP1 DUP5 DUP2 SLOAD DUP2 LT PUSH2 0x2B2 JUMPI PUSH2 0x2B1 PUSH2 0xDDA JUMP JUMPDEST JUMPDEST SWAP1 PUSH0 MSTORE PUSH1 0x20 PUSH0 KECCAK256 SWAP1 PUSH1 0x14 MUL ADD PUSH1 0x40 MLOAD DUP1 PUSH1 0xA0 ADD PUSH1 0x40 MSTORE SWAP1 DUP2 PUSH0 DUP3 ADD PUSH0 SWAP1 SLOAD SWAP1 PUSH2 0x100 EXP SWAP1 DIV PUSH20 0xFFFFFFFFFFFFFFFFFFFFFFFFFFFFFFFFFFFFFFFF AND PUSH20 0xFFFFFFFFFFFFFFFFFFFFFFFFFFFFFFFFFFFFFFFF AND PUSH20 0xFFFFFFFFFFFFFFFFFFFFFFFFFFFFFFFFFFFFFFFF AND DUP2 MSTORE PUSH1 0x20 ADD PUSH1 0x1 DUP3 ADD PUSH0 SWAP1 SLOAD SWAP1 PUSH2 0x100 EXP SWAP1 DIV PUSH20 0xFFFFFFFFFFFFFFFFFFFFFFFFFFFFFFFFFFFFFFFF AND PUSH20 0xFFFFFFFFFFFFFFFFFFFFFFFFFFFFFFFFFFFFFFFF AND PUSH20 0xFFFFFFFFFFFFFFFFFFFFFFFFFFFFFFFFFFFFFFFF AND DUP2 MSTORE PUSH1 0x20 ADD PUSH1 0x2 DUP3 ADD PUSH0 SWAP1 SLOAD SWAP1 PUSH2 0x100 EXP SWAP1 DIV PUSH20 0xFFFFFFFFFFFFFFFFFFFFFFFFFFFFFFFFFFFFFFFF AND PUSH20 0xFFFFFFFFFFFFFFFFFFFFFFFFFFFFFFFFFFFFFFFF AND PUSH20 0xFFFFFFFFFFFFFFFFFFFFFFFFFFFFFFFFFFFFFFFF AND DUP2 MSTORE PUSH1 0x20 ADD PUSH1 0x3 DUP3 ADD PUSH1 0x4 DUP1 PUSH1 0x20 MUL PUSH1 0x40 MLOAD SWAP1 DUP2 ADD PUSH1 0x40 MSTORE DUP1 SWAP3 SWAP2 SWAP1 PUSH0 SWAP1 JUMPDEST DUP3 DUP3 LT ISZERO PUSH2 0x43B JUMPI DUP4 DUP3 PUSH1 0x4 MUL ADD PUSH1 0x4 DUP1 PUSH1 0x20 MUL PUSH1 0x40 MLOAD SWAP1 DUP2 ADD PUSH1 0x40 MSTORE DUP1 SWAP3 SWAP2 SWAP1 DUP3 PUSH1 0x4 DUP1 ISZERO PUSH2 0x427 JUMPI PUSH1 0x20 MUL DUP3 ADD SWAP2 JUMPDEST DUP2 SLOAD DUP2 MSTORE PUSH1 0x20 ADD SWAP1 PUSH1 0x1 ADD SWAP1 DUP1 DUP4 GT PUSH2 0x413 JUMPI JUMPDEST POP POP POP POP POP DUP2 MSTORE PUSH1 0x20 ADD SWAP1 PUSH1 0x1 ADD SWAP1 PUSH2 0x3E2 JUMP JUMPDEST POP POP POP POP DUP2 MSTORE PUSH1 0x20 ADD PUSH1 0x13 DUP3 ADD PUSH0 SWAP1 SLOAD SWAP1 PUSH2 0x100 EXP SWAP1 DIV PUSH20 0xFFFFFFFFFFFFFFFFFFFFFFFFFFFFFFFFFFFFFFFF AND PUSH20 0xFFFFFFFFFFFFFFFFFFFFFFFFFFFFFFFFFFFFFFFF AND PUSH20 0xFFFFFFFFFFFFFFFFFFFFFFFFFFFFFFFFFFFFFFFF AND DUP2 MSTORE POP POP SWAP1 POP DUP1 PUSH0 ADD MLOAD PUSH20 0xFFFFFFFFFFFFFFFFFFFFFFFFFFFFFFFFFFFFFFFF AND CALLER PUSH20 0xFFFFFFFFFFFFFFFFFFFFFFFFFFFFFFFFFFFFFFFF AND EQ DUP1 PUSH2 0x506 JUMPI POP DUP1 PUSH1 0x20 ADD MLOAD PUSH20 0xFFFFFFFFFFFFFFFFFFFFFFFFFFFFFFFFFFFFFFFF AND CALLER PUSH20 0xFFFFFFFFFFFFFFFFFFFFFFFFFFFFFFFFFFFFFFFF AND EQ JUMPDEST PUSH2 0x50E JUMPI PUSH0 DUP1 REVERT JUMPDEST PUSH0 DUP4 GT DUP1 ISZERO PUSH2 0x51D JUMPI POP PUSH1 0x4 DUP4 LT JUMPDEST PUSH2 0x525 JUMPI PUSH0 DUP1 REVERT JUMPDEST PUSH0 DUP3 GT DUP1 ISZERO PUSH2 0x534 JUMPI POP PUSH1 0x4 DUP3 LT JUMPDEST PUSH2 0x53C JUMPI PUSH0 DUP1 REVERT JUMPDEST DUP1 PUSH1 0x80 ADD MLOAD PUSH20 0xFFFFFFFFFFFFFFFFFFFFFFFFFFFFFFFFFFFFFFFF AND CALLER PUSH20 0xFFFFFFFFFFFFFFFFFFFFFFFFFFFFFFFFFFFFFFFF AND SUB PUSH2 0x577 JUMPI PUSH0 DUP1 REVERT JUMPDEST PUSH0 DUP2 PUSH1 0x60 ADD MLOAD DUP5 PUSH1 0x4 DUP2 LT PUSH2 0x58F JUMPI PUSH2 0x58E PUSH2 0xDDA JUMP JUMPDEST JUMPDEST PUSH1 0x20 MUL ADD MLOAD DUP4 PUSH1 0x4 DUP2 LT PUSH2 0x5A6 JUMPI PUSH2 0x5A5 PUSH2 0xDDA JUMP JUMPDEST JUMPDEST PUSH1 0x20 MUL ADD MLOAD EQ PUSH2 0x5B4 JUMPI PUSH0 DUP1 REVERT JUMPDEST PUSH2 0x5BD DUP2 PUSH2 0x64E JUMP JUMPDEST ISZERO PUSH2 0x5C6 JUMPI PUSH0 DUP1 REVERT JUMPDEST PUSH2 0x5D1 DUP5 DUP5 DUP5 PUSH2 0x716 JUMP JUMPDEST PUSH0 PUSH2 0x5DB DUP3 PUSH2 0x836 JUMP JUMPDEST SWAP1 POP PUSH2 0x5E7 DUP2 DUP7 PUSH2 0x855 JUMP JUMPDEST CALLER PUSH0 DUP7 DUP2 SLOAD DUP2 LT PUSH2 0x5FB JUMPI PUSH2 0x5FA PUSH2 0xDDA JUMP JUMPDEST JUMPDEST SWAP1 PUSH0 MSTORE PUSH1 0x20 PUSH0 KECCAK256 SWAP1 PUSH1 0x14 MUL ADD PUSH1 0x13 ADD PUSH0 PUSH2 0x100 EXP DUP2 SLOAD DUP2 PUSH20 0xFFFFFFFFFFFFFFFFFFFFFFFFFFFFFFFFFFFFFFFF MUL NOT AND SWAP1 DUP4 PUSH20 0xFFFFFFFFFFFFFFFFFFFFFFFFFFFFFFFFFFFFFFFF AND MUL OR SWAP1 SSTORE POP POP POP POP POP POP JUMP JUMPDEST PUSH0 DUP1 PUSH20 0xFFFFFFFFFFFFFFFFFFFFFFFFFFFFFFFFFFFFFFFF AND DUP3 PUSH1 0x40 ADD MLOAD PUSH20 0xFFFFFFFFFFFFFFFFFFFFFFFFFFFFFFFFFFFFFFFF AND EQ PUSH2 0x68F JUMPI PUSH1 0x1 SWAP1 POP PUSH2 0x711 JUMP JUMPDEST PUSH0 PUSH1 0x1 SWAP1 POP JUMPDEST PUSH1 0x4 DUP2 LT ISZERO PUSH2 0x70B JUMPI PUSH0 PUSH1 0x1 SWAP1 POP JUMPDEST PUSH1 0x4 DUP2 LT ISZERO PUSH2 0x6FD JUMPI PUSH0 DUP5 PUSH1 0x60 ADD MLOAD DUP4 PUSH1 0x4 DUP2 LT PUSH2 0x6C5 JUMPI PUSH2 0x6C4 PUSH2 0xDDA JUMP JUMPDEST JUMPDEST PUSH1 0x20 MUL ADD MLOAD DUP3 PUSH1 0x4 DUP2 LT PUSH2 0x6DC JUMPI PUSH2 0x6DB PUSH2 0xDDA JUMP JUMPDEST JUMPDEST PUSH1 0x20 MUL ADD MLOAD SUB PUSH2 0x6F0 JUMPI PUSH0 SWAP3 POP POP POP PUSH2 0x711 JUMP JUMPDEST DUP1 DUP1 PUSH1 0x1 ADD SWAP2 POP POP PUSH2 0x6A4 JUMP JUMPDEST POP DUP1 DUP1 PUSH1 0x1 ADD SWAP2 POP POP PUSH2 0x695 JUMP JUMPDEST POP PUSH1 0x1 SWAP1 POP JUMPDEST SWAP2 SWAP1 POP JUMP JUMPDEST PUSH0 DUP4 DUP2 SLOAD DUP2 LT PUSH2 0x729 JUMPI PUSH2 0x728 PUSH2 0xDDA JUMP JUMPDEST JUMPDEST SWAP1 PUSH0 MSTORE PUSH1 0x20 PUSH0 KECCAK256 SWAP1 PUSH1 0x14 MUL ADD PUSH0 ADD PUSH0 SWAP1 SLOAD SWAP1 PUSH2 0x100 EXP SWAP1 DIV PUSH20 0xFFFFFFFFFFFFFFFFFFFFFFFFFFFFFFFFFFFFFFFF AND PUSH20 0xFFFFFFFFFFFFFFFFFFFFFFFFFFFFFFFFFFFFFFFF AND CALLER PUSH20 0xFFFFFFFFFFFFFFFFFFFFFFFFFFFFFFFFFFFFFFFF AND SUB PUSH2 0x7DF JUMPI PUSH1 0x1 PUSH0 DUP5 DUP2 SLOAD DUP2 LT PUSH2 0x79E JUMPI PUSH2 0x79D PUSH2 0xDDA JUMP JUMPDEST JUMPDEST SWAP1 PUSH0 MSTORE PUSH1 0x20 PUSH0 KECCAK256 SWAP1 PUSH1 0x14 MUL ADD PUSH1 0x3 ADD DUP4 PUSH1 0x4 DUP2 LT PUSH2 0x7BF JUMPI PUSH2 0x7BE PUSH2 0xDDA JUMP JUMPDEST JUMPDEST PUSH1 0x4 MUL ADD DUP3 PUSH1 0x4 DUP2 LT PUSH2 0x7D5 JUMPI PUSH2 0x7D4 PUSH2 0xDDA JUMP JUMPDEST JUMPDEST ADD DUP2 SWAP1 SSTORE POP PUSH2 0x831 JUMP JUMPDEST PUSH1 0x2 PUSH0 DUP5 DUP2 SLOAD DUP2 LT PUSH2 0x7F4 JUMPI PUSH2 0x7F3 PUSH2 0xDDA JUMP JUMPDEST JUMPDEST SWAP1 PUSH0 MSTORE PUSH1 0x20 PUSH0 KECCAK256 SWAP1 PUSH1 0x14 MUL ADD PUSH1 0x3 ADD DUP4 PUSH1 0x4 DUP2 LT PUSH2 0x815 JUMPI PUSH2 0x814 PUSH2 0xDDA JUMP JUMPDEST JUMPDEST PUSH1 0x4 MUL ADD DUP3 PUSH1 0x4 DUP2 LT PUSH2 0x82B JUMPI PUSH2 0x82A PUSH2 0xDDA JUMP JUMPDEST JUMPDEST ADD DUP2 SWAP1 SSTORE POP JUMPDEST POP POP POP JUMP JUMPDEST PUSH0 DUP1 PUSH2 0x84A DUP4 PUSH1 0x1 DUP1 PUSH1 0x2 DUP1 PUSH1 0x3 DUP1 PUSH2 0x9B0 JUMP JUMPDEST SWAP1 POP DUP1 SWAP2 POP POP SWAP2 SWAP1 POP JUMP JUMPDEST PUSH0 DUP3 EQ PUSH2 0x9AC JUMPI PUSH1 0x1 DUP3 SUB PUSH2 0x909 JUMPI PUSH0 DUP2 DUP2 SLOAD DUP2 LT PUSH2 0x877 JUMPI PUSH2 0x876 PUSH2 0xDDA JUMP JUMPDEST JUMPDEST SWAP1 PUSH0 MSTORE PUSH1 0x20 PUSH0 KECCAK256 SWAP1 PUSH1 0x14 MUL ADD PUSH0 ADD PUSH0 SWAP1 SLOAD SWAP1 PUSH2 0x100 EXP SWAP1 DIV PUSH20 0xFFFFFFFFFFFFFFFFFFFFFFFFFFFFFFFFFFFFFFFF AND PUSH0 DUP3 DUP2 SLOAD DUP2 LT PUSH2 0x8B8 JUMPI PUSH2 0x8B7 PUSH2 0xDDA JUMP JUMPDEST JUMPDEST SWAP1 PUSH0 MSTORE PUSH1 0x20 PUSH0 KECCAK256 SWAP1 PUSH1 0x14 MUL ADD PUSH1 0x2 ADD PUSH0 PUSH2 0x100 EXP DUP2 SLOAD DUP2 PUSH20 0xFFFFFFFFFFFFFFFFFFFFFFFFFFFFFFFFFFFFFFFF MUL NOT AND SWAP1 DUP4 PUSH20 0xFFFFFFFFFFFFFFFFFFFFFFFFFFFFFFFFFFFFFFFF AND MUL OR SWAP1 SSTORE POP PUSH2 0x9AB JUMP JUMPDEST PUSH0 DUP2 DUP2 SLOAD DUP2 LT PUSH2 0x91C JUMPI PUSH2 0x91B PUSH2 0xDDA JUMP JUMPDEST JUMPDEST SWAP1 PUSH0 MSTORE PUSH1 0x20 PUSH0 KECCAK256 SWAP1 PUSH1 0x14 MUL ADD PUSH1 0x1 ADD PUSH0 SWAP1 SLOAD SWAP1 PUSH2 0x100 EXP SWAP1 DIV PUSH20 0xFFFFFFFFFFFFFFFFFFFFFFFFFFFFFFFFFFFFFFFF AND PUSH0 DUP3 DUP2 SLOAD DUP2 LT PUSH2 0x95E JUMPI PUSH2 0x95D PUSH2 0xDDA JUMP JUMPDEST JUMPDEST SWAP1 PUSH0 MSTORE PUSH1 0x20 PUSH0 KECCAK256 SWAP1 PUSH1 0x14 MUL ADD PUSH1 0x2 ADD PUSH0 PUSH2 0x100 EXP DUP2 SLOAD DUP2 PUSH20 0xFFFFFFFFFFFFFFFFFFFFFFFFFFFFFFFFFFFFFFFF MUL NOT AND SWAP1 DUP4 PUSH20 0xFFFFFFFFFFFFFFFFFFFFFFFFFFFFFFFFFFFFFFFF AND MUL OR SWAP1 SSTORE POP JUMPDEST JUMPDEST POP POP JUMP JUMPDEST PUSH0 DUP8 PUSH1 0x60 ADD MLOAD DUP6 PUSH1 0x4 DUP2 LT PUSH2 0x9C8 JUMPI PUSH2 0x9C7 PUSH2 0xDDA JUMP JUMPDEST JUMPDEST PUSH1 0x20 MUL ADD MLOAD DUP5 PUSH1 0x4 DUP2 LT PUSH2 0x9DF JUMPI PUSH2 0x9DE PUSH2 0xDDA JUMP JUMPDEST JUMPDEST PUSH1 0x20 MUL ADD MLOAD DUP9 PUSH1 0x60 ADD MLOAD DUP9 PUSH1 0x4 DUP2 LT PUSH2 0x9FB JUMPI PUSH2 0x9FA PUSH2 0xDDA JUMP JUMPDEST JUMPDEST PUSH1 0x20 MUL ADD MLOAD DUP8 PUSH1 0x4 DUP2 LT PUSH2 0xA12 JUMPI PUSH2 0xA11 PUSH2 0xDDA JUMP JUMPDEST JUMPDEST PUSH1 0x20 MUL ADD MLOAD EQ DUP1 ISZERO PUSH2 0xA87 JUMPI POP DUP8 PUSH1 0x60 ADD MLOAD DUP4 PUSH1 0x4 DUP2 LT PUSH2 0xA36 JUMPI PUSH2 0xA35 PUSH2 0xDDA JUMP JUMPDEST JUMPDEST PUSH1 0x20 MUL ADD MLOAD DUP3 PUSH1 0x4 DUP2 LT PUSH2 0xA4D JUMPI PUSH2 0xA4C PUSH2 0xDDA JUMP JUMPDEST JUMPDEST PUSH1 0x20 MUL ADD MLOAD DUP9 PUSH1 0x60 ADD MLOAD DUP7 PUSH1 0x4 DUP2 LT PUSH2 0xA69 JUMPI PUSH2 0xA68 PUSH2 0xDDA JUMP JUMPDEST JUMPDEST PUSH1 0x20 MUL ADD MLOAD DUP6 PUSH1 0x4 DUP2 LT PUSH2 0xA80 JUMPI PUSH2 0xA7F PUSH2 0xDDA JUMP JUMPDEST JUMPDEST PUSH1 0x20 MUL ADD MLOAD EQ JUMPDEST ISZERO PUSH2 0xAC6 JUMPI DUP8 PUSH1 0x60 ADD MLOAD DUP8 PUSH1 0x4 DUP2 LT PUSH2 0xAA3 JUMPI PUSH2 0xAA2 PUSH2 0xDDA JUMP JUMPDEST JUMPDEST PUSH1 0x20 MUL ADD MLOAD DUP7 PUSH1 0x4 DUP2 LT PUSH2 0xABA JUMPI PUSH2 0xAB9 PUSH2 0xDDA JUMP JUMPDEST JUMPDEST PUSH1 0x20 MUL ADD MLOAD SWAP1 POP PUSH2 0xACA JUMP JUMPDEST PUSH0 SWAP1 POP JUMPDEST SWAP8 SWAP7 POP POP POP POP POP POP POP JUMP JUMPDEST PUSH1 0x40 MLOAD DUP1 PUSH1 0xA0 ADD PUSH1 0x40 MSTORE DUP1 PUSH0 PUSH20 0xFFFFFFFFFFFFFFFFFFFFFFFFFFFFFFFFFFFFFFFF AND DUP2 MSTORE PUSH1 0x20 ADD PUSH0 PUSH20 0xFFFFFFFFFFFFFFFFFFFFFFFFFFFFFFFFFFFFFFFF AND DUP2 MSTORE PUSH1 0x20 ADD PUSH0 PUSH20 0xFFFFFFFFFFFFFFFFFFFFFFFFFFFFFFFFFFFFFFFF AND DUP2 MSTORE PUSH1 0x20 ADD PUSH2 0xB3C PUSH2 0xBAE JUMP JUMPDEST DUP2 MSTORE PUSH1 0x20 ADD PUSH0 PUSH20 0xFFFFFFFFFFFFFFFFFFFFFFFFFFFFFFFFFFFFFFFF AND DUP2 MSTORE POP SWAP1 JUMP JUMPDEST DUP3 PUSH1 0x4 DUP1 MUL DUP2 ADD SWAP3 DUP3 ISZERO PUSH2 0xB9D JUMPI SWAP2 PUSH1 0x20 MUL DUP3 ADD JUMPDEST DUP3 DUP2 GT ISZERO PUSH2 0xB9C JUMPI DUP3 MLOAD DUP3 SWAP1 PUSH1 0x4 PUSH2 0xB8C SWAP3 SWAP2 SWAP1 PUSH2 0xBDB JUMP JUMPDEST POP SWAP2 PUSH1 0x20 ADD SWAP2 SWAP1 PUSH1 0x4 ADD SWAP1 PUSH2 0xB73 JUMP JUMPDEST JUMPDEST POP SWAP1 POP PUSH2 0xBAA SWAP2 SWAP1 PUSH2 0xC1B JUMP JUMPDEST POP SWAP1 JUMP JUMPDEST PUSH1 0x40 MLOAD DUP1 PUSH1 0x80 ADD PUSH1 0x40 MSTORE DUP1 PUSH1 0x4 SWAP1 JUMPDEST PUSH2 0xBC5 PUSH2 0xC3E JUMP JUMPDEST DUP2 MSTORE PUSH1 0x20 ADD SWAP1 PUSH1 0x1 SWAP1 SUB SWAP1 DUP2 PUSH2 0xBBD JUMPI SWAP1 POP POP SWAP1 JUMP JUMPDEST DUP3 PUSH1 0x4 DUP2 ADD SWAP3 DUP3 ISZERO PUSH2 0xC0A JUMPI SWAP2 PUSH1 0x20 MUL DUP3 ADD JUMPDEST DUP3 DUP2 GT ISZERO PUSH2 0xC09 JUMPI DUP3 MLOAD DUP3 SSTORE SWAP2 PUSH1 0x20 ADD SWAP2 SWAP1 PUSH1 0x1 ADD SWAP1 PUSH2 0xBEE JUMP JUMPDEST JUMPDEST POP SWAP1 POP PUSH2 0xC17 SWAP2 SWAP1 PUSH2 0xC60 JUMP JUMPDEST POP SWAP1 JUMP JUMPDEST JUMPDEST DUP1 DUP3 GT ISZERO PUSH2 0xC3A JUMPI PUSH0 DUP2 DUP2 PUSH2 0xC31 SWAP2 SWAP1 PUSH2 0xC7B JUMP JUMPDEST POP PUSH1 0x4 ADD PUSH2 0xC1C JUMP JUMPDEST POP SWAP1 JUMP JUMPDEST PUSH1 0x40 MLOAD DUP1 PUSH1 0x80 ADD PUSH1 0x40 MSTORE DUP1 PUSH1 0x4 SWAP1 PUSH1 0x20 DUP3 MUL DUP1 CALLDATASIZE DUP4 CALLDATACOPY DUP1 DUP3 ADD SWAP2 POP POP SWAP1 POP POP SWAP1 JUMP JUMPDEST JUMPDEST DUP1 DUP3 GT ISZERO PUSH2 0xC77 JUMPI PUSH0 DUP2 PUSH0 SWAP1 SSTORE POP PUSH1 0x1 ADD PUSH2 0xC61 JUMP JUMPDEST POP SWAP1 JUMP JUMPDEST POP PUSH0 DUP2 SSTORE PUSH1 0x1 ADD PUSH0 DUP2 SSTORE PUSH1 0x1 ADD PUSH0 DUP2 SSTORE PUSH1 0x1 ADD PUSH0 SWAP1 SSTORE JUMP JUMPDEST PUSH0 DUP1 REVERT JUMPDEST PUSH0 PUSH20 0xFFFFFFFFFFFFFFFFFFFFFFFFFFFFFFFFFFFFFFFF DUP3 AND SWAP1 POP SWAP2 SWAP1 POP JUMP JUMPDEST PUSH0 PUSH2 0xCC0 DUP3 PUSH2 0xC97 JUMP JUMPDEST SWAP1 POP SWAP2 SWAP1 POP JUMP JUMPDEST PUSH2 0xCD0 DUP2 PUSH2 0xCB6 JUMP JUMPDEST DUP2 EQ PUSH2 0xCDA JUMPI PUSH0 DUP1 REVERT JUMPDEST POP JUMP JUMPDEST PUSH0 DUP2 CALLDATALOAD SWAP1 POP PUSH2 0xCEB DUP2 PUSH2 0xCC7 JUMP JUMPDEST SWAP3 SWAP2 POP POP JUMP JUMPDEST PUSH0 DUP1 PUSH1 0x40 DUP4 DUP6 SUB SLT ISZERO PUSH2 0xD07 JUMPI PUSH2 0xD06 PUSH2 0xC93 JUMP JUMPDEST JUMPDEST PUSH0 PUSH2 0xD14 DUP6 DUP3 DUP7 ADD PUSH2 0xCDD JUMP JUMPDEST SWAP3 POP POP PUSH1 0x20 PUSH2 0xD25 DUP6 DUP3 DUP7 ADD PUSH2 0xCDD JUMP JUMPDEST SWAP2 POP POP SWAP3 POP SWAP3 SWAP1 POP JUMP JUMPDEST PUSH0 DUP2 SWAP1 POP SWAP2 SWAP1 POP JUMP JUMPDEST PUSH2 0xD41 DUP2 PUSH2 0xD2F JUMP JUMPDEST DUP3 MSTORE POP POP JUMP JUMPDEST PUSH0 PUSH1 0x20 DUP3 ADD SWAP1 POP PUSH2 0xD5A PUSH0 DUP4 ADD DUP5 PUSH2 0xD38 JUMP JUMPDEST SWAP3 SWAP2 POP POP JUMP JUMPDEST PUSH2 0xD69 DUP2 PUSH2 0xD2F JUMP JUMPDEST DUP2 EQ PUSH2 0xD73 JUMPI PUSH0 DUP1 REVERT JUMPDEST POP JUMP JUMPDEST PUSH0 DUP2 CALLDATALOAD SWAP1 POP PUSH2 0xD84 DUP2 PUSH2 0xD60 JUMP JUMPDEST SWAP3 SWAP2 POP POP JUMP JUMPDEST PUSH0 DUP1 PUSH0 PUSH1 0x60 DUP5 DUP7 SUB SLT ISZERO PUSH2 0xDA1 JUMPI PUSH2 0xDA0 PUSH2 0xC93 JUMP JUMPDEST JUMPDEST PUSH0 PUSH2 0xDAE DUP7 DUP3 DUP8 ADD PUSH2 0xD76 JUMP JUMPDEST SWAP4 POP POP PUSH1 0x20 PUSH2 0xDBF DUP7 DUP3 DUP8 ADD PUSH2 0xD76 JUMP JUMPDEST SWAP3 POP POP PUSH1 0x40 PUSH2 0xDD0 DUP7 DUP3 DUP8 ADD PUSH2 0xD76 JUMP JUMPDEST SWAP2 POP POP SWAP3 POP SWAP3 POP SWAP3 JUMP JUMPDEST PUSH32 0x4E487B7100000000000000000000000000000000000000000000000000000000 PUSH0 MSTORE PUSH1 0x32 PUSH1 0x4 MSTORE PUSH1 0x24 PUSH0 REVERT INVALID LOG2 PUSH5 0x6970667358 0x22 SLT KECCAK256 PUSH22 0x54D56F4E2F030DCA3DE9E7B8F058929FF2DFF15DCC59 DUP16 ADDMOD PREVRANDAO DUP4 0x2A 0x4D EXTCODECOPY LOG2 PUSH10 0x64736F6C634300081A00 CALLER "
				},
				"gasEstimates": {
					"creation": {
						"codeDepositCost": "729000",
						"executionCost": "758",
						"totalCost": "729758"
					},
					"external": {
						"crearPartida(address,address)": "infinite",
						"jugar(uint256,uint256,uint256)": "infinite"
					},
					"internal": {
						"checarLinea(struct TicTacToe.Partida memory,uint256,uint256,uint256,uint256,uint256,uint256)": "infinite",
						"guardarGanador(uint256,uint256)": "30860",
						"guardarMovimiento(uint256,uint256,uint256)": "28765",
						"obtenerGanador(struct TicTacToe.Partida memory)": "infinite",
						"partidaTerminada(struct TicTacToe.Partida memory)": "infinite"
					}
				},
				"methodIdentifiers": {
					"crearPartida(address,address)": "1c5aef60",
					"jugar(uint256,uint256,uint256)": "4a5802da"
				}
			},
			"storageLayout": {
				"storage": [
					{
						"astId": 20,
						"contract": "contracts/2_0_TicTacToe.sol:TicTacToe",
						"label": "partidas",
						"offset": 0,
						"slot": "0",
						"type": "t_array(t_struct(Partida)16_storage)dyn_storage"
					}
				],
				"types": {
					"t_address": {
						"encoding": "inplace",
						"label": "address",
						"numberOfBytes": "20"
					},
					"t_array(t_array(t_uint256)4_storage)4_storage": {
						"base": "t_array(t_uint256)4_storage",
						"encoding": "inplace",
						"label": "uint256[4][4]",
						"numberOfBytes": "512"
					},
					"t_array(t_struct(Partida)16_storage)dyn_storage": {
						"base": "t_struct(Partida)16_storage",
						"encoding": "dynamic_array",
						"label": "struct TicTacToe.Partida[]",
						"numberOfBytes": "32"
					},
					"t_array(t_uint256)4_storage": {
						"base": "t_uint256",
						"encoding": "inplace",
						"label": "uint256[4]",
						"numberOfBytes": "128"
					},
					"t_struct(Partida)16_storage": {
						"encoding": "inplace",
						"label": "struct TicTacToe.Partida",
						"members": [
							{
								"astId": 3,
								"contract": "contracts/2_0_TicTacToe.sol:TicTacToe",
								"label": "jugador1",
								"offset": 0,
								"slot": "0",
								"type": "t_address"
							},
							{
								"astId": 5,
								"contract": "contracts/2_0_TicTacToe.sol:TicTacToe",
								"label": "jugador2",
								"offset": 0,
								"slot": "1",
								"type": "t_address"
							},
							{
								"astId": 7,
								"contract": "contracts/2_0_TicTacToe.sol:TicTacToe",
								"label": "ganador",
								"offset": 0,
								"slot": "2",
								"type": "t_address"
							},
							{
								"astId": 13,
								"contract": "contracts/2_0_TicTacToe.sol:TicTacToe",
								"label": "jugadas",
								"offset": 0,
								"slot": "3",
								"type": "t_array(t_array(t_uint256)4_storage)4_storage"
							},
							{
								"astId": 15,
								"contract": "contracts/2_0_TicTacToe.sol:TicTacToe",
								"label": "ultimoTurno",
								"offset": 0,
								"slot": "19",
								"type": "t_address"
							}
						],
						"numberOfBytes": "640"
					},
					"t_uint256": {
						"encoding": "inplace",
						"label": "uint256",
						"numberOfBytes": "32"
					}
				}
			},
			"userdoc": {
				"kind": "user",
				"methods": {},
				"version": 1
			}
		}
	}
}